:020000040002F8
:10600000C04D0020156202001D6202001F620200E6
:1060100021620200236202002562020000000000EB
:1060200000000000000000000000000027620200E5
:1060300029620200000000002B6202002D620200B3
:106040002F6202002F6202005D6402002F620200D4
:106050002F6202002F6202002F6202002F620200F4
:106060002F6202002F6202002F6202002F620200E4
:106070002F6202002F6202002F6202002F620200D4
:106080002F6202002F6202002F6202002F620200C4
:106090002F6202002F6202002F6202002F620200B4
:1060A0002F6202002F6202002F6202002F620200A4
:1060B0002F6202002F6202000000000000000000BA
:1060C0002F6202002F6202002F6202002F62020084
:1060D0002F6202002F6202002F6202002F62020074
:1060E0002F6202002F6202002F62020000000000F7
:1060F000000000002F620200000000002F6202007A
:10610000000000000000000000000000000000008F
:10611000000000000000000000000000000000007F
:10612000000000000000000000000000000000006F
:10613000000000000000000000000000000000005F
:10614000000000000000000000000000000000004F
:10615000000000000000000000000000000000003F
:10616000000000000000000000000000000000002F
:10617000000000000000000000000000000000001F
:10618000000000000000000000000000000000000F
:1061900000000000000000000000000000000000FF
:1061A00000000000000000000000000000000000EF
:1061B00000000000000000000000000000000000DF
:1061C00000000000000000000000000000000000CF
:1061D00000000000000000000000000000000000BF
:1061E00000000000000000000000000000000000AF
:1061F000000000000000000000000000000000009F
:10620000DFF80CD000F02AF8004800470D690200C2
:10621000C04D00200648804706480047FEE7FEE7DD
:10622000FEE7FEE7FEE7FEE7FEE7FEE7FEE7FEE746
:10623000816202000162020040EA01039B0703D071
:1062400009E008C9121F08C0042AFAD203E011F8B5
:10625000013B00F8013B521EF9D27047064C074D36
:1062600006E0E06840F0010394E807009847103426
:10627000AC42F6D3FFF7C8FF0C7502002C75020084
:1062800030B54FF0805000228300D0F83011C3F8B1
:106290000C21C3F81021624B1A60624B1B68624CE0
:1062A0002360604B1B1D1B68241D23605D4B08335E
:1062B0001B68241D23605B4B0C331B68241D23606B
:1062C000584B10331B68241D2360564B14331B6836
:1062D000241D2360534B18331B68534C2034236018
:1062E000504B1C331B68241D23604E4B20331B680E
:1062F000241D23604B4B24331B68241D2360494B12
:1063000028331B68241D2360464B2C331B68241D37
:106310002360444B30331B68434C40342360414B73
:1063200034331B68241D23603E4B38331B68241D07
:1063300023603C4B3C331B68241D2360394B4033A6
:106340001B68241D23600124082902D1D0F83431B0
:1063500013B1082904D006E0354B3449196005E033
:10636000D0F8343113B1082904D006E0314BFB21B9
:10637000196005E0D0F8343113B1082908D00EE0D7
:1063800090F858322C48016863F30301016002E081
:10639000D0F834311BB929494FF4007008602848FF
:1063A0000168C90702D06FF001010160254801684A
:1063B00041F470010160BFF34F8FBFF36F8F4FF057
:1063C0001021D1F80002002803DBD1F804020028D4
:1063D00022DA1D4B1C601D480468002CFCD01224DE
:1063E000C1F800420568002DFCD0C1F804420168E4
:1063F0000029FCD01A6001680029FCD0BFF34F8F40
:1064000010487C380168124A01F4E06111430160D0
:10641000BFF34F8F00BFFDE70F490E48086030BD46
:10642000380500400404001020C5004048810300E6
:106430008C56004018F50040E40E004040960240A3
:106440000004004088ED00E004E5014000E4014064
:106450000400FA050090D003482B00200148006892
:10646000004700001C2B00200FB4054B10B503A9FA
:10647000044A029800F017F810BC5DF814FB000005
:106480007F680200442B002002E008C8121F08C1E8
:10649000002AFAD170477047002001E001C1121FA5
:1064A000002AFBD170472DE9F84F9946924688465D
:1064B0000546002706E025280AD051464A4690475F
:1064C0006D1C7F1C28780028F5D13846BDE8F88F70
:1064D000002315F8011F18462E2915D115F8011FA4
:1064E00004232A290DD06FF02F022978A1F130045E
:1064F000092C09D800EB800002EB400008446D1C19
:10650000F3E758F8040B6D1C2A78002ADDD0632AC3
:1065100007D0732A0FD0104651464A4690477F1C39
:106520002AE018F8042B8DF8002000218DF80110C6
:106530006E46012103E058F8046B4FF0FF315A0713
:106540004FF0000401D409E0641C84420BDA8C4251
:10655000FADB325D002AF7D105E0641C8C42FCDBDB
:10656000305D0028F9D1274404E016F8010B5146AC
:106570004A469047641EF8D26D1CA3E772B60948DC
:106580000068C00700D000BEBFF34F8F0548E43855
:106590000168054A01F4E06111430160BFF34F8FC8
:1065A00000BFFDE7F0ED00E00400FA050EB50021A4
:1065B0000091CDE901106A4644F20100FFF7DEFFC9
:1065C0000EBD10B58268C368934203D000F044F951
:1065D000002010BD052010BD29B112B1531E134279
:1065E00003D0092070470E2070470160838000218E
:1065F0008160C1600846704710B58268C3689A1A06
:1066000083889A4203D800F031F9002010BD04209D
:1066100010BD000070B50A4E01460A48B578FFF774
:10662000D0FF04464DB10020B070711C0122C81D7E
:1066300000F0DEF908B1FFF7B9FF204670BD000099
:10664000242B00209C2D0020F0B5244E89B01F463D
:106650000D00044672603FD0A888296882B22048A5
:10666000FFF7BAFF002835D1A889A96882B21C4873
:106670001030FFF7B1FF00282CD1202219496846BD
:10668000FFF7DAFD60690690207C00B101208DF8EB
:1066900014008DF81C70607C00B10E208DF8150080
:1066A000E0680290A0680390206801906068009004
:1066B0000A480D4A6946083000F066F9002809D1F9
:1066C000B0702068401C05D004490122491CC81D37
:1066D00000F08EF909B0F0BD0720FBE7242B002065
:1066E0009C2D0020EC7402007971020010B5014667
:1066F0001048FFF781FF040019D10F480F4A0178B5
:10670000515C19B1001D00F0BFFC02E00C3000F03C
:10671000A3FB60B9084907480839FFF752FF30B9B1
:10672000054901220839044800F072F90446204660
:1067300010BD0000AC2D00202C2B0020082B0020C9
:1067400000F002B800F008B872B602480168491CAF
:1067500001607047402B002003490868401E086014
:1067600000D162B670470000402B002070B505468E
:1067700008680C46411C04D000F0CEF9206800F0F7
:106780009BF96068411C02D0002100F083F9296860
:10679000A069C1F82405607D227D29681043C1F8F5
:1067A0006C05D4E900122868C0F81425C0F80C154F
:1067B000207D012814D1A068411C02D0002100F0E6
:1067C00069F9E068411C04D000F0A6F9E06800F027
:1067D00073F9D4E902122868C0F80825C0F810152A
:1067E00070BD70B5054608680C46411C04D000F029
:1067F0009DF9206800F06AF96068411C02D0002110
:1068000000F051F92968A069C1F82405607D217D57
:106810002A680843C2F86C05D4E900122868C0F859
:106820000C15C0F81425207D012814D1A068411C46
:1068300002D0002100F037F9E068411C04D000F0DC
:1068400075F9E06800F042F9D4E902122868C0F84E
:106850000825C0F8101570BD826883881A40036847
:106860009A5C0A708168491C81607047C26883889D
:106870001A4003689954C168491CC160704710B53B
:106880000446C0B2FFF732FF204610BD70B50D467A
:10689000044600684FF4887100F07EF94FF490715F
:1068A000206800F079F94FF49271206800F074F9D3
:1068B0004FF4A271206800F06FF920681249C0F807
:1068C00004132068690740F30730090E002806DA30
:1068D00000F00F0000F1E02080F8141D03E000F14B
:1068E000E02080F800142068012140F3073000F018
:1068F0001F0291404009800000F1E020C0F88012A2
:10690000C0F8001170BD00001003020090B01748DD
:106910000D21182201600E21416029218160102182
:10692000C1600B2101611821416114218161112194
:10693000C1610F496846FFF77FFC0E4806900E497B
:106940004FF48070CDE90701099007230B4A06A98F
:106950006846FFF779FE0AA8FFF75CFE0028FAD127
:106960000AA907A0FFF780FDF5E70000E82A00204C
:10697000CC7402004C2B00204C2C002049720200E9
:1069800025730D0A00000000F0B50546047815488F
:1069900089B0164640F82420124A08690832A2F14C
:1069A0000C0742F82400487F385520226846FFF73C
:1069B00043FC04942878385C48B10EB10A4A00E0E0
:1069C00000226946281D00F05FFA09B0F0BD0EB143
:1069D000064A00E00022694605F10C0000F00AF9C1
:1069E000F3E700000C2B0020A973020019720200CB
:1069F00030B40378054CE35C1BB130BC001D00F0E3
:106A000079BA30BC0C3000F05FB90000082B0020D0
:106A100030B40378054CE35C1BB130BC001D00F0C2
:106A2000EBBA30BC0C3000F0C5B90000082B0020D8
:106A30002DE9FF411C46DDE90A7815460E466846F9
:106A400000F04EF846EA450141EA840141EA072296
:106A500042EA0841009A00EB8200C0F80017BDE846
:106A6000FF812DE9FF411C46DDE90A7815460E46F7
:106A7000684600F043F846EA450141EA840141EAEC
:106A8000072242EA0841009A00EB8200C0F8001792
:106A9000BDE8FF811CB500220B4600921146019211
:106AA000FFF7C6FF1CBD1CB500220B460092114625
:106AB0000192FFF7D6FF1CBD1CB5002100910B46CB
:106AC000012201911146FFF7B3FF1CBD1CB5002147
:106AD00000910B46012201911146FFF7C2FF1CBD38
:106AE0000168202902D24FF0A040704701F01F0139
:106AF0000160014870470000000300500168202930
:106B000002D24FF0A040704701F01F010160014820
:106B1000704700000003005001B56846FFF7E0FF32
:106B2000009A01219140C0F8081508BD01B56846DA
:106B3000FFF7E4FF009A01219140C0F8081508BD55
:106B4000202802D24FF0A04202E0074A00F01F00C6
:106B5000D2F804350121814021EA0300C2F808057A
:106B60001940C2F80C157047000300504058002827
:106B700000D00120704708B50022425040580090D4
:106B800008BDD0F80403084000D0012070474058E9
:106B9000002800D00120704708B50022425040581C
:106BA000009008BD0121B1EB507F01D10120704759
:106BB0000020704770B50D4600F074FA04000FD045
:106BC0000020FFF7BDFD207920B10020FFF7BAFDBE
:106BD000112070BD0120256020710020FFF7B2FD5B
:106BE000002070BD0149024800F04ABB4C2D002036
:106BF000002000402DE9F0410546007916460F4679
:106C000000EB40012D4A01EBC00102EB810494F836
:106C10002A1011B10820BDE8F081294951F820104F
:106C20002868FFF7C7FF08B11120F4E73946284666
:106C3000FFF79CFD66603869206030004FF0010668
:106C40002FD03F7F4FF48E712868FFF794FF4FF4E9
:106C5000A2712868FFF78FFF28681A49C0F804134B
:106C600028684FEA471140F30730002806DA00F0A1
:106C70000F0000F1E02080F8141D03E000F1E02097
:106C800080F80014286840F3073000F01F0206FA6D
:106C900002F14009800000F1E020C0F88012C0F845
:106CA000001128680421C0F800150020A061E061EF
:106CB00084F8290044F8140FA675ACE74C2D002089
:106CC000E4740200800002002DE9F05F05460079BF
:106CD0004FF4017600EB400303EBC000344B03EBB1
:106CE00080040020636813B12B68C3F80863A369AC
:106CF0004FF000096BB1E06938B1606810B12868E5
:106D0000C0F804631120BDE8F09FE2610120216119
:106D100005E0C4F82490A261E160C4F81C9094F8E6
:106D20002910014302D1284600F0F8F960680028D4
:106D3000286803D0C0F804630020E4E74FF4A2768B
:106D40003146FFF718FFB2464FF4927B5946286848
:106D5000FFF70CFF06464FF484712868FFF706FF23
:106D6000804651462868FFF701FF074648EA0700BA
:106D70003043EBD056EA070007D12146286800F0DF
:106D80009DF9A169606A8142E0D8C4F818900EB1FB
:106D90000320B8E70FB10F20B5E794F829100120C0
:106DA0000029296801D00860C6E74860C4E70000F0
:106DB0004C2D00202DE9F047054600790B4600EBED
:106DC000400101EBC000234901EB8004284600F09C
:106DD00043F810B11120BDE8F0874FF00008C4F867
:106DE0002080A360626184F828804FF48E76474645
:106DF00031462868FFF7BFFE28684FF00109C0F848
:106E000008902146286800F099F9606800BBD5F821
:106E100000A00EE094F8280008B10F2716E03146D4
:106E20005046FFF7A3FE0028F4D02146504600F05C
:106E300085F9216A60698142F1D331462868FFF7FC
:106E400095FE0028F9D02868C0F80C90C4F814808A
:106E50003846C0E74C2D0020007900EB400101EBE3
:106E6000C000044901EB80004069002800D00120E7
:106E7000704700004C2D00200149024800F0ACBAD8
:106E8000782D0020002000402DE9F04105461646EF
:106E900000790F46154A00EBC00102EB810494F81B
:106EA000201011B10820BDE8F081114951F82010DF
:106EB0002868FFF77FFE08B11120F4E7394628461D
:106EC000FFF78FFC6660386920601EB1397F284665
:106ED000FFF7DCFC28680821C0F800150020A0613D
:106EE000E0610121606184F82010DCE7782D00204A
:106EF000E87402002DE9F05F044600790E4600EBCD
:106F0000C001DFF8F0A017460AEB81053046FFF715
:106F100049FEB0B168684FF000084FF4047910B131
:106F20002168C1F80893A8694FF0000B80B1E869A7
:106F300048B1686810B12068C0F804931120BDE81A
:106F4000F09F1020FBE7EF614FF001082E6102E097
:106F5000EE60C5E9067B00254FF488712068FFF7D5
:106F60001BFE4FF4A2712068FFF716FE2068C0F8E0
:106F70003465C0F838752068B8F1000F12D0D0F829
:106F8000001241F02001C0F800122079D04600EB39
:106F9000C0010AEB8100406838B12068C0F8049352
:106FA0002846CCE701210160EFE74FF4887A4FF4DF
:106FB000A27951462068FFF7EAFD07464946206856
:106FC000FFF7E5FD06464FF492712068FFF7DFFDFD
:106FD000014647EA06000843EBD0227902EBC203E0
:106FE00008EB8302C2F818B001B10325002ED7D0F8
:106FF0000F25D5E7782D00202DE9F04704460E46F1
:107000000079204900EBC00001EB800517463046AF
:10701000FFF7C8FD30B1204600F036F820B111204E
:10702000BDE8F0871020FBE76F61AE604FF490760B
:10703000002731462068FFF7AFFD4FF4AC7841469A
:107040002068FFF7A9FD2068AA686969C0F844258F
:10705000C0F84815206801218160686878B9B14698
:1070600049462068FFF793FD064641462068FFF732
:107070008EFD0643F4D000B10F270020686138462A
:10708000CEE70000782D00200079054900EBC00014
:1070900001EB80004069002800D00120704700000B
:1070A000782D00200349884201D103487047002011
:1070B00070470000002000401C2B002070B50546E2
:1070C00088690C4600284FF4847128460AD0FFF7DF
:1070D00052FDD5F81805626AE1688854606A401C60
:1070E000606270BDFFF747FDD5F8180570BD1FB58C
:1070F00001238DF80030CDE90121D0E90012684666
:1071000090471FBD1FB501238DF800308DF8081082
:107110000192D0E90012684690471FBD10B50446A1
:1071200000684FF49271FFF726FD4FF484712068D8
:10713000FFF721FD20680121016010BD70B50C46EC
:1071400005464FF48E71FFF716FD216AA068415C79
:10715000206A401C2062C5F81C1570BD1FB50022B6
:107160008DF800200291816801914261D0E90012FE
:10717000684690471FBD00007CB50178244D81B35F
:1071800001290BD002292BD18DF80010C068691C91
:1071900001900122C81DFFF72BFC2EE0406801780A
:1071A0001C48FFF729FA1B4C012618B18DF8006026
:1071B000019006E0A068E168814205D000208DF8CA
:1071C0000000696868468847A068E168081AA188D5
:1071D000884207D80E490122491CC81DFFF708FC48
:1071E0007CBD01E0AE70FBE70A4809491030FFF7AB
:1071F000E8F930B103208DF80000696868468847D7
:10720000EEE70349012201F10800FFF701FCE7E77F
:10721000242B00209C2D00201FB50A4601788DF8F4
:10722000001041680191017A8DF80810C068039040
:10723000044850F82210083850F822206846904739
:107240001FBD0000142B002008B50178022909D0C9
:10725000012907D051B1032903D108480068FFF77D
:107260006FFC08BD4068FFF7A1F908BD6846FFF74D
:10727000D1F99DF80000FFF739FA08BDE82A00208F
:107280002DE9FF470C4605464FF40071FFF779FCE6
:1072900001274FF40178002618B34FF4927949463C
:1072A0002846FFF763FCE0B149462846FFF763FC38
:1072B000C5F8088394F8290000B96F6002208DF8A2
:1072C0000000D5F88004C5F880040390A0690290FE
:1072D000E0680190A661E661D4E900126846904733
:1072E00028E004212846FFF74CFC18B34FF48471C2
:1072F0002846FFF73BFCE8B121462846FFF7DEFEB3
:10730000616AA069884215D1E06938B1E268616AB2
:10731000A0612069E6616662E06008E094F82900F7
:1073200000B96F60C5F80883A661E268616A20460B
:10733000FFF7DDFE4FF48E7841462846FFF716FC36
:1073400078B1206A6169884202D294F8280020B39B
:1073500041462846FFF70FFC616911B12046FFF74F
:10736000FDFE4FF4A27841462846FFF7FFFB0028B8
:1073700018D041462846FFF7FEFB94F8290000B1DB
:107380002F60A06900280DD0A661E268616A04B090
:107390002046BDE8F047FFF7AABE21462846FFF782
:1073A000CDFEDEE7BDE8FF871FB50A4601788DF800
:1073B000001041680191017A8DF80810C0680390AF
:1073C000044850F82210083850F8222068469047A8
:1073D0001FBD0000142B00202DE9FF410C464FF487
:1073E000927705463946FFF7D2FB0026C0B13946F1
:1073F0002846FFF7D1FB02208DF80000D5F8800465
:10740000C5F880040390D5F83C058DF80800E068C5
:107410000190A661E661D4E900126846904723E036
:107420004FF4887739462846FFF7B1FBE0B139467B
:107430002846FFF7B1FBD5F83C15A069884213D167
:10744000E06960B1E268D5F8000220F02000C5F8DC
:107450000002E069A0612069E661E06001E0A661E8
:10746000E2682046FFF74EFE4FF4A27739462846E1
:10747000FFF78DFB60B139462846FFF78DFBA06909
:1074800030B1A661D5F83C152046E268FFF73AFE18
:107490004FF4907739462846FFF779FB002813D040
:1074A00039462846FFF778FB606900280CD0D5F8EC
:1074B0004C058DF800608DF80800A06801906661A9
:1074C000D4E9001268469047BDE8FF81080000003B
:1074D00006000000000000000000000000000000A6
:1074E00000E0D701E56B0200796E0200FFFFFFFFAD
:1074F000FFFFFFFFFFFFFFFFFFFFFFFF0000000098
:10750000000000000000D601060100002C750200FA
:10751000E82A0020640000008864020090750200E0
:107520004C2B002074220000986402000000000030
:10753000000000000000000000000000000000004B
:10754000000000000000000000000000000000003B
:10755000000000000000000000000000000000002B
:10756000000000000000000000000000000000001B
:10757000000000000020004000000000002000404B
:107580000000000000000000000000000090D00398
:040000050002620192
:00000001FF
