:020000040002F8
:10600000806A0020C1630200C9630200CB63020002
:10601000CD630200CF630200D163020000000000E4
:10602000000000000000000000000000D363020038
:10603000D563020000000000D7630200D9630200AC
:10604000197C0200DB630200D9830200DB630200DB
:10605000F57D0200DB630200397502004D7C020011
:106060009D830200B1830200C5830200DB6302004E
:10607000DB630200DB630200DB630200DB63020020
:10608000DB630200297C0200DB630200DB630200A9
:10609000057E0200DB630200097E0200DB63020072
:1060A000DB630200DB630200DB630200DB630200F0
:1060B000DB630200DB630200000000000000000060
:1060C000DB630200DB630200DB630200DB630200D0
:1060D000DB630200DB630200DB630200E583020096
:1060E000DB630200DB630200DB63020000000000F0
:1060F00000000000DB63020000000000DB63020020
:10610000000000000000000000000000000000008F
:10611000000000000000000000000000000000007F
:10612000000000000000000000000000000000006F
:10613000000000000000000000000000000000005F
:10614000000000000000000000000000000000004F
:10615000000000000000000000000000000000003F
:10616000000000000000000000000000000000002F
:10617000000000000000000000000000000000001F
:10618000000000000000000000000000000000000F
:1061900000000000000000000000000000000000FF
:1061A00000000000000000000000000000000000EF
:1061B00000000000000000000000000000000000DF
:1061C00000000000000000000000000000000000CF
:1061D00000000000000000000000000000000000BF
:1061E00000000000000000000000000000000000AF
:1061F000000000000000000000000000000000009F
:10620000DFF80CD000F08EFC00480047C1B6020059
:10621000806A002030B450E8012F93B2C48923442F
:106220008489A34228BF1B1B0489A34202BFBFF37A
:106230002F8F002007E0C3EA020340E80134002C5E
:10624000E9D14FF001000A6030BC704750E8012FDF
:10625000C2EA024240E801210029F7D1704730B478
:1062600050E8022F1FFAA2F3C488A34202BFBFF373
:106270002F8F00200DE0C48923448489A34228BFC6
:106280001B1BC2EA034340E80234002CE8D14FF064
:1062900001000A6030BC704750E8022FC2EA224277
:1062A00040E802210029F7D17047034653E8022F46
:1062B000D988B2EB324F4FF0000017BF92B241EADB
:1062C000014142EA014104E05A68B2EB324F08BF93
:1062D000012043E80212002AE8D1704730B4044696
:1062E00054E8000F0D4644E80053002BF8D1156028
:1062F00030BC704730B4044654E8000F40EA010552
:1063000044E80053002BF7D1156030BC704730B41F
:10631000044654E8000F00EA010544E80053002B4E
:10632000F7D1156030BC704730B4044654E8000F14
:1063300080EA010544E80053002BF7D1156030BC1A
:10634000704730B4044654E8000F00EB010544E800
:106350000053002BF7D1156030BC704730B40446B1
:1063600054E8000FA0EB010544E80053002BF7D1DF
:10637000156030BC704770B404464FF0000054E81C
:10638000006F0D68AE4207BF44E80023012044E8D7
:1063900000630E60002B1CBF0020F0E770BC70474C
:1063A00030B4044654E8000F88422CBF451A054615
:1063B00044E80053002BF5D1156030BC7047000055
:1063C0000648804706480047FEE7FEE7FEE7FEE78F
:1063D000FEE7FEE7FEE7FEE7FEE7FEE7BD8102001F
:1063E00001620200202A04DB203A00FA02F10020B8
:1063F00070479140C2F1200320FA03F31943904003
:1064000070470000004870472C1B030010B504467D
:10641000FFF7F8FF0068005D00F0010010BD40EAE2
:1064200001039B0703D009E008C9121F08C0042A12
:10643000FAD203E011F8013B00F8013B521EF9D2F9
:106440007047D2B201E000F8012B491EFBD2704721
:106450000022F6E710B513460A4604461946FFF730
:10646000F0FF204610BD421C10F8011B0029FBD193
:10647000801A704710B5002200E0521C835C8C5CCF
:10648000A34201D1002BF8D1D8B2E1B2401A10BD1D
:1064900030B504460020034600E05B1C934203D263
:1064A000E05CCD5C401BF8D030BD034611F8012BF9
:1064B00000F8012B002AF9D1184670472DE9FE4F4C
:1064C000804681EA0300C00F0C46009021F0004195
:1064D00023F00045B8EB0200A94105D24046214611
:1064E00090461C460B46024623F00040104347D01E
:1064F000270DC7F30A00C3F30A510290401A019016
:1065000040286BDAC3F3130040F4801B00989246D6
:1065100020B10023D2EB030A63EB0B0B0198594621
:10652000C0F140025046FFF75DFF06460D4650465B
:106530005946019A00F062F910EB0800614100240D
:1065400087EA115284EAE7731A4340D0009A62B393
:10655000019A012A4FEA075215DC001B61EB020188
:106560004FF0004202EA0752CDE90042001C41F51B
:10657000801132462B4600F0E7F903B0BDE8F08FFA
:1065800040462146F9E7001B61EB0201001C41F582
:10659000801300185B412018A2F5001747EB030198
:1065A00040EAD570B6196D4111E06D084FEA360624
:1065B00045EAC0754FEA0752001B61EB0201001C5F
:1065C00041F5801149084FEA300000195141324627
:1065D0002B4603B0BDE8F04F00F0A7B900980122A8
:1065E00040000023D0EB020263EBE07300982146E9
:1065F0004FEAE074B8EB000061EB0401E9E783F0D7
:1066000000435BE781F0004158E72DE9FE4F81EA46
:10661000030404F0004421F0004100944FF0000B0B
:1066200023F0004350EA01045ED052EA03045BD039
:10663000C3F30A54C1F30A552C44A4F2F334019471
:10664000A0FB0254C1F3130141F48011C3F31303FF
:1066500043F4801301FB024400FB034E840A970AB3
:1066600044EA815447EA8357A4FB076802958D0AE0
:1066700005FB07854FEA932C04FB0C542705029D6C
:106680004FEA065847EA1637B5EB08056EEB070CDC
:10669000870E920E47EA811742EA8312A7FB020196
:1066A000B6EB0B0164EB00042B0D43EA0C335E18D0
:1066B00044EB1C50DA465146E7FB0201C5F31304D4
:1066C0004FEA0B3343EA14534FEA0432019C43EA86
:1066D0000603A4F10C040294009CCDE900B400F080
:1066E00033F903B0BDE8F08F00200146F9E70EB59D
:1066F000C10F80EAE0700844CA07002140F233432A
:106700008DE80E000A460B4600F01EF903B000BDEE
:1067100000F0004230F000400AD0C10D01F5607178
:10672000C0F3160042EA0151C20840071143704706
:1067300000200146704701F0004330B421F00041D1
:1067400050EA010206D00A0DA2F56072C1F31301EE
:10675000002A02DC30BC00207047440F44EAC10428
:10676000C100E01830BC00EBC25000F0A7B830B553
:106770000B46014600202022012409E021FA02F5FF
:106780009D4205D303FA02F5491B04FA02F5284499
:10679000151EA2F10102F1DC30BD2DE9F05F0546C6
:1067A000002092469B4688460646814640241BE0D0
:1067B000284641464746224600F0C6F953465A4607
:1067C000C01A914110D3114618462246FFF70AFE1F
:1067D0002D1A67EB01084F46224601200021FFF7E2
:1067E00001FE17EB00094E41201EA4F10104DFDC7D
:1067F000484631462A464346BDE8F09F202A06DB3C
:10680000CB17203A41FA02F043EAE07306E041FA7E
:1068100002F3D040C2F1200291400843194670476C
:106820000FB4002300B589B00CA900910B996FF04B
:106830000042CB601E4B06931E4B07930423CDE909
:1068400001321D4A089202466B46002000F020FAF1
:1068500009B05DF814FB70B586B006464FF0FF3006
:106860000091CDE90101002015460C460490324606
:10687000694604A8FFF7D4FF02460498211825B101
:1068800008B1084600E020462860049800280DD092
:10689000002A02DD0098884208D0081B0094CDE948
:1068A00001043246694604A8FFF7BAFF06B070BD7E
:1068B000C96E0200E76E02000D6402000029A8BF45
:1068C0007047401C490008BF20F00100704710B419
:1068D000B0FA80FC00FA0CF050EA010404BF10BCCE
:1068E000704749B1CCF1200421FA04F411FA0CF1FB
:1068F00018BF012121430843A3EB0C01CB1D4FEA34
:1069000000614FEA102042BF002010BC704700EB2E
:10691000C35010440029A4BF10BC7047401C49005C
:1069200008BF20F0010010BC704710B5141E73F1B1
:10693000000408DA401C41F1000192185B411A433F
:1069400001D120F0010010BD2DE9F04D92469B468B
:1069500011B1B1FA81F202E0B0FA80F22032904631
:10696000FFF740FD04460F4640EA0A0041EA0B01EA
:1069700053465A46084313D0114653EA010019D032
:10698000C8F14002504600F0DFF805460E4650467A
:1069900059464246FFF726FD084305D0012004E092
:1069A00020463946BDE8F08D0020054346EAE076F2
:1069B0002C4337430A986305E40AA0EB0800002241
:1069C000FD0A44EA47540A3002D500200146E9E7AF
:1069D000010510196941DDE9084500196941BDE863
:1069E000F04DA2E72DE9F04D81EA030404F0004BDD
:1069F00021F0004514464FF0000A23F0004150EA10
:106A0000050220D054EA01021DD0C5F30A57024600
:106A1000C5F31303C1F31300C1F30A5640F4801504
:106A200043F48013A7EB0608101BD64608F2FD3886
:106A300073EB050002D308F1010801E092185B41F5
:106A4000B8F1000F03DA00200146BDE8F08D002008
:106A50004FF48011064684460EE0171B73EB0507C2
:106A600005D3121B63EB050306434CEA010C4908EE
:106A70004FEA300092185B4150EA0107EDD152EA2B
:106A8000030012D082EA040083EA0501084305D01E
:106A9000101BAB4106D20122002306E000224FF07A
:106AA000004302E06FF0010253101AEB06004CEBBA
:106AB000085110EB0A0041EB0B01BDE8F04DFFF768
:106AC00034BFC1F30A52C1F3130140F2FF3341F462
:106AD00080119A4202DA00200146704740F23343A7
:106AE0009A42A2F2334202DC524200F02DB8FFF784
:106AF00079BC000030B5041E71F1000404DB4FF0D6
:106B00000044404264EB0101141E73F1000405DBF4
:106B10001C464FF00043524263EB0403994208BF06
:106B2000904230BD064C074D06E0E06840F001039E
:106B300094E8070098471034AC42F6D3FFF764FBA3
:106B40002C2C03004C2C0300202A04DB203A21FAD1
:106B500002F00021704721FA02F3D040C2F1200276
:106B600091400843194670472DE9FF4F087883B0DC
:106B70009946FF2805D0491C2D2804D00024002068
:106B800008E000200BE00124F9E700EB800003EBB4
:106B90004000491C0B78FF2BF7D104B14042002381
:106BA0000293147819461D462D2C01D02B2C04D1AC
:106BB000521C2D2C13D000240294AA461478FF2CCA
:106BC0000FD00A25A3FB057801FB05814FF0000CCF
:106BD00003FB0C11521CE3194AEB0101EEE70124FF
:106BE000EAE7814453EA010002D019F5C87F06DACA
:106BF00003980021C0E9001107B0BDE8F08F00251F
:106C0000AE4E2F46DFF8B882184600F07DF9CDE988
:106C10000001B9F1000002DAC9F1000400E0044605
:106C20000023A74A1AEB030B42EB045A12E0E007D9
:106C300007D02A46334638464146FFF7E6FC07466A
:106C400088462A46334610461946FFF7DEFC0546BD
:106C50000E466410002CEAD1DDE90001B9F1000F05
:106C60005A46534606DAFFF7BDFE3A464346FFF75B
:106C7000B9FE05E0FFF7C9FC3A464346FFF7C5FCFD
:106C8000029A0AB181F00041039AC2E90001B3E718
:106C90002DE9FF4F1F468DB0D7E901464FF0FF3871
:106CA0002E2045464FF000090B90B9696D1C0E98D7
:106CB0008847396A824688470028F6D1BAF1FF3FF3
:106CC0000AD024F4D064002E11DDBAF12B0F08D0C5
:106CD000BAF12D0F0BD102E0404611B08DE744F41C
:106CE0008064B9696D1C0E9888478246761E694695
:106CF000600501D52D2000E02B208DF8000001F16A
:106D0000010B0DF1200809E0B9696D1C0E98884748
:106D100082460F9844F40074761E0560002E02DD52
:106D2000BAF1300FF0D00B998A453ED144F080047F
:106D300006E00F99681CA9F1010944F40074086089
:106D4000B9696D1C761E0E98884782463028F0D0AF
:106D50002BE00B998A4505D1200603D444F080042A
:106D6000761E18E0504601F0BBFD08B30DF113018B
:106D7000761E44F400748B4508D2AAF130000BF85B
:106D8000010B200607D5A9F1010003E0200602D47B
:106D900009F101008146A00502D50F99681C086021
:106DA000B9696D1C0E9888478246002ED1DC53E0ED
:106DB000002E51DDBAF1650F02D0BAF1450F4BD16B
:106DC000A00549D5B9696D1C24F44074761E0E984F
:106DD00088478246002E0CDD2B2804D0BAF12D0FF7
:106DE00007D144F48074B9696D1C0E9888478246B7
:106DF000761EE00501D52D2100E02B2108F8011BAE
:106E0000CDF82C8021E00DF12901761E44F40074A8
:106E100088450CD2AAF1300010F0FF0088F800007D
:106E200002D10B99884509D908F1010806E0E0056F
:106E300001D5244801E042F20F708146B9696D1C0A
:106E40000E98884782460F980560002E04DD504654
:106E500001F046FD0028D6D1F9690E988847FF2039
:106E60008BF8000088F800000020069007904B4641
:106E70006A4608A906A8FFF777FEA00502D46FF0BE
:106E800001002AE714F0240F0AD0E00714D1DDE94D
:106E900006123868031D3B600068C0E900120BE071
:106EA000DDE90601FFF747FC0146E00704D1386839
:106EB000021D3A600068016028460EE70000144099
:106EC0000000F03FF1D8FFFF426842B1016811F8BD
:106ED000013B23B1521EC0E9001218467047012140
:106EE000C160881E704742685AB1C368016843B9DF
:106EF00083688B4205D0491E521CC0E90012002055
:106F000070474FF0FF3070470EB540F233420292A7
:106F10000022CDE900221346FFF716FD03B000BDA5
:106F200070B58C1810F8015B15F0070301D110F84B
:106F3000013B2A1106D110F8012B03E010F8016B78
:106F400001F8016B5B1EF9D12B0705D40023521EFB
:106F50000DD401F8013BFAE710F8013BCB1A921C63
:106F600003E013F8015B01F8015B521EF9D5A14261
:106F7000D8D3002070BD000070B505462DED0A8BFA
:106F800000249FED17AB9FED18BB9FED19CB284652
:106F900001F00DF9FFF7ABFB53EC1A2BFFF735FBB4
:106FA00053EC1B2BFFF731FB53EC1C2BFFF72DFB96
:106FB00041EC190B18EE100AFFF7AAFB53EC192B42
:106FC000FFF77CFAFFF7B7FB08EE100A641C0A2CE7
:106FD000DDDBF2EE040A88EE200ABDEC0A8B70BD00
:106FE000CDCCCCCCCCCC0C40000000000000303F1D
:106FF0000000000000408F4010B52D2005F030FA51
:107000002B2005F02DFA2D2005F07AFABDE810406E
:107010002C2005F075BA10B52D2005F021FA2C2092
:1070200005F01EFA2D2005F013FBBDE810402C20C2
:1070300005F00EBB074890ED010A0748D0ED010AA4
:10704000B4EEE00AF1EE10FA01DDFFF7E4BFFFF75E
:10705000D3BF0000E02C0020E82A00200E480F4992
:1070600010B5401AC108032000EB01440CA12046D2
:1070700005F00AFD204611A105F006FD204619A1E4
:1070800005F002FD204624A105F0FEFC2046BDE8E7
:10709000104027A105F0F8BC3C2D03005C2C030038
:1070A0002A2A2A2A2A2A484152445741524520492D
:1070B0004E464F2A2A2A2A2A2A000000434F4D4DC5
:1070C000554E4954592056455253494F4E202C2075
:1070D000524553454152434820555345204F4E4C4D
:1070E00059200000424F415244204D4F44454C200E
:1070F0003A20477972666C61636F6E20436F6D6DE5
:10710000756E6974792056657273696F6E20763278
:107110003448312E312E300044455349474E4544C2
:10712000204259203A205469616E796920477500E0
:10713000434F505952494748542020203A2054691F
:10714000616E796920477520414C4C20524947486F
:1071500054532052455345525645442000000000E8
:1071600038B52F482F49401AC408032000EB0445C6
:107170002DA1284605F088FCFFF770FF284638A1AE
:1071800005F082FC00F07CFB00F0EEFB042000EB3D
:1071900004443AA1204605F077FC00F08FFB00F094
:1071A000CBFF20463CA105F06FFC00F093F9204690
:1071B0003EA105F069FC204645A105F065FC20468E
:1071C00049A105F061FC28464DA105F05DFC4FF496
:1071D000FA7004F03BFC06F059F808B101F0BAFF70
:1071E000002000906946012005F0C4FE08B101F0BE
:1071F000B1FF684605F058FF08B101F0ABFF20462B
:1072000045A105F041FC00F021F9204647A105F019
:107210003BFC2846BDE8384003A105F035BC000022
:107220003C2D03005C2C03002D2D2D2D2D2D2D2DFF
:107230002D2D2D2D2D2D2D2D2D2D2D2D53595354DF
:10724000454D20494E49542D2D2D2D2D2D2D2D2DC3
:107250002D2D2D2D2D2D2D2D2D2D2D2D2D000000E5
:107260002A2A2A2A2A2A5065726970686572616C16
:1072700020494E49542A2A2A2A2A2A0049324320E0
:107280004445564943455320494E49542046494EAA
:107290004953484544200000534F4320494E495428
:1072A0002046494E4953484544200000434F4D4D28
:1072B000554E49434154452044455649434520498C
:1072C0004E49542046494E49534845442000000049
:1072D0004368697054656D7020494E495420464991
:1072E0004E49534845442000424F41524420494EA4
:1072F00049542046494E4953484544200000000067
:107300002A2A2A2A2A2A535441434B20494E4954B7
:107310002A2A2A2A2A2A0000424C45205354414353
:107320004B20494E4954454420000000525443200C
:1073300054494D45525320534554454420000000C4
:1073400008B568464CDF0098C11700EB9170024900
:107350008010086008BD0000E02C002010B500F08F
:1073600043F8104C201D90EC040A206800F0BEF990
:107370000D48007870B194ED020A012000F0A4FEDF
:1073800094ED030A022000F09FFE94ED040A03200E
:1073900000F09AFE94ED000ABDE81040B8EEC00A75
:1073A00000F06ABEE02C0020E82A002010B500F0B2
:1073B000FDFE0020FFF7E0FD0A4C012084ED010AEC
:1073C000FFF7DAFD84ED020A0220FFF7D5FD84ED18
:1073D000030A0320FFF7D0FD84ED040ABDE8104046
:1073E000FFF728BEE02C002010B5FFF7DFFFBDE857
:1073F0001040FFF7A5BF000010B500F047F800F0FF
:10740000DBFD4FF4FA7004F021FB00F08EFA00F07F
:1074100065FD00F035FD00F0F9FC06A000F02AFD46
:107420004FF47A7004F012FB00F07FFABDE81040D0
:1074300000F022B85065726970686572616C2066F0
:10744000696E6973682021202000000010B500F0EB
:1074500005F8BDE8104000F00FB8000010B501F0CD
:10746000BFFEBDE81040024A0121024801F0A6BE5D
:1074700099830200B00C0300034800224FF400413E
:10748000006801F0D7BE0000B00C0300014800689E
:1074900001F014BFB00C030008B52D2005F00CF866
:1074A0002D200090684605F09DF8009A012191403A
:1074B000C0F80C1508BD08B52D2004F0FDFF2D20E7
:1074C0000090684605F08EF8009A01219140C0F8BE
:1074D000081508BD1FB50B4800900B494FF400700C
:1074E000CDE9010103900723084A6946084801F0E5
:1074F0000FFF002804D004B0BDE8104001F02ABE00
:107500001FBD0000F42C0020F42E00209900030081
:10751000F82A002010B5044604F0C2FF2046BDE85A
:10752000104005F001B810B5044604F0B9FF20463C
:10753000BDE8104005F082B82DE9F04F00268DB06F
:10754000DFF8A081B14604964FF4807501243746D8
:107550000596284605F0AEF838B1D8F80403204265
:1075600003D0284605F09CF826432D1D64007F1C9F
:10757000ADB2082FEDD34FF4BE74204605F09AF853
:1075800048B1204605F08CF846F0004604AA0221D6
:10759000002005F06FF8544C16F0FF0F15D00127AE
:1075A000002537420DD008EB8501D1F81005D1F840
:1075B0001015C0F3052054F82520C1F3014102B194
:1075C00090477F006D1C082DEBD3002E7EDA002043
:1075D000CDF82890411E0DF1100B07AACDF82C9084
:1075E00042F82010401C91460228F9D300252E466F
:1075F000A11911F8607F91F9000027F0C008401C24
:1076000040D007A9404604F000FA40B34FEA971A69
:10761000404602F093FA54F820701FB1BAF1030FFC
:1076200003D006E0BAF1030F2CD10AA9404604F0BA
:10763000F4F902A8CDF8088004F08EFF029900EB5F
:107640008100D0F8000704A9C0F301400290404631
:1076500004F0DBF90028029802D0022802D011E0E1
:1076600003280FD1BAF1030F08D10298022833D0B2
:107670000221404604F02CFF6D1CEDB217B15146BB
:107680004046B847761C042EB2D3002D21D001AA63
:107690000221002004F0EEFF00205A460DF1040103
:1076A00052F8206051F82030B34217D000200AAEC3
:1076B0004FEA090351F8207042F8207056F8207004
:1076C00043F82070401C0228F4D300E001E0002DB4
:1076D0008CD10DB0BDE8F08F0321CAE7401C022811
:1076E000DED3F6E700600040C434002010B5044645
:1076F0002DED048B002182B0F0EE618AB0EE419A4C
:10770000F0EE609AB0EE408A01233AA2084600F0FB
:1077100017FA0122B0EE690A1146002000F092F932
:10772000012337A20221002000F00AFA0122B0EE64
:10773000490A0321002000F085F9012333A2042126
:10774000002000F0FDF90122B0EE680A05210020BA
:1077500000F078F9012330A20021402000F0F0F978
:107760000122B0EE480A1146402000F06BF90123D7
:107770002CA20221402000F0E3F901200090022316
:1077800022460321402000F079F9012328A2042198
:10779000382000F0D5F9022329A20621002000F0AC
:1077A000CFF92B4C2078012815D0022816D00328B9
:1077B0001BD004284FF001031AD026A20521402037
:1077C00000F0BEF9002020702078401C207002B02C
:1077D000BDEC048B10BD012321A201E0012321A2F5
:1077E0000521402000F0ACF9EEE701231FA2F7E7E6
:1077F00020A2F5E753656E736F72313A20000000E6
:1078000053656E736F72323A2000000053656E73D9
:107810006F72333A2000000043757272656E743ADD
:10782000200000004350552054656D703A20000040
:107830003E3E776F726B696E673C3C200000000033
:10784000477972666C61636F6E53797374656D000E
:10785000F12A0020202020202020202020000000CD
:107860003E3E00003E3E3E3E000000003E3E3E3EAC
:107870003E3E00003E3E3E3E3E3E3E3E000000009C
:107880001FB5094B0FCB8DE80F00074800231A46A0
:107890006946103804F07CF908B101F05BFC02483D
:1078A0000C3806F053F81FBD981A030007B50123E2
:1078B00002AA08F09BFFC0B20EBD000001490020E3
:1078C0000860704704C5004000F01F02012191408C
:1078D0004009800000F1E020C0F88012704700F0FD
:1078E0001F02012191404009800000F1E020C0F812
:1078F0000011704700F01F020121914040098000F3
:1079000000F1E020C0F8001270474907090E002876
:1079100006DA00F00F0000F1E02080F8141D704737
:1079200000F1E02080F8001470470020AFF30080E1
:1079300070B506465FF0000404F1B000C0B200F07C
:1079400005FE002000F002FE102000F0FFFD0025E3
:10795000304600F000FE6D1CEDB2802DF8D3641CA3
:10796000E4B2082CE8D370BD10B5AE2000F0EEFDF7
:10797000202000F0EBFD102000F0E8FDB02000F02A
:10798000E5FDC82000F0E2FD002000F0DFFD102042
:1079900000F0DCFD402000F0D9FD812000F0D6FD94
:1079A000EF2000F0D3FDA12000F0D0FDA62000F0D4
:1079B000CDFDA82000F0CAFD3F2000F0C7FDA420A7
:1079C00000F0C4FDD32000F0C1FD002000F0BEFD9A
:1079D000D52000F0BBFDF02000F0B8FDD92000F06C
:1079E000B5FD222000F0B2FDDA2000F0AFFD12203C
:1079F00000F0ACFDDB2000F0A9FD202000F0A6FD8A
:107A00008D2000F0A3FD142000F0A0FDAF2000F0B9
:107A10009DFDBDE810400020FFF78ABF10B5044669
:107A2000B031C8B200F092FD102040EA141000F00E
:107A30008DFD04F00F00BDE8104040F0010000F0A3
:107A400085BD0000FEB5064614460D4610EE100A30
:107A5000FEF75EFE41EC100B06A153EC102B6846BE
:107A600000F01CFE23466A462946304600F068F8BE
:107A7000FEBD0000252E3166000000002DE9F84F04
:107A800006460020DDF828A08DF800001C468B4635
:107A9000E94695B25046BAF1010F04D0022828D128
:107AA0009846002748E09846002720E0641EE1B28F
:107AB0000C460A2003F074FEB5FBF0F08DF80000D0
:107AC00021460A2003F06CFE01469DF80000534653
:107AD00000FB115130308DB28DF800004A465946F6
:107AE000304600F02DF8B61D7F1CF6B2FFB24745B8
:107AF000DCD3BDE8F88F641EE1B20C460A2003F027
:107B00004FFEB5FBF0F08DF8000021460A2003F08F
:107B100047FE01469DF80000534600FB11513030EE
:107B20008DB28DF800004A465946304600F008F8FC
:107B300008367F1CF6B2FFB24745DCD3D9E7000018
:107B40002DE9F047002591468A460446012B22D0B4
:107B5000DFF8BC80022B24D155E02038C7B27E2C40
:107B600004D90AF10100002400F0FF0A5146204622
:107B7000FFF754FF07EB4700002608EB4007B85D0E
:107B800000F0E9FC761CF6B2062EF8D3A41D6D1C9D
:107B9000E4B2EDB201E0DFF87C8019F805000028BE
:107BA000DBD1BDE8F0872038C7B2782C04D90AF1C0
:107BB0000100002400F0FF0A51462046FFF72EFF87
:107BC0005FF0000606EB071118F8010000F0C3FC97
:107BD000761CF6B2082EF5D30AF10100C1B2204698
:107BE000FFF71CFF5FF0000606EB071101EB080032
:107BF000007A00F0B0FC761CF6B2082EF4D30834FC
:107C00006D1CE4B2EDB219F805000028CBD1C8E72D
:107C1000901403006812030010B505F037FDBDE8AD
:107C2000104005F0D1BC000007480021C0F8401109
:107C3000C0F84411C0F84811C0F84C11C0F8001148
:107C4000C0F8041107F0D8BE001001402DE9FE4332
:107C50004FF48278404605F071F94C4F00254C4CAA
:107C6000012600B3404605F071F994F82E0010B1DA
:107C700094F82F10D1B18DF80050616801912189DD
:107C8000ADF80810E26832B1218B61836260218116
:107C9000E56010B102E0257400E03E6021686846AE
:107CA000884784F82F5094F82E0060B34FF4807703
:107CB000384605F043F930B3384605F047F9628B92
:107CC00094F82D108A420AD9A2EB010080B2608399
:107CD0002289A2EB0000626802EB400005E007D1B8
:107CE000E06828B184F82F60658305F015F904E099
:107CF0008A4202D184F82F606583404605F026F958
:107D00002248001D06604FF48877384605F016F9C2
:107D100048B1384605F01AF9257402208DF80000A4
:107D20002168684688474FF48A77384605F006F997
:107D300028B1384605F00AF92574BDE8FE834FF0F6
:107D400000484FF48C7967691DE000BFB7FA87F0EF
:107D500028FA00F109EB80058F43284605F0EEF87C
:107D600088B1284605F0F2F8A5F58C75E8088DF87D
:107D7000040045F38000401C8DF800608DF805007C
:107D8000216868468847002FE0D1D6E700700040A0
:107D90008035002000F0E4BB70B50E46144900EBBE
:107DA000400001EBC0051446E86A183520B10128EF
:107DB0000FD0022805D113E0284600F005FCA042B0
:107DC00001D2002411E022463146284600F034FC5E
:107DD0000BE0284600F0F8FBA042F4D20446F2E79C
:107DE0003146284600F0FBFB0446204670BD0000EB
:107DF000F845002002494FF0402007F0A9BE0000DE
:107E00000C38002007F046BD05F07ABA10B510A076
:107E100000F030F8FFF74FFB4FF4FA74204603F000
:107E200015FEFFF739FB204603F010FEFFF743FB7A
:107E3000C82003F00BFEFFF72FFBC82003F006FE5F
:107E400001230421BDE8104006A20A20FFF778BEF6
:107E5000436865636B696E672042757A7A65722044
:107E60002E2E2E0042757A7A657220436865636B08
:107E7000656400000123024606210A20FFF760BE68
:107E800010B50DA0FFF7F6FF2B20FFF74CFB2C20C1
:107E9000FFF749FB4FF47A7003F0D8FD2B20FFF772
:107EA00039FB2C20FFF736FB01230321BDE81040EE
:107EB00006A20A20FFF744BE436865636B696E67DC
:107EC000204C4544202E2E2E202000004C454420DE
:107ED00020436865636B65640000000070B5012392
:107EE0001FA200211420FFF72BFE012321A2194617
:107EF0000A20FFF725FE24A0FFF7BCFF4FF4FA602D
:107F000003F0A4FDFFF711FD00244FF4FA75E1B270
:107F1000012322A20A20FFF713FEE1B201231FA2D0
:107F20004020FFF70DFE284603F090FD641C082C4E
:107F3000EDD3FF20FFF7FCFC4FF47A7003F086FDD1
:107F4000FFF7F3FC012306A200211420FFF7F8FD40
:107F5000BDE870400123022113A20A20FFF7F0BD03
:107F60005065726970686572616C20546573742025
:107F700000000000436865636B696E67204F4C45E5
:107F80004420202020202000436865636B696E67D1
:107F9000204F6C6564202E2E2E0000005445535453
:107FA000204F4C45440000004F4C45442043686539
:107FB000636B65640000000038B5002407A00090E2
:107FC00008A30AA20AA10CA000F018F8641C052C52
:107FD000F4D3BDE83840FFF7A8BC000067536C61DC
:107FE0007665000067486F73740000003000000081
:107FF00054455354494E47005453540030B51C4621
:108000001346B3B0174A369D1278CDE910250F926A
:108010001292CDE90B240D920E92CDE9072309921D
:108020000A92CDE904210692CDE90020039213467D
:108030000D4913A8029200F031FB13A804F0E2FDF1
:1080400002460A480A49401AC008032101EB0040D1
:1080500008A104F01DFD13A906A000F00FFB33B02A
:1080600030BD0000F02A0020301B03003C2D03002F
:108070005C2C03002573000000B585B010EE100ADB
:10808000FEF746FB41EC100B07A153EC102B01A8A7
:1080900000F004FB06A0009007A309A201A909A013
:1080A000FFF7ACFF05B000BD252E316600000000D3
:1080B00067536C617665000067486F737400000059
:1080C000300000004348540000B52DED028B89B00C
:1080D0000346B0EE408A0EA20EA101A800F0DEFA1F
:1080E00018EE100AFEF714FB41EC100B0BA153EC39
:1080F000102B05A800F0D2FA0AA000900BA30DA245
:1081000005A901A8FFF77AFF09B0BDEC028B00BDFD
:1081100056414C002573256400000000252E34666E
:108120000000000067536C617665000067486F735C
:10813000740000003000000000B58DB008B101F0FF
:1081400009F818480DF10C0C0EC88DE80E000EC889
:108150008CE80E000EC80DF1180C8CE80E0007C854
:1081600009AB83E807000F480F49083805F046FBC4
:1081700008B100F0EFFF6946002005F0F9FA03A905
:10818000012005F0F5FA06A9022005F0F1FA09A987
:10819000032005F0EDFA002801D000F0DBFF0DB060
:1081A00000BD0000D00C030031EF0200704708B59D
:1081B000694605F06BFBBDF9000008BD30B54FF016
:1081C000805000228300D0F83011C3F80C21C3F88E
:1081D0001021624B1A60624B1B68624C2360604B3B
:1081E0001B1D1B68241D23605D4B08331B68241D69
:1081F00023605B4B0C331B68241D2360584B1033EA
:108200001B68241D2360564B14331B68241D2360F8
:10821000534B18331B68534C20342360504B1C3392
:108220001B68241D23604E4B20331B68241D2360D4
:108230004B4B24331B68241D2360494B28331B6898
:10824000241D2360464B2C331B68241D2360444BA4
:1082500030331B68434C40342360414B34331B683C
:10826000241D23603E4B38331B68241D23603C4B88
:108270003C331B68241D2360394B40331B68241D8D
:1082800023600124082902D1D0F8343113B1082920
:1082900004D006E0354B3449196005E0D0F834319C
:1082A00013B1082904D006E0314BFB21196005E029
:1082B000D0F8343113B1082908D00EE090F85832C4
:1082C0002C48016863F30301016002E0D0F8343107
:1082D0001BB929494FF40070086028480168C90794
:1082E00002D06FF0010101602548016841F470017E
:1082F0000160BFF34F8FBFF36F8F4FF01021D1F8A4
:108300000002002803DBD1F80402002822DA1D4B0A
:108310001C601D480468002CFCD01224C1F80042E7
:108320000568002DFCD0C1F8044201680029FCD08A
:108330001A6001680029FCD0BFF34F8F10487C38C9
:108340000168124A01F4E06111430160BFF34F8FED
:1083500000BFFDE70F490E48086030BD38050040FA
:108360000404001020C50040488103008C560040E2
:1083700018F50040E40E0040409602400004004022
:1083800088ED00E004E5014000E401400400FA0546
:108390000090D003A42C0020FEF7E0BF0422024985
:1083A000024802F0EFBE0000E837002000800040E5
:1083B00004220249024802F0E5BE0000F437002022
:1083C0000090004004220249024802F0DBBE000097
:1083D0000038002000A0004001480068004700006D
:1083E000942B00202DE9F05F5448D0F8045300246A
:1083F0002E464FF0010913E096FAA6F0B0FA80F786
:10840000B80000F58070804605F088F828B1404635
:1084100005F08CF809FA07F0044309FA07F08643DF
:10842000002EE9D103F05CFC002869D0444AD078E2
:10843000F0BBA00264D5434940F2A978C1F800809E
:10844000081D036813F0FF0C02D0036803EA0C0C4C
:1084500040F2AA7AC1F800A0036813F0FF0301D02C
:108460000668334040F2AB7BC1F800B0066816F0F6
:10847000FF0601D007683E4040F2AC770F60076806
:1084800017EA0C0709D0D2F810C04CEA070CC2F862
:1084900010C0C1F800800760076840F2AD770F6038
:1084A00007681F4009D0136943EA0743136100E0DE
:1084B00026E0C1F800A00760036840F2AE730B60CD
:1084C000036833400BD0DE0701D044F40004DE061D
:1084D00001D544F00104C1F800B0036000681069E0
:1084E00030F0011102D005F080710C4310F0011F33
:1084F00006D0690504D520F0011044F480641061B1
:10850000C4F3C05624F400044F46DFF83C8009E071
:1085100094FAA4F0B0FA80F558F82500804707FADD
:1085200005F08443002CF3D107F0EEFF002E03D0BA
:10853000BDE8F05F01F0A8BDBDE8F09F007002400B
:108540009C2B002000780240B80E03000246002158
:108550003C20FFF7ABB9024640213C20FFF7A6B90B
:1085600010B5124C02202061606111A0A06104F1DD
:108570007800E0614FF4806020620020A0626062B9
:108580000BA1A164E06204F58F61E1641021A06594
:10859000C4E91410E06509A1E01DFDF786FF08A1FC
:1085A0002046FDF782FF2020A07110BDF845002075
:1085B0005465726D696E616C000000005254540085
:1085C00053454747455200000269C1688A4203D8B3
:1085D0008068401A104400E0501A401E70472DE990
:1085E000F047C4681746894606464FF000083069D0
:1085F000A04201D9051B02E0B168201A0D1AB0682B
:108600006D1E001BA84200D80546BD4200D33D4662
:1086100070682A4620444946FDF701FFB0687F1B79
:108620002C44A844A944A04200D10024F460002FA7
:10863000DDD14046BDE8F0872DE9F041044688468B
:10864000D4E90207C51BE168606816460844B542D4
:1086500006D94146FDF7E3FEB819E060BDE8F081B8
:108660002A464146FDF7DBFE761B08EB0501324644
:108670006068FDF7D4FEE660F0E700000FB4054B3C
:1086800010B503A9044A029800F032F910BC5DF855
:1086900014FB000091A50200242C00200FB4084B0D
:1086A00010B504A902AA039800F022F9044602A911
:1086B000002000F0B4FC204610BC5DF814FB000064
:1086C0001F9002000000000030B583B0044600F0A7
:1086D00017F89FED090B05468DED000B0022214692
:1086E0006846FEF7B8F8284600F032F89DED000B1A
:1086F00003B030BD000000000000000000000000DA
:108700000148006870470000A82C002002E008C85B
:10871000121F08C1002AFAD170477047002001E0FB
:1087200001C1121F002AFBD170470000012120283F
:1087300003DA81400548014003E0402802DA20388E
:10874000814009B10120704700207047FC06FFBD41
:108750000149086070470000A82C00202DE9FF5F48
:1087600082B00021DDE90430020DDDF840B00343A2
:1087700018D044F61050A2F2FF324243151411985B
:1087800001281FD0A5EB0B00401C5FEA000A4FF048
:1087900000064E4FDFF83891B046504615D5CAF165
:1087A000000413E0119801244AA3012801D16FEAC3
:1087B0000B010298119AC0E90031C0E9024206B0EB
:1087C000BDE8F09FCBF10000DFE704460021404AFE
:1087D000491842EB0450CDE9001012E0E00707D041
:1087E00032463B4640464946FDF70FFF80468946E4
:1087F00032463B4610461946FDF707FF06460F4630
:108800006410002CEAD1DDE90401DDE90023BAF1AE
:10881000000F06DAFDF7F9FE42464B46FDF7F5FE7E
:1088200005E0FEF7DFF842464B46FEF7DBF804466C
:108830000E460022284BFEF75DF903D84FF0FF30BB
:10884000014607E00022254B20463146FDF736FE63
:10885000FEF737F9102409E0002C0ADB0A22002376
:10886000FDF79BFF039B30321A55641E50EA01024C
:10887000F2D1641C039AC4F111031444119A012A21
:1088800003D0012208430DD10AE0084304D00020A0
:108890004FF0110B119072E7A3EB0B056D1E0DE06D
:1088A0005B4504DD4FF0000205F1010504E003DA49
:1088B0004FF00002A5F10105002AECD002981199B1
:1088C000C0E90231C0E9004579E70000000014402A
:1088D0000000F03F300000000000F0430000E03FE7
:1088E00030380A2801D2012070470020704700006C
:1088F0002DE9FF4F95B09B468946064600250FE2BD
:10890000252877D100242746F84A0121059400E064
:10891000044316F8013F203B01FA03F01042F7D15F
:1089200030782A2811D06FF02F033078A0F1300270
:10893000092A16D8059A44F0020402EB820203EBDE
:1089400042021044761C0590EFE759F8042B05927B
:10895000002A03DA504244F40054059044F0020423
:10896000761C30782E2816D116F8010F44F0040436
:108970002A280DD06FF02F023078A0F13003092B98
:1089800009D807EB870302EB4303C718761CF3E70C
:1089900059F8047B761C30786C280FD006DC4C2804
:1089A00017D068280DD06A2814D104E0742810D09C
:1089B0007A280FD10DE044F400140AE044F4801446
:1089C00001E044F440147278824202D104F580142C
:1089D000761C761C307866280BD013DC582877D0AC
:1089E00009DC002875D04528F6D04628F4D0472861
:1089F0001AD19DE118E0632835D0642879D0652824
:108A000012D195E1702873D008DC6728F1D069286D
:108A10006FD06E280DD06F2806D1B5E073282CD00A
:108A2000752875D0782874D05A46179990476D1CD0
:108A300075E1C4F30250022809D003280DD0D9F8FB
:108A4000001004280DD00D6009F1040967E1D9F880
:108A50000010EA17C1E90052F6E7D9F800100D80BE
:108A6000F2E70D70F0E719F8041B8DF800100020F4
:108A70008DF80100EA46012003E059F804AB4FF0FD
:108A8000FF3061074FF0000102D40DE008F1010151
:108A90008846B9420FDA8045F8DB1AF80810002939
:108AA000F4D108E008F1010188468142FADB1AF8A6
:108AB00008100029F6D105985B46A0EB080721466F
:108AC0003846179A00F094FA284400EB080507E0AE
:108AD0004DE029E10DE01AF8010B5A46179990472D
:108AE000B8F10108F7D25B4621463846179A13E1E0
:108AF00042E00A220092C4F302524FF0000A022A16
:108B000008D059F804CB032A4FEAEC710AD00DE0E3
:108B100029E02AE009F1070121F00702F2E802C189
:108B2000914609E00FFA8CFC4FEAEC71042A03D15C
:108B30004FFA8CFC4FEAEC71002907DA0A46002153
:108B4000DCF1000C61EB02012D2202E0220504D5CC
:108B50002B228DF80420012203E0E20701D020221D
:108B6000F7E7904659E00A2102E010220DE01021BB
:108B70004FF0000A00910BE010224FF0000A44F081
:108B800004040827009203E008224FF0000A009234
:108B9000C4F30252022A05D059F804CB0021032A5B
:108BA00008D009E009F1070121F00702F2E802C14B
:108BB000914605E01FFA8CFC042A01D10CF0FF0C51
:108BC0004FF00008220728D5702806D0009B83F0BC
:108BD000100353EA0A0305D00EE040228DF804206A
:108BE000012208E05CEA010206D030228DF8042060
:108BF0008DF8050002229046009B83F0080353EA9B
:108C00000A030AD15CEA010201D1620705D53022CC
:108C10008DF804204FF001087F1E582804D034A09E
:108C200003900EA802900DE036A0F9E75346604687
:108C3000009AFDF7B2FD84460398825C0298401EBC
:108C4000029002705CEA0100F0D1029806A9081AAD
:108C500000F1200A600702D524F4803400E00127E7
:108C6000574502DDA7EB0A0000E0002000EB0A01F7
:108C7000009005984144401A0590E00306D45B46F5
:108C80002146179A059800F0B3F90544002706E03D
:108C900001A85A46C05D179990476D1C7F1C474537
:108CA000F6DBE0030CD55B462146179A059800F0E9
:108CB0009FF9054404E030205A46179990476D1CEF
:108CC0000099481E00900029F5DC08E002980299FE
:108CD0005A460078491C0291179990476D1CBAF1C9
:108CE0000001AAF1010AF1DC65E100000928010098
:108CF0003031323334353637383961626364656612
:108D000000000000303132333435363738394142D3
:108D1000434445460000000000F058F90544761C25
:108D2000307800287FF4ECAD19B02846BDE8F08F0C
:108D3000620700D4062709F1070222F0070CFCE8BD
:108D40000223E14603F000485FEA080C02D00FF26C
:108D5000702C0DE05FEA045C02D50FF2682C07E08E
:108D60005FEAC47C02D00FF2602C01E0AFF2700C1D
:108D70004FF0FF3823F00043CDF850C065280CD0E9
:108D800006DC452809D046281DD047283DD13DE0C6
:108D9000662818D067287ED138E00021112F01DB2A
:108DA000112000E0781CCDE9000106A90EA8FFF70C
:108DB000D5FCDDE90F010E9A03910021009207F125
:108DC000010A04914DE04FF000400097CDE90110F9
:108DD00006A90EA8FFF7C2FCDDE90F0203920E9B65
:108DE00011990022DDF80CA00093049211B9791CAE
:108DF00000EB010AB7EB0A0004D4C0F1FF3007F121
:108E0000010A0490AAEB0700019044E0012F00DA68
:108E100001270021112F01DD112000E03846CDE9A6
:108E2000000106A90EA8FFF799FCDDE90F010E9AD3
:108E30000391002104910092BA4621070CD40399B2
:108E4000514500DA8A46BAF1010F05DD009AAAF110
:108E50000101515C302908D0B84202DA10F1040F48
:108E600006DA0121CDE9011015E0AAF10101E9E7D7
:108E7000002805DC049901440491AAEB000102E0FA
:108E8000411C514500DD8A460499401A401C01905E
:108E90004FF000400290200704D40198504501DBB8
:108EA000CDF8048000208DF84F0002980DF14F0797
:108EB000B0F1004F25D02B200E9002984FF0020801
:108EC00000280CDA404202902D200E9007E00A2183
:108ED0000298FDF74CFC3031029007F8011DB8F103
:108EE0000001A8F10108F2DC02980028EFD1791EF8
:108EF0000E980870307800F0200040F0450007F828
:108F0000020D12A8C01B00F107081498007800B1E8
:108F1000012000EB0A01019801EBE0710598414442
:108F2000401A401E0590E00306D45B462146179A7E
:108F3000059800F05DF805441498007818B15A4679
:108F4000179990476D1CE00324D55B462146179A7C
:108F5000059800F04DF805441CE00498002807DB54
:108F6000DDE90301884203DD0098405C179901E0C8
:108F7000179930205A469047049805F10105401C86
:108F800004900198401E019004D12E205A46179952
:108F900090476D1CBAF10001AAF1010ADDDC05E081
:108FA00017F8010B5A46179990476D1CB8F100014C
:108FB000A8F10108F4DC5B462146179A0598ABE658
:108FC0002D0000002B000000200000002DE9F041E2
:108FD000044600251E461746880404D405E0394699
:108FE0002020B0476D1C641EF9D52846BDE8F081ED
:108FF0002DE9F041044600251E469046C80301D5E0
:10900000302700E02027880404D505E04146384693
:10901000B0476D1C641EF9D52846BDE8F0810A688A
:10902000531C0B601070704710B560B159B10278D5
:109030000B785208B2EB530F05D10622401C491C95
:10904000FDF726FA08B1002010BD012010BD8007F1
:1090500001D00020704701207047C3688B4206D8BA
:1090600011440069491E814201D801207047002047
:10907000704770B58CB015460E4600236C46C3F1A0
:109080000F01415CE1545B1C102BF8D30D2104F15E
:109090001000FDF7DDF90020C0F10F02315C224421
:1090A000401C11740328F7D3684646DF0020C0F146
:1090B0000F01214491F820102954401C0328F6D3B5
:1090C0000CB070BD0149C97800F054BB542B00208E
:1090D00072B603F081FD00BF03F0BCFB0028FBD19A
:1090E00011481249401AC408012000EB044010A1A5
:1090F00003F0CAFC11480068C00700D000BE02207F
:1091000000EB04400EA103F0BFFCBFF34F8F0B48F0
:10911000E43801680E4A01F4E06111430160BFF3D5
:109120004F8F00BFFDE700003C2D03005C2C0300C7
:10913000466174616C206572726F7200F0ED00E040
:1091400053797374656D2072657365740000000057
:109150000400FA050EB500210091CDE901106A4620
:1091600044F20100FFF7B4FF0EBD10B58268C3687A
:10917000934203D001F0C9F9002010BD052010BDB5
:1091800029B112B1531E134203D0092070470E209B
:1091900070470160838000218160C160084670478C
:1091A00010B58268C3689A1A83889A4203D801F07E
:1091B000B6F9002010BD042010BD0000074B9B78BD
:1091C00023B12AB120B10068037C1BB1082070478D
:1091D00007207047417442610020704748380020E2
:1091E00070B505F047FE104800244121047044701A
:1091F0000E4D817014206C602C706C70FEF764FB57
:1092000005211420FEF781FB1420FEF768FB0848B7
:10921000046005211120FEF778FB0548001F006857
:10922000A860002070BD000048380020D02B00202E
:10923000081501402DE9FC47DFF8789099F80230D5
:1092400073B368B3052902D20720BDE8FC874369E0
:1092500033B3437C012B25D00027044600258846E4
:1092600016468DF80050684600F0CEF801A807F0C9
:10927000E1FAC8B1012101700F4944600968C0E9F1
:109280000218C0E904769DF8040089F801009DF8F1
:10929000000000F0DDF81420FEF72CFB2846D4E790
:1092A0000820D2E70F46D8E704259DF8000000F01B
:1092B000CFF8F3E7483800200415014006498978C3
:1092C00039B130B1416921B100210174022106F0A8
:1092D0006FBB0820704700004838002070B50A4E68
:1092E00001460A48B578FFF740FF04464DB100201B
:1092F000B070711C0122C81D02F0A6FC08B1FFF776
:1093000029FF204670BD0000282C00201C400020B2
:10931000F0B5244E89B01F460D00044672603FD060
:10932000A888296882B22048FFF72AFF002835D193
:10933000A889A96882B21C481030FFF721FF0028D5
:109340002CD1202219496846FDF769F8606906901A
:10935000207C00B101208DF814008DF81C70607C19
:1093600000B10E208DF81500E0680290A06803900F
:1093700020680190606800900A480D4A69460830EC
:1093800002F02EFC002809D1B0702068401C05D0E6
:1093900004490122491CC81D02F056FC09B0F0BD69
:1093A0000720FBE7282C00201C4000208011030030
:1093B000DD00030010B501461048FFF7F1FE040080
:1093C00019D10F480F4A0178515C19B1001D04F002
:1093D000BDFD02E00C3004F0A1FC60B9084907486B
:1093E0000839FFF7C2FE30B905490122083904489F
:1093F00002F03AFC0446204610BD00002C4000203C
:10940000302C0020742B002030B5EFF3108172B6A1
:109410000D4A9468012324B10370002900D162B67B
:1094200030BD93604FF0E023D3F88051074C2540C6
:109430001560C3F88041D3F8844154605A17C3F8CB
:10944000842100220270E8E7643E0020FC06FFBD94
:109450000B498A68002A11D000280FD1EFF3108041
:1094600072B60B684FF0E022C2F800314B68C2F8C8
:10947000043100228A60002800D162B670470000E3
:10948000643E002070B5054608680C46411C04D0B7
:1094900003F0B6F8206802F0EFFF6068411C02D0CC
:1094A000002102F0CBFF2968A069C1F82405607D86
:1094B000227D29681043C1F86C05D4E900122868A0
:1094C000C0F81425C0F80C15207D012814D1A0681F
:1094D000411C02D0002102F0B1FFE068411C04D021
:1094E00003F08EF8E06802F0C7FFD4E902122868A2
:1094F000C0F80825C0F8101570BD70B5054608689D
:109500000C46411C04D003F085F8206802F0BEFF31
:109510006068411C02D0002102F099FF2968A0690F
:10952000C1F82405607D217D2A680843C2F86C05D6
:10953000D4E900122868C0F80C15C0F81425207D65
:10954000012814D1A068411C02D0002102F07FFF45
:10955000E068411C04D003F05DF8E06802F096FF7B
:10956000D4E902122868C0F80825C0F8101570BDAB
:1095700001F076BF2DE9F047814605884A484FF053
:1095800000088AB001784246284600F00BF999F8A5
:109590000500400701D4002176E005F58077B8B2D8
:1095A00001AB0122072104F011FE04003F48404AAC
:1095B0004FF00101A0EB02004FEAD00001EB0046A2
:1095C0000AD0204603F024FF024630462B46394994
:1095D00003F065FA214629E0284601F087FC4FF6A2
:1095E000FF71044688422BD18A46029801F0E8FBBD
:1095F0000446504510D00146284601F057FC284645
:10960000FFF760FDE0B9284605F000FE2846FFF7A9
:1096100059FD0028BFD013E004F036FF0446504542
:1096200008D1304624A103F02FFA0421284605F082
:109630001BFEB0E70146284601F038FC4FF0010858
:10964000B8B22246072104F039FE07001BD0862F4E
:109650001ED003F0DDFE024630462B46234900941F
:1096600003F025FA3946284605F0FEFD002148465C
:1096700004F0E8FCB8F1000F02D0204601F020FC15
:109680000AB0BDE8F0870121484604F0DBFCF7E7AB
:109690001822174903A8FCF7C2FEADF80E5003A824
:1096A00000F08EFEEFE70000542B00209C2C0300FE
:1096B0005C2C030044210300436F756C64206E6FC3
:1096C0007420616C6C6F63617465206E65772070C7
:1096D0006565725F696420666F7220696E636F6D85
:1096E000696E6720626F6E642E000000F021030037
:1096F000F40D0300102802D31038C0B2704740F0B8
:109700008000704710B5044600F06CF8002805D0C2
:109710002146BDE81040024802F0D8B810BD000054
:109720006431002070B515460E46044607F058F81F
:10973000002809D0054800EB840080692A4631469C
:10974000BDE8704000F00CBF70BD00005431002037
:1097500070B50546002400F045F838B129460448A4
:1097600002F0B4F808B1022400E00124204670BDE4
:109770006031002070B505460C46084607F030F809
:1097800060B1284600F02EF840B10548294600EBAC
:109790008400BDE87040183002F098B8002070BD19
:1097A0005431002070B5054614460E46084607F0B1
:1097B00017F8002812D0284600F014F800280DD021
:1097C0000748294600EB860018301CB1BDE8704000
:1097D00002F087B8BDE8704002F038B870BD0000F4
:1097E00054310020142801D300207047014601485D
:1097F00002F06CB8583100202DE9F04701883B4E4B
:1098000040F2F3194FF6FF7510291BD011293ED0F5
:10981000122954D0502946D1C188F289841D914221
:1098200041D1618902293ED18688304601F0F2FBA0
:10983000050038D004F10C0000F0F2F8A8B3294676
:1098400030464EE0C17B8788044601292BD1A846CB
:10985000284601F0DFFB050017D02F80002028727A
:10986000234843464A460168C5F80A104068C5F8CF
:109870000E0004F1100105F10A0001F0A6FC687267
:10988000F08900280FD129462AE0042013E08088BF
:1098900001F0C0FB040006D06068FFF70FFD08B1BF
:1098A00005F0C6FC2580BDE8F087FFE76868FFF794
:1098B00005FD0028F7D0BDE8F04705F0B9BC878862
:1098C0000646384601F0A6FB0400ECD02B464A467B
:1098D00006F1080104F10A0001F077FC60722146EC
:1098E0003846BDE8F04700F0E9B900003831002003
:1098F000102B00202DE9F04F0746858802883D484F
:10990000012197B08346102A09D0112A49D01A2A7A
:109910006CD1387AB1EB101F45D2012244E0354CAE
:10992000083CA068C0430B9061680BA801F0F5FFEC
:109930000B990CA800F0A2F92C220CA96846FCF7A0
:109940006EFD0026E946A04610E000BF09EB460088
:109950005FF00004B0F804A008EB84005146001D3D
:1099600001F074FF641C1D2CF6D3761C0098B042E5
:10997000ECD8142D05D317B00420BDE8F04FFFF745
:10998000E9BB2946584601F0ACFF294608F104001E
:1099900001F0A7FFF87B012828D016482946001DB2
:1099A00015E029461AE000220221B1EB101F01D276
:1099B000012600E000260F49083901F11000041DBE
:1099C000294682B101F08DFF36B12946204617B0F5
:1099D000BDE8F04F01F085BF2946204617B0BDE82D
:1099E000F04F01F033BF01F031FFF5E717B0BDE8EC
:1099F000F08F00005C31002010B504460748007865
:109A000000280AD0204601F04DF9204605F00EFD51
:109A10002046BDE8104000F0B5BE10BD442B00202C
:109A2000007800F0010070472DE9F8430546861CD8
:109A300000208DF8000090460F464FF0010968465F
:109A4000FFF7E2FC1B4C20683860D4E90001401AA3
:109A5000A16804F21C47081A0EE00121384601F003
:109A600056FF01F0DFFD0146384601F050FFD4E912
:109A70000001401AA168081A401C8642EDD8B8F1CE
:109A8000000F03D0052065F3891002E0062065F37E
:109A90009F50A2682168114004EB8101C8602068D2
:109AA000304420609DF80000FFF7D2FC4846BDE836
:109AB000F8830000D441002030B482680468531C4D
:109AC0008360A154D0E901128A4202D330BC02F073
:109AD00078B930BC70470000034803C8814201D107
:109AE0000120704700207047D44100201CB5044677
:109AF00001F0FCF900236A46092104F03BFC05282B
:109B000005D10348012241792046FFF74BFE1CBDD9
:109B1000182B00201CB50021009142F6A621ADF8BB
:109B2000001001218DF80210034901AA0968019172
:109B30006946A0DF1CBD0000000D03000249084477
:109B400090F9300070470000C434002070B504461E
:109B50004FF6FF750A462846AC4209D14FF480748F
:109B60002146104601F08DFE80B2A0420BD070BDA0
:109B7000FF2CFCD82146104601F073FE90F0010F37
:109B800001D0204670BD284670BD000070B5084C5D
:109B9000050009D010342168002907D0086820602A
:109BA000496828468847F6E70834F4E770BD0000A6
:109BB000B0340020054A012120B1012805D191705F
:109BC000FFF7E4BF51700020FAE77047B03400207F
:109BD0002DE9F05F26484168F1B3DFF898B00E68D0
:109BE0008146DBF8004087688078E11B21F07F45E3
:109BF000ED1CB0B9DFF880804FF48030C8F8440322
:109C0000C8F804031120FDF75FFE1120FDF767FE81
:109C10004FF0010AC8F800A02F2003F027FD89F8B3
:109C200002A0B54200D23546124BE8193C3320F071
:109C30007F401860DBF800105A46091B21F07F4175
:109C4000001B20F07F40C91C81420FD910681860AA
:109C50002F2003F00BFD00E004E0BDE8F05F1120D1
:109C6000FDF748BEBDE8F05F05F004B9BDE8F09F20
:109C7000D02B0020041501400010014073B58CB0BA
:109C80000646002000900D9880B100246D462146C4
:109C90000DA801F01BFE30B1009805EB4000848058
:109CA0000098401C0090641C142CF0D32C226946B0
:109CB0003046FCF7B4FB0EB070BD000038B54A7AF0
:109CC0000F4B62B100220A725969002906D00122A5
:109CD0008DF80020ADF802006846884738BD0A7A42
:109CE00062B19B684C68024619462046FFF7A2FA0B
:109CF0000028F3D0BDE8384005F09ABA5B68F1E778
:109D000038310020F0B587B016460F4604461D4690
:109D100018220B496846FCF782FB0A488DF8087048
:109D2000ADF80240ADF80A608DF80C5001780022C1
:109D30002046FFF737FD684600F042FB07B0F0BD54
:109D40000C0E0300542B002070B504460948012175
:109D500001F0F8FDBFF35F8F0025002808D12046F1
:109D600001F0DAFB002803D1BFF35F8F01480560E3
:109D700070BD0000242B00207FB50C4610B10120DF
:109D800004B070BD2079002638B141F61D55012878
:109D90001BD0022826D00F20F2E702202071029665
:109DA0000396E0680190694601A804F0C1FF50B134
:109DB00002988188E18000882081BDF80010029817
:109DC00005F034F8DCE70A20DAE70A4B6A4600219E
:109DD000A01D04F069FF38B1064918398E61CE61C3
:109DE0000A28CDD12846CBE702488188019805F0A2
:109DF0001DF8F5E7FC2B002010B50021024801F00A
:109E0000A1FD80F3100010BDF04500200E4910B5F3
:109E10000A784C780023A24212D0521CD2B20A70A7
:109E2000022A00D10B70084A0B780C3252F823201A
:109E300002608868104420F07F408860012010BDD7
:109E40000360002010BD0000D02B002013460A46FE
:109E50000021FFF757BF6FEA0061C90F61F31F10C0
:109E6000704700000106044900D5903100F00F0052
:109E700001EB001070470000B035002010B506F06F
:109E80002DFB8020FFF7EEFF817B0124032902D008
:109E90000068002809D18020FFF7DDFF8440E143FE
:109EA000BDE81040014801F038BD10BDA82B0020CE
:109EB000812003F0E5BA822003F0E2BA832003F0A8
:109EC000DFBA842003F0DCBA852003F0D9BA8620FB
:109ED00003F0D6BA872003F0D3BA000038B588253E
:109EE00006F0FCFA2846FFF7BDFF817B0124032919
:109EF00015D00068002811D12846FFF7ACFF844038
:109F0000E1430C4801F009FD0B480A4980680090C4
:109F10000C398DF8025049686846884738BD284694
:109F2000FFF799FF8440E143BDE83840014801F064
:109F3000F4BC0000A82B0020700E030038B506F01A
:109F4000CDFA0020FFF78EFF817B0124032905D085
:109F5000006868B1BDE8384001F0CFBE0020FFF7CF
:109F60007AFF8440E143BDE838400A4801F0D5BC9F
:109F70000020FFF770FF8440E143064801F0CDFC6C
:109F800005480449C0680C3900904968684688470C
:109F900038BD0000A82B0020700E0300012003F044
:109FA0008BBA022003F088BA032003F085BA04209C
:109FB00003F082BA052003F07FBA062003F07CBAD2
:109FC000072003F079BA000038B5082406F086FAB5
:109FD0002046FFF747FF817B032915D00068002842
:109FE00012D12046FFF737FF01218140C9430748BE
:109FF00001F093FC06480549406900900C398DF842
:10A00000024049686846884738BD0000A82B0020F8
:10A01000700E030070B5134804680460BFF36F8FBF
:10A02000BFF34F8F01F05CFE38B10F48016921F09A
:10A03000011201F001111443016101266CB194FA7F
:10A04000A4F0B0FA80F52846FFF754FB06FA05F1B4
:10A050008C43294606F0A4FBF0E7BDE8704006F00B
:10A0600053BA00006C7402409C2B002010B5054CC4
:10A07000A078FFF7F0FE0146A078BDE8104006F09A
:10A080008FBB00009C2B0020F8B51A4800681A4DC1
:10A09000C6B2A878FFF7DFFE012404FA00F1288990
:10A0A000EA68C04380B21043014202D0A87806F0AB
:10A0B000EDFA06F08000A8700020FFF7CCFE04FA4D
:10A0C00000F68020FFF7C7FE04FA00F006430A48B6
:10A0D000F1430C3001F021FC8020FFF7BCFE8440EE
:10A0E000A86804430548AC60006A00906968684647
:10A0F0008847F8BD807402409C2B0020700E03003E
:10A1000038B5002000900F480068ADF802008820A4
:10A11000FFF7A1FE012505FA00F40A48603800683F
:10A1200040B1C10301D4401C04D00820FFF793FEC6
:10A1300085402C4304498868204388604968684604
:10A14000884738BD207502409C2B002070470000D6
:10A15000F8B518480568284603F0F4F9BFF36F8F87
:10A16000BFF34F8F144E154CE80506D501206070E3
:10A17000706A0090616868468847A8054FF000073C
:10A1800005D56770B06A00906168684688476805C1
:10A190000ED5607800280BD067700949012008604F
:10A1A000582003F0D9F9F06A009061686846884742
:10A1B000F8BD000000740240700E03009C2B0020CC
:10A1C00008750240054908B50020487088700448A9
:10A1D0004068009049686846884708BD9C2B00206D
:10A1E000700E030010B503780022072B06D2DFE8BB
:10A1F00003F005040610202930000A7010BD012369
:10A200000B7003898B818388CB81C06888600A7456
:10A2100010BD02220A7002898A818288CA81C268BE
:10A220008A60807D062802D00020087410BD0120BD
:10A23000FBE703220A70C2888A810289CA81C0684A
:10A24000886010BD04230B70C0888881CA818A6031
:10A2500010BD0520087010BD70B5064D06460024DF
:10A2600055F8241009B130468847641C042CF7D3F4
:10A2700070BD00008C3E002030B50446006887B0F9
:10A280000D46806800281FD018216846FCF7E0F8CA
:10A290000195A0680590207910B1012810D107E040
:10A2A00001208DF8000020690290E068039005E02D
:10A2B00002208DF80000E0680003029060690490BD
:10A2C000206881686846884707B030BD2DE9F041B5
:10A2D00086B016460C00804629D0112C27D0082CB9
:10A2E00025D018216846FCF7B3F8ADF80280404647
:10A2F00000F0FCFDADF804001B481C490027401A83
:10A30000C5080D2C16D0204603F082F80246012025
:10A3100000EB05404346164902F0C1FB07208DF8CB
:10A32000000002948DF80C70684600F057F806B0F3
:10A33000BDE8F081022000EB054042460D4902F0E5
:10A34000A7FB03208DF8000026B13078C00701D0AC
:10A35000012000E002208DF8080041F201108DF884
:10A360000C70ADF80A00DFE7A42C03005C2C03009E
:10A37000BC230300AC22030010B50446408800F063
:10A38000B5FDA080024801682046BDE8104008479E
:10A39000202B00202DE9F04107460024064E074DF2
:10A3A00005E000BF56F8241038468847641CE8785A
:10A3B0008442F7DBBDE8F08164340020442B0020A8
:10A3C00010B50446408800F091FDA0800248016865
:10A3D0002046BDE810400847C00D03000149096848
:10A3E000084700004C0E030038B504460E480078BC
:10A3F000A8B1A4F57F40FF380FD0684604F01AFBDF
:10A4000078B10521017001210171C480684604F012
:10A410001FFB04F0CFFB002038BD042038BD022014
:10A4200038BD082038BD0000042C002038B50400D9
:10A4300014D0694604F07CFCA0B1BDF8000000EB2C
:10A440008001094800EB8100C16849B1A17A39B1A6
:10A45000C168491EC1600020A07238BD052038BD0A
:10A46000062038BD0A2038BD283F00201FB501A9AD
:10A47000684604F019FC04B010BD07B513460A463F
:10A480006946002004F010FC0EBD07B513460A46CD
:10A490000021684604F008FC0EBD20B119B1006827
:10A4A000086000207047052070470000F8B50D4691
:10A4B000040018D0BDB1694604F03AFCA8B1BDF85B
:10A4C00000000B4900EB800001EB800001210C3003
:10A4D000666801F01CFA2E6060680C30686001202C
:10A4E000A0720020F8BD0520F8BD0A20F8BD0000CC
:10A4F000283F002018B10323002206F0AFBA052040
:10A5000070470223002206F0A9BA826883881A40A5
:10A5100003689A5C0A708168491C81607047C26850
:10A5200083881A4003689954C168491CC160704708
:10A5300070B5134600220546112900D10122074CAF
:10A5400033B12179FFF72EF900226178284600E027
:10A550006178BDE87040FFF725B900005C2B002052
:10A56000F7B517460E0011D00098002560B1002401
:10A570002146684601F0AAF918B1A0B23946B047A1
:10A580006D1C641C142CF3D32846FEBD0020FEBDB8
:10A5900010B50446C0B2FEF70DFF204610BD40685E
:10A5A00004F068BA70B508B1012070BD194C0025DF
:10A5B000207B08B1257301E000F0A0F8207808287E
:10A5C00026D2DFE800F02504080C10251420BDE891
:10A5D000704000F021B8BDE8704000F07DB8BDE8E3
:10A5E000704000F05FB8BDE8704000F03BB8608894
:10A5F000084900EB8000283901EB80004068BDE885
:10A60000704003F0BFBC6560BDE8704003F0C8BC9B
:10A610000F2070BD503F00201149F0B48A1C00206B
:10A620000346A1F128050C18A67A4EB1A37200EBDF
:10A63000800405EB8404E66816B9247C012C0AD05A
:10A64000401C80B20228EED30B704B804B60F0BCF4
:10A6500041F61D5070471080F0BC00F03DB800007E
:10A66000503F00200C48418801EB8102A0F12801F5
:10A6700001EB8201CA6852B105210170074802212D
:10A680008180016800230122054801F093BC042267
:10A6900002704968F6E70000503F00200C2C0020B3
:10A6A000AC2C002038B50A49084803240B684268DE
:10A6B000898803EB810153880470DB1C00201B0494
:10A6C00000909B0B034801F07FFD38BD503F0020F8
:10A6D0000C2C0020AC2C0020074910B54888091D1F
:10A6E00004F076FB18B1BDE81040FFF7DBBFBDE812
:10A6F0001040FFF7B7BF0000503F0020F0B51F48E3
:10A700001F490125067802248B88A0F12802082E13
:10A7100019D2DFE806F00418181B222F2F17018921
:10A72000491C01810021418080F80C1001EB81035C
:10A7300012F8233043B100234418491C89B2A37294
:10A740000229F3D30570F0BD0123F5E74268528872
:10A75000D21C1A448A800470F0BD46880D6806EB4E
:10A76000860602EB860256680E60556013818C8067
:10A77000062100E007210170F0BD0000503F0020DD
:10A780000C2C00202DE9F041044680882188394EA8
:10A7900086B00746352937D0502923D0522902D018
:10A7A00054295DD102E000F05BFE59E018223249E5
:10A7B0006846FBF734FEADF80270384600F096FBB1
:10A7C000ADF8040000F01CF9002231793846FEF79C
:10A7D000E9FF0022F1783846FEF7E4FF6846FFF70C
:10A7E000CBFD3DE0207B01283AD1A07A012837D16A
:10A7F0002089A0F52451023932D10121384600F0D8
:10A8000083FE05F053FE2BE04FF0000842467179BD
:10A81000FEF7C8FFE288B2F5857F1DD017481849BA
:10A82000401AC008022101EB004512B1284615A1CB
:10A830000BE06289012A03D0284621A102F028F901
:10A84000A289012A04D028462CA102F021F903E0B4
:10A85000A07B00B1012080464146384604F0EEFF5F
:10A8600000223549B078FEF75DFF06B0BDE8F04143
:10A8700004F036BD182B00205C0D03005C2C030097
:10A880005C2C0300556E65787065637465642047C1
:10A8900041545420737461747573207768696C65D2
:10A8A0002067657474696E67204341522063686154
:10A8B000722076616C75653A20307825780000004A
:10A8C0004D756C7469706C6520282564292043419E
:10A8D000522063686172616374657269737469633D
:10A8E0007320666F756E642C207573696E672074B3
:10A8F00068652066697273742E000000556E657875
:10A9000070656374656420434152206368617261BD
:10A910006374657269737469632076616C75652010
:10A920006C656E67746820282564292C2073746F09
:10A93000726520302E0000007195020070B504464B
:10A940000078002814D1608800F08AFD65882846C8
:10A9500000F00EF928B107480122C1782846FEF719
:10A9600021FF6088FFF7C2F8BDE8704005F09EBD8A
:10A9700070BD0000182B00207CB504460078082824
:10A9800037D1607A58BB207A1C4E4FF6FF750128EC
:10A9900011D0072802D008282BD121E0A08800F090
:10A9A000EFF90446A84224D0012100F0ADFD204675
:10A9B000FFF79CF81DE0A0886A46012103F0BCFB6C
:10A9C00068B90198007850B1A08800F0D9F9A84280
:10A9D0000FD00122F178FEF7E5FE04F081FC08E0DB
:10A9E000F068012805D1BFF35F8F044900200C31C6
:10A9F0000860BDE87C4005F059BD0000182B002020
:10AA00001CB5054AD2E90212CDE9001200226946BE
:10AA100003F0EAFC1CBD0000780D03002DE9FC41A9
:10AA2000804600F063FA002403250127A0F57F414A
:10AA30002646FF3908D06A46082103F07DFB18B985
:10AA40000198841D8688056832462B46214640467B
:10AA5000B1DF042804D0082804D00B2808D002E075
:10AA6000112000E00020002F00D10B20BDE8FC8168
:10AA70000027A80701D50125E6E7344303D00024C9
:10AA800026460325E0E7064806494246401AC00824
:10AA9000012101EB0040044901F0FAFFE5E7000065
:10AAA000642C03005C2C0300841D03002DE9FC4191
:10AAB000804600F01BFAA0F57F410646FF390ED014
:10AAC00001252A466D1C0027ADB26B460821304691
:10AAD00003F07CFB040006D0072C33D033E043F2B4
:10AAE0000200BDE8FC81019903230A1D0B6040466A
:10AAF000891DB2DF040004D00C2C09D0052C09D02C
:10AB000009E032460821104603F0D8FB04461AE05B
:10AB1000012700E000240821304603F0C5FB70B196
:10AB200002F076FC0346094809493246401AC0083B
:10AB3000012101EB0040074901F0B1FF0324002F80
:10AB4000BFD100E00C242046CBE70000642C0300BA
:10AB50005C2C0300041D030004488088A0F57F419D
:10AB6000FF3901D004F0C6BB70470000282B00203D
:10AB70000EB502A9019100F0B9F96A46012103F06E
:10AB8000DBFA08B100200EBD019800780EBD000070
:10AB90002DE9F04107464FF6FF761048B3DF78B154
:10ABA00002F036FC02460E480E49401AC008012148
:10ABB00001EB00400C4901F06BFF0320BDE8F08180
:10ABC000064C43F20305A41E324661883846AFDFC7
:10ABD000A842F3D16088401C6080F5E72A2B002052
:10ABE000642C03005C2C0300B81C0300428800EBBB
:10ABF00082020C328A4201D9022070478188A1F575
:10AC00007F42FF3A03D0008808B10020704701203E
:10AC10007047884204D20068401C01D00120704770
:10AC2000002070473EB5027802230C46B3EB520F6A
:10AC300017D1B0F80110ADF80010C1788DF80210EE
:10AC40008188ADF8041080798DF8060002AA01A968
:10AC50002046FEF70EFA032202A96846FBF718FC0D
:10AC600008B100203EBD01203EBD000070B50D467C
:10AC70000446142810D2FEF7B5FD68B1084904EB6C
:10AC8000840001EB4000D0F802102960C188A9803F
:10AC9000007AA871002070BD43F2020070BD000070
:10ACA000CC31002070B5018892B0102961D1011D0E
:10ACB0002C226846FBF7B3FB9DF804004FF6FF76A5
:10ACC00003213446B1EB500F2BD003F04BFB9DF822
:10ACD00004006D4640080ED001280CD0022820D177
:10ACE00018E00D99281D1131FEF79EF918B100BF2B
:10ACF000BDF82C4015E00CAA0BA9072003F006FBB9
:10AD00000028EED10DE00D99281D491CFFF78AFFA0
:10AD10000028EDD10CAA0BA9072003F0F7FA0028B0
:10AD2000F1D1BDF80000B44200EB8001124820F8D8
:10AD3000114000EB41000199C0F80210BDF8081065
:10AD4000C1809DF80A10017213D0BDF80000ADF863
:10AD50002E000020ADF83040084E8DF82C000BADD1
:10AD6000044600BF56F8241028468847641C022C6D
:10AD7000F8D312B070BD0000CC3100208C0D030060
:10AD80002DE9F0414FF6FF760546B04213D00B4F48
:10AD9000002400BF04EB840037F81000A84206D15D
:10ADA0002046FEF71FFD10B12046BDE8F081641C6F
:10ADB000A4B2142CEED33046F7E70000CC310020CB
:10ADC0003EB50C46054603F0CDFA0BE0BDF8000099
:10ADD000A04207D02846029900F00EF810B1BDF845
:10ADE00000003EBD01AA6946072003F08FFA002843
:10ADF000ECD14FF6FF703EBD2DE9F0410C46054603
:10AE000000F1110701F111061022491C401CFBF74B
:10AE10003FFB48B9681C00F0FAF928B1601C00F04B
:10AE2000F6F908B1012400E0002431463846FEF767
:10AE3000FBF83B780222B2EB530F0CD00321B1EBAD
:10AE4000530F08D03378B2EB530F04D0B1EB530F4C
:10AE500001D0012100E00021084201D18C4302D041
:10AE60000120BDE8F0810020FBE7018811B94218FC
:10AE700092780AB101207047491C0829F7D30020B5
:10AE8000704710B50C460346FFF7EFFF00280AD0C5
:10AE900018882188884205D10822A11C981CFBF73C
:10AEA000F7FA08B1002010BD012010BD142804D20B
:10AEB000024A00EB800022F810107047CC310020CD
:10AEC00070B50546FFF75CFF0446284603F038F9E5
:10AED000002808D1142C06D2034B04EB84024FF651
:10AEE000FF7123F8121070BDCC31002010B504465C
:10AEF000142808D2FEF776FC28B1044904EB84003C
:10AF000031F8100010BD4FF6FF7010BDCC3100209D
:10AF10003EB5044603F026FA0EE00199204646317C
:10AF2000FFF7AFFF28B9019920462A31FFF7A9FFA3
:10AF300010B1BDF808003EBD6A4602A9072003F023
:10AF4000E5F90028E9D14FF6FF703EBD2DE9F0414B
:10AF50002D4F002518B17D600120BDE8F0810879F2
:10AF6000012258B1294E01280CD0274C4FF002087D
:10AF70000834022821D0032842D128E00A7103F0C6
:10AF80000FF83BE05FF0000000EB800116F82110A5
:10AF9000022908D0401C80B20228F5D33A707D60A7
:10AFA00041F61D50D9E700EB800006F8205006EB73
:10AFB0008000406802F0E6FF20E00D71A4F80480F4
:10AFC000002301221248216800F0F4FF16E00D7101
:10AFD000206802F0D7FF0D4923682831498801EB2A
:10AFE000810206EB8201D1F804C0C4F800C04B60B6
:10AFF000A3880B81A4F8048006F822500028ACD066
:10B000007D600E20A9E70000042C0020283F0020CE
:10B01000AC2C00200146034802888A4200D0002060
:10B0200070470000243100202DE9FC5F0E008346AC
:10B03000DDE90C47C6F1000098469246814600D4EF
:10B040000846012503E000BF90FBFAF06D1C504557
:10B05000FADAA84500D9454624B1002E01DB78076D
:10B0600000D5641EB80702D5B8F1000F0AD0F80762
:10B0700008D13CB1A54205D220215846641EFEF7F6
:10B080001BFDF6E7002E02DA4E462D2102E078077E
:10B0900003D52B215846FEF70FFD07F003000228C9
:10B0A0000BD1B8F1000F08D13CB1A54205D2302137
:10B0B0005846641EFEF700FDF6E7CDE9004743461B
:10B0C00052463146584605F097F9BDE8FC9F00000E
:10B0D00070B50D46044600684FF4887102F0C9F956
:10B0E0004FF49071206802F0C4F94FF49271206817
:10B0F00002F0BFF94FF4A271206802F0BAF920689B
:10B100001249C0F804132068690740F30730090E9C
:10B11000002806DA00F00F0000F1E02080F8141D8E
:10B1200003E000F1E02080F800142068012140F3E2
:10B13000073000F01F0291404009800000F1E0203C
:10B14000C0F88012C0F8001170BD000010030200AA
:10B15000024600201268530713D502F003000128AD
:10B1600002D002280CD105E0C2F383100B68801CCA
:10B17000184404E00223086803EB9252104408606C
:10B18000012070472DE9F041174688460646002405
:10B1900017E000BF4FF4A07000EB84054FF480303F
:10B1A0007159A04059B1D6F80413014207D029467D
:10B1B000304602F037F9D8E9002128469047641C50
:10B1C000E4B2BC42E6D3BDE8F081F0B58488A518AE
:10B1D000944200D82246A41AC288D6189A4200D8AF
:10B1E0001346D21A4B880788BB420CD3408883424F
:10B1F00009D88888A04206D3A84204D8C8889042BB
:10B2000001D3B04201D90020F0BD0120F0BD0021E2
:10B21000425C0AB101207047491C1029F8D3002074
:10B220007047800701D00020704701207047000060
:10B230002DE9FE4F2E4F984692460D00814601D0D3
:10B2400000260DE0684600F0B3FA6A460021484641
:10B2500002F012FF3878009E10B99DF8090098B1ED
:10B2600052463146484604F0C3F9044601460022DE
:10B270004846FFF75DF90D2C37D008DCA4B3082C45
:10B2800033D00B2C09D130E00520BDE8FE8F112C06
:10B290001ED0A4F54050023827D0204602F0B8F85E
:10B2A0000246144814494B46401AC008012101EBDC
:10B2B0000040124901F0F3FB5FF00305B8F1000F05
:10B2C00004D0324621464846FFF700F82846DCE71E
:10B2D0002A46F9784846FEF765FA5246B978484654
:10B2E000FEF760FA0025E9E7FFE72546E6E70000FC
:10B2F0005C2B0020A42C03005C2C030064230300BF
:10B3000070B50E460C49154604460978FEF732FA28
:10B3100000280FD0204602F055FE00282A4631466C
:10B32000204603D0BDE8704002F052BEBDE8704038
:10B33000FEF78CBD70BD0000542B002070B5094D88
:10B340000646A978FEF716FA0446E9783046FEF775
:10B3500011FA014622463046BDE870400123FFF74E
:10B3600067BF00005C2B00202DE9F047394E002715
:10B3700080463D46DFF8E090D6F804A057E003D0C1
:10B380000446D0F81C8035E099F8002002EB420119
:10B39000521CD2B289F8002009EBC10199F80230A1
:10B3A000091D9A4201D189F8005048680A7804467C
:10B3B000012A12D0022A02D0032A3BD108E004F06D
:10B3C000C7FA00B10127257434E00574C06900E0B4
:10B3D00070680028F9D170602CE0207C50BB886830
:10B3E0006060C868A0600869E0604869A061F078A2
:10B3F00000B165606268B168184B501A20F07F4058
:10B40000984202D2A168084406E0881AA16820F098
:10B410007F40814202D9081A206000E02560656003
:10B420000120A56020742046E56104F073FAB8F1AC
:10B430000000A4D199F8001099F801008142A3D12D
:10B4400017B97168514502D00120BDE8F08700208E
:10B45000FBE70000D02B002048380020FFFF7F00D2
:10B46000F0B587B00546002718216846FAF7F0FFC7
:10B47000A5F57F40ADF80250FF3825D02846FFF7EC
:10B48000CDFA040022D01B481B49401AC6080B2CD9
:10B4900022D0112C1ED0A4F5405002380ED02046E8
:10B4A00001F0B6FF0246012000EB06402B4613498F
:10B4B00001F0F5FA2146284603F0C2FE10483A464C
:10B4C00081782846FEF76EF907B0F0BD0E208DF8A2
:10B4D00000000BE00127F1E70F208DF800000220AB
:10B4E00000EB06402A46074901F0D2FA6846FEF70B
:10B4F00043FFE3E75C2C03005C2C0300E41B030028
:10B50000182B0020381C03000A4602494978FEF730
:10B5100049B90000182B00202DE9F041002786B022
:10B5200080463E46FFF7C2FA040022D0112C22D0FA
:10B530001B481C49401AC508862C1ED0A4F5405053
:10B5400002380ED0204601F063FF0246012000EBD6
:10B550000540434614A101F0A2FA2146404603F0FB
:10B560006FFE39464046FFF7CFFF06B03046BDE8D4
:10B57000F0810126F5E70127F3E718221A4968460A
:10B58000FAF74DFF0220ADF8028000EB054042467D
:10B5900016A101F07DFA6846FEF7EEFEE1E7000035
:10B5A0005C2C03005C2C03006773636D5F6C6F633E
:10B5B000616C5F64625F63616368655F757064613D
:10B5C000746528292072657475726E656420257310
:10B5D00020666F7220636F6E6E5F68616E646C656B
:10B5E0003A202564000000002C0D0300466C6173B6
:10B5F000682066756C6C2E20436F756C64206E6FCE
:10B60000742073746F7265206461746120666F7258
:10B6100020636F6E6E5F68616E646C653A202564AE
:10B62000000000002DE9FF410026234800F069F9E1
:10B630002148001F074600F064F9204C6068009024
:10B64000A56800E000986946284004EB80000C30B3
:10B65000FFF77EFD0028F5D101AA009901EA050354
:10B6600004EB8303491CDB6842F82030401C009146
:10B670000228F2D3019800F0030001280BD0022821
:10B6800010D10198032101EB90500099BDF80A6098
:10B6900001EB900005E00198BDF80A60C0F383104B
:10B6A00008440090384600F029F908B1009860601D
:10B6B00004B03046BDE8F081EC450020D4410020C4
:10B6C00001F0A4FB08B1FDF745FD4FF40041002057
:10B6D00001F04CFA08B1FDF73DFD01F0ADF8FBF7C4
:10B6E0003FFD00BF01F0B6F8FCE72DE9F047C58843
:10B6F0001E1DB6FBF5F78946B6FBF5F1044605FBC2
:10B70000176C407916686843DDF820A0F718001F11
:10B71000874200D9C61A166001E02468491E002934
:10B72000FBD1A5EB0C078846B74216D818E004EB0E
:10B730000C00001D09EB0803BAF1000F3A4602D0D5
:10B740000146184600E01946FAF769FE2468F61B20
:10B750004FF0000CB844B54201D9374600E02F46FF
:10B76000002EE4D1BDE8F08730B5024651B101F0BA
:10B770001BFA0021074C08E034F821301568AB4271
:10B7800002D11160002030BD491C8142F4D3052054
:10B7900030BD000000000000BFF35F8F00F096B8DE
:10B7A0000246012000E05043491EC9B2FBD2704757
:10B7B000034A00219268C0E90021816070470000BF
:10B7C0005C2B002070B54FF6FF750E46A84201D1E4
:10B7D000002000E0401C84B208E02146304600F022
:10B7E00075F808B1204670BD641CA4B2FF2CF4D9D2
:10B7F000284670BD70B50C460546FAF70BFD0028CB
:10B8000002D021882868084470BD10B50A8849888C
:10B810008A4203D1FAF740FD012010BD002010BD7F
:10B8200070B50C460546FAF71AFD002802D061886B
:10B830002868084470BD10B50A8849888A4203D137
:10B84000FAF704FD012010BD002010BD01F01F0318
:10B8500001229A40D243490900EB8100114600F0D1
:10B860005CB80A4601F01F030121994010B5520946
:10B870000C4600EB820000F060F8204000D0012070
:10B8800010BD2DE9F04180460D460024481E0121DF
:10B8900001EB501716E058F82400C04390FAA0F0CE
:10B8A000B0FA80F020280CD200EB4416AE4208D249
:10B8B00031464046FFF7D5FF0028ECD13046BDE8C1
:10B8C000F081641CA742E6D82846F8E74A0950F8F8
:10B8D000220001F01F0201219140084000D0012008
:10B8E000704701F01F0301229A40490900EB8100D3
:10B8F000114600F02CB8002100F00FB8002100F034
:10B9000017B8012100F023B8012100F016B808B5DE
:10B910006A46FAF716FD009808BD08B56A46FAF7B8
:10B92000F6FC009808BD08B56A46FAF70AFD08BD9E
:10B9300008B56A46FAF7EBFC08BD08B56A46FAF79F
:10B94000D9FC08BD08B56A46FAF7C8FC08BD08B5B9
:10B950006A46FAF7CFFC009808BD08B56A46FAF7C0
:10B96000FDFC009808BD38B5044600258DF8005050
:10B970006846FDF749FD21686268086890420ED963
:10B98000401E08600178238AE26801FB0325227AC1
:10B990002168101AC0B20A79824200D208719DF85B
:10B9A0000000FDF755FD284638BD38B50546002096
:10B9B0008DF800000C466846FDF726FDE868298AE8
:10B9C000201AB0FBF1F12A681068431C1360017063
:10B9D0009DF80000FDF73CFD38BD10B530B1017A8F
:10B9E00042680368891AC9B21A6006E00E2010BDC9
:10B9F00003681A68541C1C601170491EC9B2F7D242
:10BA0000006800210171084610BDC20800F007035C
:10BA10000120895C98400840704710B5C20800F0CA
:10BA20000703885C01249C402043885410BD00F12A
:10BA300080400068002800D00120704708B500F160
:10BA40008040002101600068009008BD2DE9F041B0
:10BA5000040007D0044E4FF47A47751C3846A847B7
:10BA6000641EFAD1BDE8F081C00C030070B50B4C28
:10BA7000207808B185250FE00020A060606020617B
:10BA8000E060074801F090FD054601F04BFC08B965
:10BA900001F06EFD01202070284670BDB0340020FA
:10BAA000B59B020038B500258DF800506846FDF7BB
:10BAB000ABFC074CE068401EE060E06810B901F0A4
:10BAC000AFFDA5709DF80000FDF7C2FC38BD000079
:10BAD000B034002010B504464EDF002805D12046C2
