:020000040002F8
:10600000A0550020F9620200016302000363020050
:10601000056302000763020009630200000000003C
:106020000000000000000000000000000B63020000
:106030000D630200000000000F6302001163020004
:106040001363020013630200957202005170020094
:10605000A570020013630200AD6A02001363020020
:106060001363020013630200136302001363020050
:106070001363020013630200136302001363020040
:1060800013630200CD6F020013630200136302006A
:10609000B570020013630200136302001363020071
:1060A0001363020013630200136302001363020010
:1060B00013630200136302000000000000000000F0
:1060C00013630200136302001363020013630200F0
:1060D00013630200136302001363020013630200E0
:1060E0001363020013630200136302000000000048
:1060F00000000000136302000000000013630200B0
:10610000000000000000000000000000000000008F
:10611000000000000000000000000000000000007F
:10612000000000000000000000000000000000006F
:10613000000000000000000000000000000000005F
:10614000000000000000000000000000000000004F
:10615000000000000000000000000000000000003F
:10616000000000000000000000000000000000002F
:10617000000000000000000000000000000000001F
:10618000000000000000000000000000000000000F
:1061900000000000000000000000000000000000FF
:1061A00000000000000000000000000000000000EF
:1061B00000000000000000000000000000000000DF
:1061C00000000000000000000000000000000000CF
:1061D00000000000000000000000000000000000BF
:1061E00000000000000000000000000000000000AF
:1061F000000000000000000000000000000000009F
:10620000DFF80CD000F0F4FA00480047D981020012
:10621000A055002030B4044654E8000F0D4644E871
:106220000053002BF8D1156030BC704730B40446E1
:1062300054E8000F40EA010544E80053002BF7D171
:10624000156030BC704730B4044654E8000F00EAD3
:10625000010544E80053002BF7D1156030BC7047AE
:1062600030B4044654E8000F80EA010544E80053C6
:10627000002BF7D1156030BC704730B4044654E8A9
:10628000000F00EB010544E80053002BF7D1156027
:1062900030BC704730B4044654E8000FA0EB010551
:1062A00044E80053002BF7D1156030BC704770B440
:1062B00004464FF0000054E8006F0D68AE4207BF7F
:1062C00044E80023012044E800630E60002B1CBF5B
:1062D0000020F0E770BC704730B4044654E8000F6B
:1062E00088422CBF451A054644E80053002BF5D1DF
:1062F000156030BC704700000648804706480047DC
:10630000FEE7FEE7FEE7FEE7FEE7FEE7FEE7FEE765
:10631000FEE7FEE7B9700200016202002DE9F05FBE
:106320000546002092469B46884606468146402404
:106330001BE0284641464746224600F090F8534667
:106340005A46C01A914110D311461846224600F011
:1063500016F82D1A67EB01084F462246012000214E
:1063600000F00DF817EB00094E41201EA4F10104C6
:10637000DFDC484631462A464346BDE8F09F202AE6
:1063800004DB203A00FA02F1002070479140C2F18C
:10639000200320FA03F319439040704700487047E8
:1063A000D4A3020040EA01039B0703D009E008C917
:1063B000121F08C0042AFAD203E011F8013B00F8CA
:1063C000013B521EF9D27047D2B201E000F8012B16
:1063D000491EFBD270470022F6E710B513460A4665
:1063E00004461946FFF7F0FF204610BD421C10F886
:1063F000011B0029FBD1801A7047034611F8012BBD
:1064000000F8012B002AF9D11846704700F000422D
:1064100030F000400AD0C10D01F56071C0F31600E4
:1064200042EA0151C208400711437047002001466B
:10643000704730B50B46014600202022012409E0B8
:1064400021FA02F59D4205D303FA02F5491B04FA2D
:1064500002F52844151EA2F10102F1DC30BD202A0C
:1064600004DB203A21FA02F00021704721FA02F3FE
:10647000D040C2F1200291400843194670472DE9EF
:10648000FE4F804681EA0300C00F0C46009021F0C9
:10649000004123F00045B8EB0200A94105D2404677
:1064A000214690461C460B46024623F0004010430E
:1064B00047D0270DC7F30A00C3F30A510290401AD0
:1064C000019040286BDAC3F3130040F4801B00985E
:1064D000924620B10023D2EB030A63EB0B0B019829
:1064E0005946C0F140025046FFF749FF06460D46A7
:1064F00050465946019A00F08DF910EB08006141B1
:10650000002487EA115284EAE7731A4340D0009AC4
:1065100062B3019A012A4FEA075215DC001B61EBB6
:1065200002014FF0004202EA0752CDE90042001C8E
:1065300041F5801132462B4600F08DF903B0BDE8DD
:10654000F08F40462146F9E7001B61EB0201001C79
:1065500041F5801300185B412018A2F5001747EBA6
:10656000030140EAD570B6196D4111E06D084FEA9C
:10657000360645EAC0754FEA0752001B61EB02017F
:10658000001C41F5801149084FEA300000195141C3
:1065900032462B4603B0BDE8F04F00F04DB90098ED
:1065A000012240000023D0EB020263EBE07300986D
:1065B00021464FEAE074B8EB000061EB0401E9E723
:1065C00083F000435BE781F0004158E72DE9FE4F7F
:1065D00081EA030404F0004421F0004100944FF0EC
:1065E000000B23F0004350EA01045ED052EA03049A
:1065F0005BD0C3F30A54C1F30A552C44A4F2F3341C
:106600000194A0FB0254C1F3130141F48011C3F3C0
:10661000130343F4801301FB024400FB034E840A7E
:10662000970A44EA815447EA8357A4FB0768029516
:106630008D0A05FB07854FEA932C04FB0C542705B4
:10664000029D4FEA065847EA1637B5EB08056EEB90
:10665000070C870E920E47EA811742EA8312A7FBC6
:106660000201B6EB0B0164EB00042B0D43EA0C3383
:106670005E1844EB1C50DA465146E7FB0201C5F3B5
:1066800013044FEA0B3343EA14534FEA0432019CDC
:1066900043EA0603A4F10C040294009CCDE900B483
:1066A00000F0D9F803B0BDE8F08F00200146F9E70B
:1066B0002DE9F04D81EA030404F0004B21F0004580
:1066C00014464FF0000A23F0004150EA050220D0A2
:1066D00054EA01021DD0C5F30A570246C5F313035D
:1066E000C1F31300C1F30A5640F4801543F480133C
:1066F000A7EB0608101BD64608F2FD3873EB050021
:1067000002D308F1010801E092185B41B8F1000FD3
:1067100003DA00200146BDE8F08D00204FF480111F
:10672000064684460EE0171B73EB050705D3121BC4
:1067300063EB050306434CEA010C49084FEA3000BD
:1067400092185B4150EA0107EDD152EA030012D0E2
:1067500082EA040083EA0501084305D0101BAB411F
:1067600006D20122002306E000224FF0004302E09F
:106770006FF0010253101AEB06004CEB085110EBBE
:106780000A0041EB0B01BDE8F04D00F055B8C1F334
:106790000A52C1F3130140F2FF3341F480119A42CF
:1067A00002DA00200146704740F233439A42A2F2D7
:1067B000334202DC5242FFF752BEFFF7E0BD000059
:1067C00030B5041E71F1000404DB4FF00044404278
:1067D00064EB0101141E73F1000405DB1C464FF04D
:1067E0000043524263EB0403994208BF904230BD1C
:1067F000064C074D06E0E06840F0010394E807000E
:1068000098471034AC42F6D3FFF7FEFC80A4020098
:10681000A0A40200202A06DBCB17203A41FA02F09E
:1068200043EAE07306E041FA02F3D040C2F12002ED
:10683000914008431946704710B5141E73F10004C7
:1068400008DA401C41F1000192185B411A4301D162
:1068500020F0010010BD2DE9F04D92469B4611B18C
:10686000B1FA81F202E0B0FA80F220329046FFF7EE
:1068700086FD04460F4640EA0A0041EA0B015346F2
:106880005A46084313D0114653EA010019D0C8F103
:1068900040025046FFF7E3FD05460E465046594676
:1068A0004246FFF76CFD084305D0012004E0204676
:1068B0003946BDE8F08D0020054346EAE0762C43DA
:1068C00037430A986305E40AA0EB08000022FD0A9A
:1068D00044EA47540A3002D500200146E9E70105A1
:1068E00010196941DDE9084500196941BDE8F04D1D
:1068F000A2E700000B490122C1F80020D1F80001F5
:106900000028FBD00020C1F8000107480368006898
:106910009B0501D5054B1843C31700EB93708010FE
:106920004A60704700C0004008C5004000FCFFFFFF
:1069300038B5002101233AA2084600F0DBFA3B4CAF
:106940000122114694ED010A002000F055FA0123BE
:1069500037A20221002000F0CDFA012294ED020AB4
:106960000321002000F048FA012334A20421002072
:1069700000F0C0FA012294ED030A0521002000F086
:106980003BFA012330A20021402000F0B3FA01229B
:1069900094ED040A1146402000F02EFA01232DA2A6
:1069A0000221402000F0A6FAFFF7A4FF02460120D2
:1069B000009002230321402000F03AFA012328A28C
:1069C0000421382000F096FA022329A20621002093
:1069D00000F090FA2078012812D0022813D0032862
:1069E00018D004284FF0010317D025A2052140201C
:1069F00000F080FA002020702078401C207038BD04
:106A0000012322A201E0012321A20521402000F060
:106A100071FAF1E7012320A2F7E721A2F5E70000D0
:106A200053656E736F72313A20000000E82A00202F
:106A300053656E736F72323A2000000053656E73B7
:106A40006F72333A2000000043757272656E743ABB
:106A5000200000004350552054656D703A2000001E
:106A60003E3E776F726B696E673C3C200000000011
:106A7000477972666C61636F6E53797374656D00EC
:106A80002020202020202020200000003E3E00006A
:106A90003E3E3E3E000000003E3E3E3E3E3E00008A
:106AA0003E3E3E3E3E3E3E3E000000002DE9F04FA1
:106AB00000268DB0DFF8A081B14604964FF48075B2
:106AC000012437460596284601F0EEFE38B1D8F885
:106AD0000403204203D0284601F0DCFE26432D1D8E
:106AE00064007F1CADB2082FEDD34FF4BE74204676
:106AF00001F0DAFE48B1204601F0CCFE46F0004637
:106B000004AA0221002001F0AFFE544C16F0FF0F42
:106B100015D00127002537420DD008EB8501D1F8AB
:106B20001005D1F81015C0F3052054F82520C1F345
:106B3000014102B190477F006D1C082DEBD3002E60
:106B40007EDA0020CDF82890411E0DF1100B07AA27
:106B5000CDF82C9042F82010401C91460228F9D321
:106B600000252E46A11911F8607F91F9000027F049
:106B7000C008401C40D007A9404601F0B1FC40B31A
:106B80004FEA971A404601F067F954F820701FB198
:106B9000BAF1030F03D006E0BAF1030F2CD10AA912
:106BA000404601F0A5FC02A8CDF8088001F01EFEC9
:106BB000029900EB8100D0F8000704A9C0F301405E
:106BC0000290404601F08CFC0028029802D0022876
:106BD00002D011E003280FD1BAF1030F08D10298B7
:106BE000022833D00221404601F0D4FD6D1CEDB2E5
:106BF00017B151464046B847761C042EB2D3002D3B
:106C000021D001AA0221002001F02EFE00205A46C8
:106C10000DF1040152F8206051F82030B34217D032
:106C200000200AAE4FEA090351F8207042F82070A4
:106C300056F8207043F82070401C0228F4D300E07E
:106C400001E0002D8CD10DB0BDE8F08F0321CAE723
:106C5000401C0228DED3F6E7006000408C2B0020A9
:106C60001FB5094B0FCB8DE80F00074800231A46CC
:106C70006946103801F046FC08B101F06DF8024891
:106C80000C3802F0BFF91FBD289B020007B5012395
:106C900002AA02F0DBFEC0B20EBD00F01F0201210D
:106CA00091404009800000F1E020C0F88012704758
:106CB00000F01F02012191404009800000F1E02016
:106CC000C0F80011704700F01F02012191404009F7
:106CD000800000F1E020C0F800127047002000F0B2
:106CE00001B8000070B506465FF0000404F1B00082
:106CF000C0B200F0D5FA002000F0D2FA102000F067
:106D0000CFFA0025304600F0D0FA6D1CEDB2802D90
:106D1000F8D3641CE4B2082CE8D370BD10B5AE20E3
:106D200000F0BEFA202000F0BBFA102000F0B8FA04
:106D3000B02000F0B5FAC82000F0B2FA002000F050
:106D4000AFFA102000F0ACFA402000F0A9FA812040
:106D500000F0A6FAEF2000F0A3FAA12000F0A0FABC
:106D6000A62000F09DFAA82000F09AFA3F2000F03B
:106D700097FAA42000F094FAD32000F091FA0020B2
:106D800000F08EFAD52000F08BFAF02000F088FA9F
:106D9000D92000F085FA222000F082FADA2000F0F3
:106DA0007FFA122000F07CFADB2000F079FA202034
:106DB00000F076FA8D2000F073FA142000F070FADB
:106DC000AF2000F06DFABDE810400020FFF78ABF49
:106DD00010B50446B031C8B200F062FA102040EAA3
:106DE000141000F05DFA04F00F00BDE8104040F010
:106DF000010000F055BA0000FEB5064614460D46E7
:106E000010EE100AFFF702FB41EC100B06A153EC49
:106E1000102B684600F0DCFA23466A4629463046C5
:106E200000F068F8FEBD0000252E3466000000006A
:106E30002DE9F84F06460020DDF828A08DF8000067
:106E40001C468B46E94695B25046BAF1010F04D074
:106E5000022828D19846002748E09846002720E0DD
:106E6000641EE1B20C460A2001F0C4FAB5FBF0F052
:106E70008DF8000021460A2001F0BCFA01469DF879
:106E80000000534600FB115130308DB28DF80000E8
:106E90004A465946304600F02DF8B61D7F1CF6B222
:106EA000FFB24745DCD3BDE8F88F641EE1B20C4663
:106EB0000A2001F09FFAB5FBF0F08DF800002146A2
:106EC0000A2001F097FA01469DF80000534600FBA6
:106ED000115130308DB28DF800004A465946304687
:106EE00000F008F808367F1CF6B2FFB24745DCD345
:106EF000D9E700002DE9F047002591468A4604466F
:106F0000012B22D0DFF8BC80022B24D155E02038A1
:106F1000C7B27E2C04D90AF10100002400F0FF0A58
:106F200051462046FFF754FF07EB4700002608EBC9
:106F30004007B85D00F0B9F9761CF6B2062EF8D31A
:106F4000A41D6D1CE4B2EDB201E0DFF87C8019F8FD
:106F500005000028DBD1BDE8F0872038C7B2782CC7
:106F600004D90AF10100002400F0FF0A514620462E
:106F7000FFF72EFF5FF0000606EB071118F801007F
:106F800000F093F9761CF6B2082EF5D30AF1010051
:106F9000C1B22046FFF71CFF5FF0000606EB0711A9
:106FA00001EB0800007A00F080F9761CF6B2082E9A
:106FB000F4D308346D1CE4B2EDB219F805000028D2
:106FC000CBD1C8E7609D0200389B02000748002132
:106FD000C0F84011C0F84411C0F84811C0F84C1175
:106FE000C0F80011C0F8041102F068BA00100140A6
:106FF00000F060B970B50E46144900EB400001EB9B
:10700000C0051446E86A183520B101280FD00228BF
:1070100005D113E0284600F081F9A04201D20024F6
:1070200011E022463146284600F0B0F90BE0284630
:1070300000F074F9A042F4D20446F2E73146284643
:1070400000F077F90446204670BD00001833002098
:10705000F8B51248124E04464FF48C7101F091FFBE
:1070600000281AD00025C4F81851D4F8180100904F
:10707000F07F3446FF2806D0A17F11B101F0A2FBBA
:1070800001E001F0DDFB65772572D4E9002101B054
:1070900004F10800BDE8F0401047F8BD00300040A2
:1070A000F82B002002494FF0402002F0B3BA000054
:1070B0001C2C002002F074B930B54FF08050002233
:1070C0008300D0F83011C3F80C21C3F81021624BB3
:1070D0001A60624B1B68624C2360604B1B1D1B686F
:1070E000241D23605D4B08331B68241D23605B4B0C
:1070F0000C331B68241D2360584B10331B68241D60
:107100002360564B14331B68241D2360534B1833E4
:107110001B68534C20342360504B1C331B68241DC8
:1071200023604E4B20331B68241D23604B4B2433BC
:107130001B68241D2360494B28331B68241D2360D2
:10714000464B2C331B68241D2360444B30331B6893
:10715000434C40342360414B34331B68241D23606F
:107160003E4B38331B68241D23603C4B3C331B686B
:10717000241D2360394B40331B68241D23600124E8
:10718000082902D1D0F8343113B1082904D006E01F
:10719000354B3449196005E0D0F8343113B1082972
:1071A00004D006E0314BFB21196005E0D0F8343102
:1071B00013B1082908D00EE090F858322C48016825
:1071C00063F30301016002E0D0F834311BB92949AF
:1071D0004FF40070086028480168C90702D06FF0BA
:1071E000010101602548016841F470010160BFF3AD
:1071F0004F8FBFF36F8F4FF01021D1F8000200289E
:1072000003DBD1F80402002822DA1D4B1C601D4864
:107210000468002CFCD01224C1F800420568002D3F
:10722000FCD0C1F8044201680029FCD01A60016852
:107230000029FCD0BFF34F8F10487C380168124AF8
:1072400001F4E06111430160BFF34F8F00BFFDE720
:107250000F490E48086030BD380500400404001096
:1072600020C50040488103008C56004018F50040BE
:10727000E40E0040409602400004004088ED00E02B
:1072800004E5014000E401400400FA050090D00349
:10729000882B00200148006800470000FC2A0020DD
:1072A000024600213C20FFF7F1BC024640213C2071
:1072B000FFF7ECBC10B5124C02202061606111A0F8
:1072C000A06104F17800E0614FF4007020620020BA
:1072D000A06260620BA1A164E06204F51E71E1642A
:1072E0001021A065C4E91410E06509A1E01DFFF7B5
:1072F00084F808A12046FFF780F82020A07110BD77
:10730000183300205465726D696E616C00000000D6
:107310005254540053454747455200000269C16822
:107320008A4203D88068401A104400E0501A401E78
:1073300070472DE9F047C4681746894606464FF066
:1073400000083069A04201D9051B02E0B168201A8B
:107350000D1AB0686D1E001BA84200D80546BD423C
:1073600000D33D4670682A4620444946FFF71AF884
:10737000B0687F1B2C44A844A944A04200D100243B
:10738000F460002FDDD14046BDE8F0872DE9F041E3
:1073900004468846D4E90207C51BE16860681646C2
:1073A0000844B54206D94146FEF7FCFFB819E06033
:1073B000BDE8F0812A464146FEF7F4FF761B08EB54
:1073C000050132466068FEF7EDFFE660F0E7000079
:1073D0000FB4084B10B504A902AA039800F0DEF818
:1073E000044602A9002000F070FC204610BC5DF8A5
:1073F00014FB0000CB7C020002E008C8121F08C189
:10740000002AFAD170477047002001E001C1121F25
:10741000002AFBD1704700002DE9FF5F82B00021F8
:10742000DDE90430020DDDF840B0034318D044F626
:107430001050A2F2FF3242431514119801281FD0B8
:10744000A5EB0B00401C5FEA000A4FF000064E4F10
:10745000DFF83891B046504615D5CAF1000413E064
:10746000119801244AA3012801D16FEA0B01029867
:10747000119AC0E90031C0E9024206B0BDE8F09FB0
:10748000CBF10000DFE704460021404A491842EBF7
:107490000450CDE9001012E0E00707D032463B4629
:1074A00040464946FFF792F88046894632463B46B9
:1074B00010461946FFF78AF806460F466410002C5E
:1074C000EAD1DDE90401DDE90023BAF1000F06DAB3
:1074D000FFF77CF842464B46FFF778F805E0FFF7E8
:1074E000E7F842464B46FFF7E3F804460E46002213
:1074F000284BFFF765F903D84FF0FF30014607E04E
:107500000022254B20463146FEF7B9FFFFF73FF931
:10751000102409E0002C0ADB0A220023FEF7FEFEFD
:10752000039B30321A55641E50EA0102F2D1641CEA
:10753000039AC4F111031444119A012A03D00122C1
:1075400008430DD10AE0084304D000204FF0110B8E
:10755000119072E7A3EB0B056D1E0DE05B4504DD9A
:107560004FF0000205F1010504E003DA4FF00002DC
:10757000A5F10105002AECD002981199C0E9023169
:10758000C0E9004579E70000000014400000F03F2A
:10759000300000000000F0430000E03F2DE9FF4F05
:1075A00095B09B468946064600250FE2252877D1EF
:1075B00000242746F84A0121059400E0044316F808
:1075C000013F203B01FA03F01042F7D130782A281E
:1075D00011D06FF02F033078A0F13002092A16D8AD
:1075E000059A44F0020402EB820203EB42021044CB
:1075F000761C0590EFE759F8042B0592002A03DA70
:10760000504244F40054059044F00204761C307853
:107610002E2816D116F8010F44F004042A280DD0A4
:107620006FF02F023078A0F13003092B09D807EB57
:10763000870302EB4303C718761CF3E759F8047B72
:10764000761C30786C280FD006DC4C2817D06828C0
:107650000DD06A2814D104E0742810D07A280FD1F4
:107660000DE044F400140AE044F4801401E044F412
:1076700040147278824202D104F58014761C761C84
:10768000307866280BD013DC582877D009DC002826
:1076900075D04528F6D04628F4D047281AD19DE168
:1076A00018E0632835D0642879D0652812D195E197
:1076B000702873D008DC6728F1D069286FD06E2855
:1076C0000DD06F2806D1B5E073282CD0752875D061
:1076D000782874D05A46179990476D1C75E1C4F309
:1076E0000250022809D003280DD0D9F80010042830
:1076F0000DD00D6009F1040967E1D9F80010EA170F
:10770000C1E90052F6E7D9F800100D80F2E70D70DC
:10771000F0E719F8041B8DF8001000208DF8010027
:10772000EA46012003E059F804AB4FF0FF3061074F
:107730004FF0000102D40DE008F101018846B94282
:107740000FDA8045F8DB1AF808100029F4D108E0B8
:1077500008F1010188468142FADB1AF80810002975
:10776000F6D105985B46A0EB080721463846179AE4
:1077700000F094FA284400EB080507E04DE029E109
:107780000DE01AF8010B5A4617999047B8F1010815
:10779000F7D25B4621463846179A13E142E00A22A7
:1077A0000092C4F302524FF0000A022A08D059F89E
:1077B00004CB032A4FEAEC710AD00DE029E02AE05D
:1077C00009F1070121F00702F2E802C1914609E040
:1077D0000FFA8CFC4FEAEC71042A03D14FFA8CFCAF
:1077E0004FEAEC71002907DA0A460021DCF1000CAF
:1077F00061EB02012D2202E0220504D52B228DF837
:107800000420012203E0E20701D02022F7E790469E
:1078100059E00A2102E010220DE010214FF0000A89
:1078200000910BE010224FF0000A44F004040827F6
:10783000009203E008224FF0000A0092C4F30252C3
:10784000022A05D059F804CB0021032A08D009E008
:1078500009F1070121F00702F2E802C1914605E0B3
:107860001FFA8CFC042A01D10CF0FF0C4FF0000829
:10787000220728D5702806D0009B83F0100353EA16
:107880000A0305D00EE040228DF80420012208E012
:107890005CEA010206D030228DF804208DF8050044
:1078A00002229046009B83F0080353EA0A030AD1A0
:1078B0005CEA010201D1620705D530228DF804206F
:1078C0004FF001087F1E582804D034A003900EA862
:1078D00002900DE036A0F9E753466046009AFEF7A5
:1078E0001DFD84460398825C0298401E029002703F
:1078F0005CEA0100F0D1029806A9081A00F1200AFA
:10790000600702D524F4803400E00127574502DDEA
:10791000A7EB0A0000E0002000EB0A0100900598A8
:107920004144401A0590E00306D45B462146179A6D
:10793000059800F0B3F90544002706E001A85A466F
:10794000C05D179990476D1C7F1C4745F6DBE0032F
:107950000CD55B462146179A059800F09FF905441F
:1079600004E030205A46179990476D1C0099481E34
:1079700000900029F5DC08E0029802995A46007848
:10798000491C0291179990476D1CBAF10001AAF1A8
:10799000010AF1DC65E100000928010030313233D1
:1079A000343536373839616263646566000000003B
:1079B0003031323334353637383941424344454625
:1079C0000000000000F058F90544761C30780028CB
:1079D0007FF4ECAD19B02846BDE8F08F620700D403
:1079E000062709F1070222F0070CFCE80223E14612
:1079F00003F000485FEA080C02D00FF2702C0DE093
:107A00005FEA045C02D50FF2682C07E05FEAC47CF1
:107A100002D00FF2602C01E0AFF2700C4FF0FF3893
:107A200023F00043CDF850C065280CD006DC452873
:107A300009D046281DD047283DD13DE0662818D002
:107A400067287ED138E00021112F01DB112000E0F2
:107A5000781CCDE9000106A90EA8FFF7DDFCDDE9E1
:107A60000F010E9A03910021009207F1010A04917F
:107A70004DE04FF000400097CDE9011006A90EA897
:107A8000FFF7CAFCDDE90F0203920E9B1199002259
:107A9000DDF80CA00093049211B9791C00EB010AE7
:107AA000B7EB0A0004D4C0F1FF3007F1010A0490DB
:107AB000AAEB0700019044E0012F00DA0127002122
:107AC000112F01DD112000E03846CDE9000106A9A3
:107AD0000EA8FFF7A1FCDDE90F010E9A039100212A
:107AE00004910092BA4621070CD40399514500DA5B
:107AF0008A46BAF1010F05DD009AAAF10101515C35
:107B0000302908D0B84202DA10F1040F06DA012158
:107B1000CDE9011015E0AAF10101E9E7002805DC33
:107B2000049901440491AAEB000102E0411C514573
:107B300000DD8A460499401A401C01904FF0004035
:107B40000290200704D40198504501DBCDF8048051
:107B500000208DF84F0002980DF14F07B0F1004F53
:107B600025D02B200E9002984FF0020800280CDA46
:107B7000404202902D200E9007E00A210298FEF765
:107B800058FC3031029007F8011DB8F10001A8F14E
:107B90000108F2DC02980028EFD1791E0E980870D7
:107BA000307800F0200040F0450007F8020D12A8E0
:107BB000C01B00F107081498007800B1012000EB09
:107BC0000A01019801EBE07105984144401A401EFA
:107BD0000590E00306D45B462146179A059800F00D
:107BE0005DF805441498007818B15A4617999047E3
:107BF0006D1CE00324D55B462146179A059800F0DA
:107C00004DF805441CE00498002807DBDDE903017A
:107C1000884203DD0098405C179901E017993020F5
:107C20005A469047049805F10105401C04900198BC
:107C3000401E019004D12E205A46179990476D1C82
:107C4000BAF10001AAF1010ADDDC05E017F8010B29
:107C50005A46179990476D1CB8F10001A8F1010828
:107C6000F4DC5B462146179A0598ABE62D00000030
:107C70002B000000200000002DE9F0410446002503
:107C80001E461746880404D405E039462020B04734
:107C90006D1C641EF9D52846BDE8F0812DE9F04140
:107CA000044600251E469046C80301D5302700E053
:107CB0002027880404D505E041463846B0476D1CAE
:107CC000641EF9D52846BDE8F0810A68531C0B6094
:107CD0001070704772B601F067F800BF00F0B4FE94
:107CE0000028FBD111481249401AC408012000EBBA
:107CF000044010A100F0C0FF11480068C00700D088
:107D000000BE022000EB04400EA100F0B5FFBFF35F
:107D10004F8F0B48E43801680E4A01F4E0611143CB
:107D20000160BFF34F8F00BFFDE70000E0A4020039
:107D3000B0A40200466174616C206572726F7200BB
:107D4000F0ED00E053797374656D207265736574AE
:107D5000000000000400FA050EB500210091CDE9F5
:107D600001106A4644F20100FFF7B4FF0EBD00F0B7
:107D700003B800F009B8000072B602480168491C57
:107D800001607047282B002003490868401E0860E6
:107D900000D162B670470000282B00202DE9F04783
:107DA0000546861C90460F464FF001090020FFF75C
:107DB000DEFF1B4C20683860D4E90001401AA1683E
:107DC00004F21C47081A0EE00121384600F020FB9F
:107DD00000F0B4F90146384600F01AFBD4E900017E
:107DE000401AA168081A401C8642EDD8B8F1000F6D
:107DF00003D0052065F3891002E0062065F39F504B
:107E0000A2682168114004EB8101C86020683044F9
:107E100020600020FFF7ADFF4846BDE8F087000076
:107E2000F42E002030B482680468531C8360A1548F
:107E3000D0E901128A4202D330BC00F097BB30BCBB
:107E400070470000034803C8814201D101207047F8
:107E500000207047F42E00200249084490F93000B9
:107E6000704700008C2B00202DE9F05F2648416808
:107E7000F1B3DFF898B00E688146DBF80040876800
:107E80008078E11B21F07F45ED1CB0B9DFF88080E0
:107E90004FF48030C8F84403C8F804031120FEF7FB
:107EA000FCFE1120FEF704FF4FF0010AC8F800A005
:107EB0002F2001F07FF889F802A0B54200D23546A4
:107EC000124BE8193C3320F07F401860DBF80010BB
:107ED0005A46091B21F07F41001B20F07F40C91C3E
:107EE00081420FD9106818602F2001F063F800E07C
:107EF00004E0BDE8F05F1120FEF7E5BEBDE8F05FED
:107F000001F0C2B9BDE8F09F142B00200415014018
:107F10000010014010B50021024800F084FA80F3FF
:107F2000100010BD103300200E4910B50A784C78AF
:107F30000023A24212D0521CD2B20A70022A00D1EF
:107F40000B70084A0B780C3252F8232002608868C4
:107F5000104420F07F408860012010BD03600020A5
:107F600010BD0000142B00202DE9FC5F0E0083469D
:107F7000DDE90C47C6F1000098469246814600D4E0
:107F80000846012503E000BF90FBFAF06D1C504548
:107F9000FADAA84500D9454624B1002E01DB78075E
:107FA00000D5641EB80702D5B8F1000F0AD0F80753
:107FB00008D13CB1A54205D220215846641EFFF7E6
:107FC00031FFF6E7002E02DA4E462D2102E0780757
:107FD00003D52B215846FFF725FF07F003000228A1
:107FE0000BD1B8F1000F08D13CB1A54205D2302128
:107FF0005846641EFFF716FFF6E7CDE900474346F3
:1080000052463146584601F0C7FCBDE8FC9F024687
:1080100000201268530713D502F00300012802D094
:1080200002280CD105E0C2F383100B68801C1844B1
:1080300004E00223086803EB925210440860012018
:10804000704700002DE9F047394E002780463D4635
:10805000DFF8E090D6F804A057E003D00446D0F84B
:108060001C8035E099F8002002EB4201521CD2B28C
:1080700089F8002009EBC10199F80230091D9A42E4
:1080800001D189F8005048680A780446012A12D0C4
:10809000022A02D0032A3BD108E001F0DFF900B147
:1080A0000127257434E00574C06900E07068002879
:1080B000F9D170602CE0207C50BB88686060C86893
:1080C000A0600869E0604869A061F07800B165606F
:1080D0006268B168184B501A20F07F40984202D273
:1080E000A168084406E0881AA16820F07F40814218
:1080F00002D9081A206000E0256065600120A560B3
:1081000020742046E56101F08BF9B8F10000A4D19C
:1081100099F8001099F801008142A3D117B971684C
:10812000514502D00120BDE8F0870020FBE70000A8
:10813000142B0020502C0020FFFF7F002DE9FF4171
:108140000026234800F061F92148001F074600F08F
:108150005CF9204C60680090A56800E000986946D2
:10816000284004EB80000C30FFF751FF0028F5D1C8
:1081700001AA009901EA050304EB8303491CDB68AB
:1081800042F82030401C00910228F2D3019800F000
:10819000030001280BD0022810D10198032101EB24
:1081A00090500099BDF80A6001EB900005E001983D
:1081B000BDF80A60C0F3831008440090384600F010
:1081C00021F908B10098606004B03046BDE8F08144
:1081D0000C330020F42E0020A4B000264FF4004100
:1081E000304600F0ABFD08B1FFF7B6FD00F01EFC15
:1081F000FEF736FDFEF792FD01232AA2052110208D
:10820000FEF778FE2B482C49401AC108032000EBEA
:108210000140054629A100F02FFD00BF00F014FC2D
:108220000028FBD1284629A100F026FD00F00CFC17
:108230000028FBD101242B48214622AA012300F06B
:1082400065FF58B92746012628463A4626A100F080
:1082500017FD00BF00F0F8FB0028FBD1641CE4B25E
:108260007F2CE8D986B10021012329A20846FEF718
:1082700041FE3A462AA16846FFF7AAF801236A465A
:108280000C210A20FEF736FE9FED2A0B2BA153ECA2
:10829000102B20A8FFF79CF8FEF720FDFEF748FB07
:1082A000FCE7000068656C6C6F20776F726C64216E
:1082B00000000000E0A40200B0A4020053504920D6
:1082C000496E6974204F4B2E00000000545749201E
:1082D0007363616E6E657220737461727465642E6F
:1082E000000000001C9B0200545749206465766919
:1082F00063652064657465637465642061742061DE
:1083000064647265737320307825782E0000000055
:1083100044657669636520646574656374656400AB
:1083200061742061646472657373203078257820ED
:108330000000000000000060FB210940252E33668C
:10834000000000002DE9F047C5881E1DB6FBF5F7BB
:108350008946B6FBF5F1044605FB176C40791668B3
:108360006843DDF820A0F718001F874200D9C61A1D
:10837000166001E02468491E0029FBD1A5EB0C071B
:108380008846B74216D818E004EB0C00001D09EB34
:108390000803BAF1000F3A4602D00146184600E041
:1083A0001946FDF7FFFF2468F61B4FF0000CB84498
:1083B000B54201D9374600E02F46002EE4D1BDE892
:1083C000F087000030B5024651B100F0D5FC002125
:1083D000074C08E034F821301568AB4202D1116037
:1083E000002030BD491C8142F4D3052030BD00007F
:1083F000000000000246012000E05043491EC9B2BF
:10840000FBD27047002100F009B8012100F010B83C
:1084100008B56A46FDF731FF009808BD08B56A4601
:10842000FDF711FF08BD08B56A46FDF7F3FE08BD6C
:1084300008B56A46FDF7FAFE009808BD08B56A4619
:10844000FDF728FF009808BD70B5044600252846B2
:10845000FFF78DFC21686268086890420ED9401EC3
:1084600008600178238AE26801FB0325227A2168EB
:10847000101AC0B20A79824200D208710020FFF7B8
:1084800078FC284670BD70B505460C460020FFF705
:108490006EFCE868298A201AB0FBF1F12A6810689E
:1084A000431C13600170BDE870400020FFF761BC01
:1084B00010B530B1017A42680368891AC9B21A60EE
:1084C00006E00E2010BD03681A68541C1C60117071
:1084D000491EC9B2F7D2006800210171084610BDDB
:1084E000C20800F007030120895C984008407047EB
:1084F00010B5C20800F00703885C01249C402043AB
:10850000885410BD2DE9F041064604780B48154605
:108510000F4640F82420083040F82430487B10B142
:10852000084601F005F80DB1054A00E00022234697
:108530003946301DBDE8F04100F076BD042B002027
:10854000D595020038B5001D049C009400F0F6FD9E
:1085500038BD0FB408B50399002904D004AA0092CD
:108560006A4600F00FF801B05DF814FB10B58268A0
:108570000446002A05D0D4E9040321689847002066
:10858000A06010BD2DE9FC4791460C00804676D0D6
:1085900014F8011B39B125290ED04046FFF742FCE3
:1085A00020780028F4D198F80C00002867D04046C5
:1085B000BDE8FC47FFF7DABF0020012221782B2914
:1085C0001BD02D2902D0302908D102E040F0010053
:1085D00001E040F00200641C002AEFD100252A29A6
:1085E0000ED02178A1F130020A2A11D205EB8502C2
:1085F00001EB4205641C303DF1E740F00400EAE77E
:10860000D9F800100B1DC9F800300968641C0D442E
:10861000217800232E290BD114F8011FA1F130027B
:108620000A2A05D203EB830201EB4203303BF3E756
:108630006C290DD068290BD0692921D00BDC2529A4
:1086400018D0582931D063290ED0642915D117E0EC
:1086500014F8011FECE7702969D0732932D075290D
:108660001BD0782909D120E0D9F80000011DC9F8F4
:10867000001001784046FFF7D5FB641C90E76CE0E2
:10868000D9F800100A1DC9F800200968CDE900508A
:108690000A224046FFF768FCEFE7D9F800100A1DF0
:1086A000C9F8002009680A2206E0D9F800100A1D5E
:1086B000C9F8002009681022CDE90050404601F0B9
:1086C0006BF9DAE7D9F8001000270A1DC9F8002075
:1086D0000E68C00705D112E04046761C7F1CFFF7EC
:1086E000A1FB31780029F7D104E0202140466D1E1E
:1086F000FFF798FBBD42C0D9002DF6D1BDE74EB1C2
:108700003046FDF773FE074604E0202140466D1E0B
:10871000FFF788FBBD4206D9002DF6D103E04046A5
:10872000761CFFF77FFB31780029F8D1A5E7D9F84F
:108730000000011DC9F80010056830214046FFF710
:1087400071FB78214046FFF76DFB08200021CDE941
:108750000001034610222946B0E7BDE8FC8700006F
:1087600070B52028DDE9046502D24FF0A04402E094
:10877000074C00F01F0041EA420141EA830141EA4F
:10878000062104EB800041EA0541C0F8001770BDE6
:108790000003005013B50C46684600F027F8009916
:1087A00000EB8101D1F8002722F44032C1F8002704
:1087B000009900EB8100D0F8001741EA0441C0F8AD
:1087C00000171CBD01B5684600F01EF8009A012193
:1087D0009140C0F80C1508BD01B5684600F022F8BC
:1087E000009A01219140C0F80C1508BD01682029AC
:1087F00002D24FF0A040704701F01F010160014814
:1088000070470000000300500168202902D24FF099
:10881000A040704701F01F0101600148704700004F
:10882000000300500168202902D24FF0A040704799
:1088300001F01F0101600148704700000003005073
:1088400001B56846FFF7E0FF009A01219140C0F8AA
:10885000081508BD01B56846FFF7E4FF009A01213D
:108860009140C0F8081508BD1CB5094C0144D4E975
:108870000034CDE900346C4606E000BF54F82030E7
:10888000D3F81035401C08C28142F7D81CBD000047
:10889000949A0200034908B5084400210160006869
:1088A000009008BD0060004002494058012800D0F7
:1088B000002070470060004030B5154A0146002096
:1088C000D2F8104423460AE0DB681D79854205D1C1
:1088D000401C0A28F6DB4FF0FF3030BD1B68002B30
:1088E000F2D1431CF9D0CB681871D2F8103443B1DF
:1088F000DB68CC681B682360D2F81024D268116052
:1089000030BDC2F81014C96800220A6030BD0000F2
:10891000F42E00207047FEF76BBB704708B5034A82
:1089200000924023024A00F005F808BDC5920200FB
:108930005C2D0020F0B595B01C4615460F46084644
:108940001A9E00F0EBFA182109A8FDF744FD0E96D7
:10895000CDE909540023082203A9384600F0F3FAB0
:1089600005980690BDF81000ADF81C00BDF8120087
:10897000ADF81E0000208DF821000398082600F0B5
:108980000300012802D0022818D032E003983346B1
:10899000850AC0F3C2008DF8200003980FA9C0F328
:1089A0008314A200384600F0CEFA09A8009006AB66
:1089B00022460FA9284600F00DFA1AE00398840D0C
:1089C000C0F3C2008DF82000082C01D2254600E03B
:1089D000082533462A460FA9384600F0B4FA2E443B
:1089E000641B09AB06AA29460FA800F051F9002C18
:1089F000EAD1384600F098FA15B0F0BD0A4A0129CC
:108A000002EBC00007D0022907D0032907D00429B0
:108A100007D000207047022070470420704700797B
:108A20007047407970470000B0A4020010B5FFF70E
:108A300072FF04210348FFF73FFF02490120C96884
:108A4000487110BDA0A402002DE9F0478CB0FFF7DB
:108A5000F9F918B100200CB0BDE8F0877D4C00207A
:108A6000C4F81804BFF34F8F60680290A5684FF0F8
:108A70000008284004EB80000CE000BFD4F8180484
:108A800070B921680298814201D86160E2E728400C
:108A900004EB80000C3002A9FFF7B9FA0028EDD1F1
:108AA000002003AA029901EA050304EB8303491C91
:108AB000DB6842F82030401C02910228F2D3039870
:108AC00000F00300022802D001284DD0A7E003984F
:108AD0005022810D8946B2EB905F00D850210E469E
:108AE00066F39F50039008315B4800F0CEF9070011
:108AF00078D000F013FA4346082203A9384600F064
:108B00002AFA029908F1080A2940681A8000001D13
:108B1000864222D94F4D0C3530B1C2B204EB8101EF
:108B2000301A90460C3104E02946F2B200259046F6
:108B30002846C6B25346384600F00DFA0AEB080341
:108B400025B132462946384600F005FA029909F166
:108B5000030001EB900002903BE004EB81015346DF
:108B6000324638460C31EFE70398C0F383100628ED
:108B700000D30620039960F38911C1F38310801C90
:108B800003918100344800F080F9070047D000F0DD
:108B9000C5F94346082203A9384600F0DCF908F17C
:108BA000080800260FE00298434600EA0501401C31
:108BB00004EB81010290042238460C3100F0CBF91D
:108BC00008F10408761C0398C0F38310B042EAD879
:108BD00047B1D4F81054D4F8180478B1384600F0EE
:108BE000A3F931E01BE0E8684079012804D12A6844
:108BF0002846394612689047E8680568002DF2D18A
:108C0000384600F091F90020FFF7B1F8D4F81804C5
:108C100008B9029860600020FFF7ABF814E0D4F8C0
:108C2000104405E02168204689688847E0680468A8
:108C3000002CF7D109480A49401AC008022101EB6B
:108C4000004008A100F018F8FFF7FCF880F00100E0
:108C500001E70000F42E0020E8A40200E0A40200D6
:108C6000B0A402004261636B656E647320666C752C
:108C7000736865640000000000231A4600F04ABBD8
:108C800008B5012300926A4600F044FB08BD0000CD
:108C90002DE9F0470E4680461C46924608293ED8EC
:108CA00094F80C90002020731946104600F094FAB6
:108CB0000025B54206D218F805201AA12046FFF774
:108CC00048FC03E019A12046FFF743FC6D1C082D6A
:108CD000EFD317A12046FFF73CFC0025B54210D288
:108CE00018F80570FDF75AFB0068C05D10F03E0FE4
:108CF00001D03A4600E02E220EA12046FFF729FCC3
:108D000003E00DA12046FFF724FC6D1C082DE5D3E0
:108D100001222146504600F041FA84F80C90BDE84B
:108D2000F08700002025303278000000202020004D
:108D30007C00000025630000200000000B4810B5F7
:108D4000FF218160002101604160C0F81814C0F863
:108D5000141480F82014064800F0E4F8002803D129
:108D6000044800F000F9002010BD0000F42E00209F
:108D7000E8A40200F89A020002480349401AC00819
:108D800070470000E8A40200B0A4020013B56846D2
:108D9000FFF718FB08B100201CBD0248009950F8ED
:108DA00031001CBDB0A4020070B509480125D0F8FF
:108DB000104480F8205407E0E0684571216820469F
:108DC00049688847E0680468002CF5D170BD000050
:108DD000F42E00202DE9FF4781460C9D00200C4613
:108DE0002F7B2873984616462946184600F0F4F95A
:108DF000072E42D2DFE806F004090F161F2A3600BC
:108E000049462846FFF7A5FB37E049462846226831
:108E1000FFF79FFB31E0D4E9002349462846FFF7DE
:108E200098FB2AE0A0680090D4E900234946284630
:108E3000FFF78FFB21E0D4E90201CDE90001D4E97D
:108E4000002349462846FFF784FB16E004F108009A
:108E500007C88DE80700D4E9002349462846FFF7F4
:108E600078FB0AE004F108000FC88DE80F00D4E990
:108E7000002349462846FFF76CFB0022294640465E
:108E800000F08CF92F73BDE8FF872DE9F041058ACA
:108E900080462D1F4819C01CB0FBF5F0C6B24046F5
:108EA000FFF7D2FA041E19D0002020710120607152
:108EB000E58000272546761EC4F800800BE040467A
:108EC000FFF7C2FA60B16179491C617128600546FB
:108ED0007F1CC0F80080B742F1D32046BDE8F08186
:108EE000204600F002F80020F8E72DE9F04145792E
:108EF00001466B1E002201E00968521C9A42FBD316
:108F00000F680146002605E038460C68FFF7BBFAFB
:108F10002146761CAE42F7D3BDE8F0810121001D49
:108F2000FFF776BAFFF7C4BA10B504460121001D59
:108F3000FFF784FA10F0FF0F04D12046BDE810407F
:108F4000FFF7D3BF10BD1CB501920122009201AA08
:108F5000FFF7F8F91CBD1CB501920022009201AA8E
:108F6000FFF7F0F91CBD82680021916082681161F1
:108F7000826851618268D160826851608068016056
:108F800070474058002800D0012070474058002802
:108F900000D00120704708B5002242504058009090
:108FA00008BD0000002802D0014980010847704731
:108FB000A19A0200002802D00149800108477047A9
:108FC000C19A02000121B1EB507F01D1012070470D
:108FD0000020704770B50D4600F04AF904000FD02C
:108FE0000020FEF7C4FE207920B10020FEF7C1FE6C
:108FF000112070BD0120256020710020FEF7B9FE10
:10900000002070BD0179006801EB810202EBC10113
:10901000044A02EB81010622C0F80025022081F8F3
:109020002D0070471C2C00202DE9FC4106460079DC
:1090300017460D4600EB8001324A01EBC00102EBFE
:109040008104984694F82D1011B10820BDE8FC81E8
:109050002D4951F820103068FFF7BCFF08B11120EE
:10906000F4E7C4E900780027A76084F8307084F83A
:109070002F70687B84F832004FF00608CDE9008736
:1090800003233A4639462868FFF76AFBCDE9008793
:109090000022032311466868FFF762FBD5E900123E
:1090A0003068C0F80815C0F80C25A968C0F8241568
:1090B0002168012009B331682A7B41F30731002977
:1090C0004FEA421206DA01F00F0101F1E02181F8C6
:1090D000142D03E001F1E02181F80024316841F30F
:1090E000073101F01F0300FA03F24909890001F179
:1090F000E021C1F88022C1F8002184F82D00002071
:10910000A4E700001C2C0020A89A0200F0B585B04E
:1091100015460E4607461C46142207496846FDF7C9
:1091200041F98DF8016000226946384603950194A3
:1091300000F020F805B0F0BDAC9A02002DE9F04136
:1091400086B00E4680461C461546142168460C9F84
:10915000FDF741F98DF80160039501940FB12022CC
:1091600000E000226946404600F004F806B0BDE881
:10917000F081000030B40379006803EB830404EB52
:10918000C303054C04EB830413460A4601462046FC
:1091900030BC00F0E5BA00001C2C002010B50C46D5
:1091A000017A052908D0407A38B1084808A1026838
:1091B0002046FFF7CEF900E01AB106A12046FFF7DE
:1091C000C8F92046BDE81040FFF7D0B9642B002055
:1091D000257300000D0A000038B5C3880D4604460B
:1091E00033B114A0009015A216A12846FFF7B1F9DB
:1091F000217A05291CD0607A48B1A088FFF7FEFBD0
:10920000164951F8202016A12846FFF7A2F9A08898
:109210000021FFF7BBFD03461049207A143951F8AD
:10922000202001B02846BDE830400EA1FFF791B9DB
:1092300038BD00001B5B306D000000001B5B313B44
:1092400033316D0025734C6F67732064726F7070DB
:109250006564202825642925730D0A00642B0020ED
:10926000257300003C25733E2025733A2000000042
:109270000349884201D1034870470020704700002D
:1092800000200040FC2A002070B5012670044FF039
:10929000E0210025C1F88001084C4010C4F84803C3
:1092A000C4F8080366602F20FFF784FEA660044C14
:1092B0002F20A560FFF77EFEA57070BD0010014055
:1092C000142B00202DE9F0411400884618D0002509
:1092D0000E4F032608EB050122460020FDF78AFE0B
:1092E0000544241A40B93878002809D008494FF4B9
:1092F0007A408847761E05D001203870002CE9D1CD
:10930000BDE8F08100203870FAE700002C2B002027
:10931000F19A02002DE9F84F204D92468946064603
:109320009846012269461846AF68FEF737FD58B3E4
:10933000009800210446801C09E000BF00EA0703F2
:109340005AF8212005EB8303401C491CDA60414593
:10935000F4D34FEA164AFEF7DDFD4AEA0041601CED
:10936000384005EB80003C4005EB8402C160D068CA
:1093700066F3C50068F3891069F39F2020F00300AD
:10938000401C20F00400D06095F8200402E000BFEB
:10939000FFF75AFB0028FBD1BDE8F88FF42E002020
:1093A0002DE9F84F1D4C00256846D4E901A6FEF7CB
:1093B000BBFD002738B30023009A61681CE0D1F898
:1093C00000C00846944503D9ACEB02020A6015E0E0
:1093D000A2EB0C0263440760D0F80CC0C16981465F
:1093E000BCF1000F08D006EB030828F07F48C0E965
:1093F000018CC9F81C5005460029E0D1284661605F
:10940000FEF720FE03E02846FEF71CFE10B1504692
:10941000FEF72AFDE770BDE8F88F0000142B00204E
:109420000D4B10B5596831B102680C68A24204D8DE
:10943000A21A0A60C161586010BD0B4603E00B46DA
:10944000C969121B21B10C689442F8D3A41A0C60AC
:109450000260C161D86110BD142B00202DE9F041DC
:10946000144E77683D462C4603E0844204D02546DE
:10947000E469002CF9D11BE0D4B1A5420BD1F86905
:10948000706040B90C49012088600021B160F07023
:109490002F20FFF78FFD2168E069E86110B10268B5
:1094A000114401607068874202D00120BDE8F0815C
:1094B0000020FBE7142B0020001001402DE9F041B3
:1094C000194D6C68002C2CD0184800270068A9683A
:1094D000B846401A20F07F462068B0420CD821469A
:1094E000361A0744E469087C20B181F81080886945
:1094F00049698847002CEFD129786878814206D1E4
:10950000401CC0B26870022801D185F8018006486D
:1095100069780C3040F82170BDE8F0411420FDF767
:10952000D2BBBDE8F0810000142B002004150140DF
:1095300038B5044640F20C602168890001F1A04171
:10954000C1F800076168890001F1A041C1F8000776
:109550002068FFF77FF96068FFF77CF9216840F227
:109560000D60890001F1A041C1F800076168890020
:1095700001F1A041C1F800070420FFF713FD002509
:10958000606800906846FFF74DF9D0F81005009923
:10959000C84010F0010F02D0002D1AD00EE0206854
:1095A000FFF71AF90420FFF7FDFC2068FFF752F9D6
:1095B0000420FFF7F7FC6D1C092DE1DB6068FFF765
:1095C0000BF90420FFF7EEFC6068BDE83840FFF7B8
:1095D00041B938BD1FB50A4601788DF800100179F0
:1095E0008DF8041041798DF80510017A8DF8061078
:1095F000017B8DF8071001690291406903900448CE
:1096000050F82210083850F82220684690471FBDB5
:109610000C2B00202DE9F04F0D464FF4927887B0C7
:1096200004464146FFF7B2FC4FF0020B01264FF40F
:10963000827740B141462046FFF7ADFC39462046CF
:10964000FFF7A4FCC0B34FF482712046FFF79EFCE5
:10965000DFF808810100EA4605F10C094FF0000728
:109660003ED04FF482712046FFF795FC1422494604
:109670000AF10400FCF796FE95F82E0058B1287BFD
:10968000012827D0D4F84C050290287B022824D04A
:10969000D4F84C0503904FF4B0712046FFF77BFCE3
:1096A0004FF4AE712046FFF776FC95F83000A8B372
:1096B00095F82E0090BB37E0FFE7A868C4F80803D0
:1096C000C5F808B0A868C4F804032662666107B04C
:1096D000BDE8F08FD4F83C05D6E7D4F83C05D9E7CF
:1096E0004FF4A4712046FFF756FC287B68B14FF475
:1096F0000070C4F80002801CA860C4F80883A86841
:10970000C4F80403A6602662E1E7142249460AF180
:109710000400FCF747FE95F8300028B90020C4F893
:109720000002AF60C4F80883D4F8C404C4F8C404C9
:10973000810702D58DF8006006E0400702D58DF85C
:1097400000B001E08DF8007095F8300008B985F898
:109750002F70D5E9002168469047B8E702029C01C6
:109760002DE9F05F06461F4615460C464FF0000AED
:109770004FF0080B4FF48279D068FFF723FC0028E4
:109780007ED08348C4F8080396F82F0028B1B0684B
:10979000C4F804031120BDE8F09F780703D4F8064D
:1097A00001D4012000E0002086F82F001422294671
:1097B00006F10C00FCF7F6FDC7F3001086F8300048
:1097C0006878C4F888054FF482712046FFF7E3FB00
:1097D0004FF492712046FFF7DEFBF8074FF00108C7
:1097E00000D04046C4F85005B80701D5404600E017
:1097F0000020C4F84005287800286BD001287CD0D0
:1098000002284DD0032814D04FF0070A380704D49B
:109810002878032801D044F80B80306800286DD0E8
:10982000780702D54FF40070B060B068C4F8040344
:10983000ABE02869FFF7C6FB10B34FF48070C4F8A3
:1098400000026968E868C4F84405C4F848154FF494
:10985000A8712046FFF79FFB4FF4B0712046FFF739
:109860009AFB4FF4A4712046FFF795FBC4F82080C3
:10987000C4F808804FF4A8712046FFF787FB00E08A
:1098800026E00028F6D04FF4A8712046FFF783FBAE
:10989000A9682869C4F84405C4F848153D4815E08E
:1098A0006968E868C4F84405C4F848152869FFF7F2
:1098B00089FB68B12969A868C4F83415C4F838056B
:1098C0004FF48450C4F8000240F20220B0609DE7DB
:1098D000102060E7E9686868C4F84415C4F84805D2
:1098E000B8060FD54FF48070C4F800022948B06064
:1098F0004FF4A4794946204601E00CE01BE0FFF755
:109900004AFB05E04FF40070C4F80002801CB06010
:10991000C4F820807AE7E9686868C4F83415C4F8A8
:1099200038054FF48050C4F8000240F20220B060C5
:109930004FF0000BECE745464FF482774FF49278F6
:109940000BE041462046FFF721FB30B1414620465F
:10995000FFF721FB25626561B94649462046FFF7BE
:1099600015FB0028EDD0D4F8C404C4F8C4040021C9
:1099700086F82F1048B10321820701D548F2012152
:10998000400701D548F202218A46504603E700000D
:1099900002029C01000204002DE9F05F8346DDE92C
:1099A0000A4A994690460D460846012703E000BF43
:1099B000B0FBF8F07F1C4045FAD2B94500D94F46BC
:1099C0005FEACA7012D18CB15FEA8A7002D5B9F130
:1099D000000F01D0202607E0302605E0314658462A
:1099E000641EFEF71FFA0CB1A742F7D35FF0010621
:1099F000B9F1010F02D9A9F1010903E0B5FBF6F0B5
:109A0000404502D306FB08F6F2E7DFF83C9000BFC2
:109A1000B5FBF6F000FB165519F800105846FEF796
:109A200001FAB6FBF8F6002EF2D15FEACA7009D04F
:109A3000002C07D0A74205D220215846641EFEF70D
:109A4000F1F9F5E7BDE8F09FC69A020030B51C4673
:109A5000B3B013460546C72C02D9012033B030BD40
:109A60008DF80410224619460DF10500FCF79AFC0A
:109A70000020641C0090E3B201AA29460448FEF7C6
:109A800061FD041E01D0FEF767F960B2E6E7000051
:109A9000189B02000000005000030050000000006E
:109AA0000338FDD870470000A570020001000000D7
:109AB00000000000000000000000000000000000A6
:109AC0000338FDD8704730313233343536373839C2
:109AD00041424344454600001D8902001B890200A3
:109AE00015890200000000000000000000000000D6
:109AF0000338FDD8704700005C2E00207F00000076
:109B0000DC2E00200000000000000000000000002B
:109B10000338FDD8704700000100000000400040FD
:109B20000000000001000000020000001F00000013
:109B3000000098010200000000000000000000008A
:109B4000002F000000000700070000147F147F149E
:109B500000242A7F2A120062640813230036495524
:109B6000225000000503000000001C2241000000FC
:109B700041221C000014083E08140008083E080892
:109B8000000000A0600000080808080800006060ED
:109B90000000002010080402003E5149453E00002C
:109BA000427F4000004261514946002141454B310E
:109BB000001814127F10002745454539003C4A49DA
:109BC000493000017109050300364949493600064C
:109BD0004949291E000036360000000056360000B4
:109BE000000814224100001414141414000041222F
:109BF000140800020151090600324959513E007C07
:109C00001211127C007F49494936003E41414122F0
:109C1000007F4141221C007F49494941007F0909D9
:109C20000901003E4149497A007F0808087F000089
:109C3000417F4100002040413F01007F0814224144
:109C4000007F40404040007F020C027F007F0408FC
:109C5000107F003E4141413E007F09090906003E58
:109C60004151215E007F0919294600464949493181
:109C70000001017F0101003F4040403F001F2040A4
:109C8000201F003F4038403F006314081463000762
:109C90000870080700615149454300007F414100B9
:109CA00000552A552A55000041417F000004020159
:109CB0000204004040404040000001020400002037
:109CC00054545478007F4844443800384444442075
:109CD00000384444487F00385454541800087E0922
:109CE00001020018A4A4A47C007F080404780000EA
:109CF000447D4000004080847D00007F10284400A7
:109D00000000417F4000007C04180478007C0804B7
:109D1000047800384444443800FC242424180018F3
:109D2000242418FC007C08040408004854545420DF
:109D300000043F444020003C4040207C001C204068
:109D4000201C003C4030403C004428102844001CAB
:109D5000A0A0A07C004464544C44141414141414A3
:109D600000000000000000000000000000000000F3
:109D7000000000F800000000000000333000000088
:109D800000100C06100C060000000000000000008F
:109D900040C07840C0784000043F04043F04040001
:109DA000007088FC08300000001820FF211E000011
:109DB000F008F000E018000000211C031E211E0026
:109DC00000F00888700000001E21232419272110AC
:109DD00010160E000000000000000000000000004F
:109DE000000000E0180402000000000718204000F6
:109DF00000020418E00000000040201807000000E6
:109E0000404080F0804040000202010F0102020049
:109E1000000000F0000000000101011F010101002D
:109E2000000000000000000080B070000000000092
:109E3000000000000000000000010101010101011B
:109E400000000000000000000030300000000000B2
:109E50000000000080601804006018060100000087
:109E600000E010080810E000000F102020100F0084
:109E7000001010F8000000000020203F202000000B
:109E80000070080808887000003028242221300063
:109E900000300888884830000018202020110E006B
:109EA0000000C02010F8000000070424243F240014
:109EB00000F80888880808000019212020110E00E9
:109EC00000E0108888180000000F112020110E00FB
:109ED00000380808C83808000000003F00000000F3
:109EE0000070880808887000001C222121221C00B4
:109EF00000E010080810E0000000312222110F00DD
:109F0000000000C0C0000000000000303000000071
:109F100000000080000000000000806000000000E1
:109F200000008040201008000001020408102000FA
:109F30004040404040404000040404040404040045
:109F400000081020408000000020100804020100DA
:109F5000007048080808F0000000003036010000DA
:109F6000C030C828E810E0000718272423140B008D
:109F70000000C038E0000000203C23020227382007
:109F800008F8888888700000203F202020110E00EB
:109F9000C0300808080838000718202020100800E2
:109FA00008F808080810E000203F202020100F00CB
:109FB00008F88888E8081000203F20202320180097
:109FC00008F88888E8081000203F200003000000FF
:109FD000C03008080838000007182020221E0200A0
:109FE00008F808000008F808203F210101213F205F
:109FF000000808F8080800000020203F202000008A
:10A0000000000808F8080800C08080807F00000079
:10A0100008F888C028180800203F200126382000B2
:10A0200008F8080000000000203F20202020300019
:10A0300008F8F800F8F80800203F003F003F200033
:10A0400008F830C00008F808203F200007183F003B
:10A05000E01008080810E0000F10202020100F006A
:10A0600008F808080808F000203F2101010100005D
:10A07000E01008080810E0000F18242438504F00A2
:10A0800008F8888888887000203F2000030C302062
:10A0900000708808080838000038202121221C00A0
:10A0A000180808F8080818000000203F20000000E9
:10A0B00008F808000008F808001F202020201F00D2
:10A0C0000878880000C83808000007380E01000032
:10A0D000F80800F80008F800033C0700073C0300FC
:10A0E000081868808068180820302C03032C302062
:10A0F0000838C800C83808000000203F20000000D1
:10A1000010080808C8380800203826212020180028
:10A11000000000FE020202000000007F40404000FC
:10A12000000C30C000000000000000010638C00034
:10A1300000020202FE000000004040407F000000DC
:10A140000000040202020400000000000000000001
:10A1500000000000000000008080808080808080FF
:10A1600000020204000000000000000000000000E7
:10A1700000008080808000000019242222223F20DD
:10A1800008F8008080000000003F112020110E0020
:10A190000000008080800000000E112020201100AF
:10A1A000000000808088F800000E112020103F2061
:10A1B0000000808080800000001F222222221300E5
:10A1C000008080F0888888180020203F2020000030
:10A1D0000000808080808000006B949494936000E5
:10A1E00008F8008080800000203F210000203F20F0
:10A1F00000809898000000000020203F20200000F0
:10A20000000000809898000000C08080807F0000DF
:10A2100008F8000080808000203F24022D302000BC
:10A22000000808F8000000000020203F2020000067
:10A230008080808080808000203F20003F20003F81
:10A240008080008080800000203F210000203F208F
:10A250000000808080800000001F202020201F0040
:10A26000808000808000000080FFA12020110E006F
:10A270000000008080808000000E112020A0FF8060
:10A28000808080008080800020203F21200001000D
:10A290000000808080808000003324242424190062
:10A2A000008080E0808000000000001F202000006F
:10A2B0008080000000808000001F202020103F20B0
:10A2C000808080000080808000010E300806010040
:10A2D00080800080008080800F300C030C300F00E5
:10A2E00000808000808080000020312E0E31200010
:10A2F000808080000080808080818E701806010040
:10A3000000808080808080000021302C222130005D
:10A3100000000000807C020200000000003F40407E
:10A3200000000000FF00000000000000FF0000002F
:10A330000002027C800000000040403F000000005E
:10A3400000060101020204040000000000000000F9
:10A350000040404040404040404041414141414038
:10A3600040404040404040404040404040404040ED
:10A37000400502020202020202020202020202027C
:10A380000220202020202020202020020202020281
:10A3900002029090909090901010101010101010D9
:10A3A00010101010101010101010101002020202E5
:10A3B0000202888888888888080808080808080829
:10A3C0000808080808080808080808080202020225
:10A3D0004000000051A302007761726E696E670051
:10A3E00064656275670000001B5B313B33306D00B4
:10A3F0001B5B306D000000001B5B313B33316D0097
:10A400001B5B313B33326D001B5B313B33336D00E3
:10A410001B5B313B33346D001B5B313B33356D00CF
:10A420001B5B313B33366D001B5B313B33376D00BB
:10A43000696E666F000000006572726F7200000046
:10A440004750494F54450000505253005350494D16
:10A450000000000055415254000000005541525484
:10A46000450000005457494D000000007274745FAD
:10A470006C6F675F6261636B656E64006170700032
:10A48000FCA40200E82A0020A4000000F8730200E7
:10A49000A0A502008C2B0020142A000008740200E2
:10A4A000D89A0200000000006CA40200302B0020AB
:10A4B00040A402000000000048A4020000000000C8
:10A4C0004CA402000000000054A4020000000000A0
:10A4D0005CA402000000000064A402000000000070
:10A4E0007CA4020000000303402B0020382B002036
:10A4F000402B00209C2D00201800000000000000D0
:10A500005400803F540000407E00404032B74A4231
:10A51000000000000000000000000000000000003B
:10A52000000000000000000000000000000000002B
:10A53000000000000000000000000000000000001B
:10A540000000000000000000FF000000000000000C
:10A5500000000000000000000000000000000000FB
:10A56000000000000000000038A40200D8A3020090
:10A5700030A40200E0A30200F0A30200E8A302005E
:10A58000F8A3020000A4020008A4020010A4020024
:10A5900018A4020020A4020028A402000090D00306
:040000050002620192
:00000001FF
