:020000040000FA
:10000000F8320020C1030000C9030000CB03000048
:10001000CD030000CF030000D1030000000000006A
:10002000000000000000000000000000D3030000FA
:10003000D503000000000000D7030000D903000032
:10004000C10D0000DB030000FD130000DB03000016
:10005000DB030000DB030000850A00003D0E00000A
:10006000DB030000DB030000DB030000DB03000018
:10007000DB030000DB030000DB030000DB03000008
:10008000DB030000190E0000DB030000DB030000AF
:10009000E10F0000DB030000E50F0000DB030000C0
:1000A000DB030000DB030000DB030000DB030000D8
:1000B000DB030000DB030000000000000000000084
:1000C000DB030000DB030000DB030000DB030000B8
:1000D000DB030000DB030000DB0300000000000086
:1000E0000000000000000000000000000000000010
:1000F0000000000000000000000000000000000000
:1001000000000000000000000000000000000000EF
:1001100000000000000000000000000000000000DF
:1001200000000000000000000000000000000000CF
:1001300000000000000000000000000000000000BF
:1001400000000000000000000000000000000000AF
:10015000000000000000000000000000000000009F
:10016000000000000000000000000000000000008F
:10017000000000000000000000000000000000007F
:10018000000000000000000000000000000000006F
:10019000000000000000000000000000000000005F
:1001A000000000000000000000000000000000004F
:1001B000000000000000000000000000000000003F
:1001C000000000000000000000000000000000002F
:1001D000000000000000000000000000000000001F
:1001E000000000000000000000000000000000000F
:1001F00000000000000000000000000000000000FF
:10020000DFF80CD000F0B6FB004800478942000040
:10021000F832002030B450E8012F93B2C48923444F
:100220008489A34228BF1B1B0489A34202BFBFF3DA
:100230002F8F002007E0C3EA020340E80134002CBE
:10024000E9D14FF001000A6030BC704750E8012F3F
:10025000C2EA024240E801210029F7D1704730B4D8
:1002600050E8022F1FFAA2F3C488A34202BFBFF3D3
:100270002F8F00200DE0C48923448489A34228BF26
:100280001B1BC2EA034340E80234002CE8D14FF0C4
:1002900001000A6030BC704750E8022FC2EA2242D7
:1002A00040E802210029F7D17047034653E8022FA6
:1002B000D988B2EB324F4FF0000017BF92B241EA3B
:1002C000014142EA014104E05A68B2EB324F08BFF3
:1002D000012043E80212002AE8D1704730B40446F6
:1002E00054E8000F0D4644E80053002BF8D1156088
:1002F00030BC704730B4044654E8000F40EA0105B2
:1003000044E80053002BF7D1156030BC704730B47F
:10031000044654E8000F00EA010544E80053002BAE
:10032000F7D1156030BC704730B4044654E8000F74
:1003300080EA010544E80053002BF7D1156030BC7A
:10034000704730B4044654E8000F00EB010544E860
:100350000053002BF7D1156030BC704730B4044611
:1003600054E8000FA0EB010544E80053002BF7D13F
:10037000156030BC704770B404464FF0000054E87C
:10038000006F0D68AE4207BF44E80023012044E837
:1003900000630E60002B1CBF0020F0E770BC7047AC
:1003A00030B4044654E8000F88422CBF451A054675
:1003B00044E80053002BF5D1156030BC70470000B5
:1003C0000648804706480047FEE7FEE7FEE7FEE7EF
:1003D000FEE7FEE7FEE7FEE7FEE7FEE7E1100000CE
:1003E000010200002DE9F05F0546002092469B4681
:1003F00088460646814640241BE02846414647463B
:10040000224600F004F953465A46C01A914110D3CF
:1004100011461846224600F016F82D1A67EB01081F
:100420004F4622460120002100F00DF817EB00098D
:100430004E41201EA4F10104DFDC484631462A4625
:100440004346BDE8F09F202A04DB203A00FA02F17F
:10045000002070479140C2F1200320FA03F31943B2
:100460009040704700487047388A000040EA010316
:100470009B0703D009E008C9121F08C0042AFAD25A
:1004800003E011F8013B00F8013B521EF9D270471E
:10049000D2B201E000F8012B491EFBD270470022C6
:1004A000F6E710B513460A4604461946FFF7F0FF73
:1004B000204610BD421C10F8011B0029FBD1801AF8
:1004C000704730B504460020034600E05B1C9342B1
:1004D00003D2E05CCD5C401BF8D030BD2DE9FE4F6F
:1004E00081EA030404F0004421F0004100944FF03D
:1004F000000B23F0004350EA01045ED052EA0304EB
:100500005BD0C3F30A54C1F30A552C44A4F2F3346C
:100510000194A0FB0254C1F3130141F48011C3F311
:10052000130343F4801301FB024400FB034E840ACF
:10053000970A44EA815447EA8357A4FB0768029567
:100540008D0A05FB07854FEA932C04FB0C54270505
:10055000029D4FEA065847EA1637B5EB08056EEBE1
:10056000070C870E920E47EA811742EA8312A7FB17
:100570000201B6EB0B0164EB00042B0D43EA0C33D4
:100580005E1844EB1C50DA465146E7FB0201C5F306
:1005900013044FEA0B3343EA14534FEA0432019C2D
:1005A00043EA0603A4F10C040294009CCDE900B4D4
:1005B00000F04CF803B0BDE8F08F00200146F9E7E9
:1005C0000EB5C10F80EAE0700844CA07002140F26E
:1005D00033438DE80E000A460B4600F037F803B0AF
:1005E00000BD30B50B46014600202022012409E061
:1005F00021FA02F59D4205D303FA02F5491B04FADC
:1006000002F52844151EA2F10102F1DC30BD202ABA
:1006100004DB203A21FA02F00021704721FA02F3AC
:10062000D040C2F12002914008431946704710B5EE
:10063000141E73F1000408DA401C41F10001921805
:100640005B411A4301D120F0010010BD2DE9F04DAE
:1006500092469B4611B1B1FA81F202E0B0FA80F203
:1006600020329046FFF7EFFE04460F4640EA0A00AC
:1006700041EA0B0153465A46084313D0114653EA48
:10068000010019D0C8F140025046FFF7C0FF0546EF
:100690000E46504659464246FFF7D5FE084305D060
:1006A000012004E020463946BDE8F08D00200543D6
:1006B00046EAE0762C4337430A986305E40AA0EB48
:1006C00008000022FD0A44EA47540A3002D50020FF
:1006D0000146E9E7010510196941DDE908450019FE
:1006E0006941BDE8F04DA2E72DE9FE4F804681EA61
:1006F0000300C00F0C46009021F0004123F000459C
:10070000B8EB0200A94105D24046214690461C465E
:100710000B46024623F00040104347D0270DC7F395
:100720000A00C3F30A510290401A019040286BDA84
:10073000C3F3130040F4801B0098924620B10023BD
:10074000D2EB030A63EB0B0B01985946C0F1400250
:100750005046FFF778FE06460D4650465946019A28
:1007600000F01AF910EB08006141002487EA1152E9
:1007700084EAE7731A4340D0009A62B3019A012ACF
:100780004FEA075215DC001B61EB02014FF00042FB
:1007900002EA0752CDE90042001C41F580113246C1
:1007A0002B46FFF753FF03B0BDE8F08F40462146CC
:1007B000F9E7001B61EB0201001C41F580130018F2
:1007C0005B412018A2F5001747EB030140EAD57002
:1007D000B6196D4111E06D084FEA360645EAC0755D
:1007E0004FEA0752001B61EB0201001C41F580112A
:1007F00049084FEA30000019514132462B4603B0F8
:10080000BDE8F04FFFF713BF00980122400000231E
:10081000D0EB020263EBE073009821464FEAE074EC
:10082000B8EB000061EB0401E9E783F000435BE70C
:1008300081F0004158E72DE9F04D81EA030404F00E
:10084000004B21F0004514464FF0000A23F0004110
:1008500050EA050220D054EA01021DD0C5F30A5720
:100860000246C5F31303C1F31300C1F30A5640F463
:10087000801543F48013A7EB0608101BD64608F238
:10088000FD3873EB050002D308F1010801E092186E
:100890005B41B8F1000F03DA00200146BDE8F08D9E
:1008A00000204FF48011064684460EE0171B73EBC0
:1008B000050705D3121B63EB050306434CEA010C45
:1008C00049084FEA300092185B4150EA0107EDD128
:1008D00052EA030012D082EA040083EA05010843C9
:1008E00005D0101BAB4106D20122002306E00022F6
:1008F0004FF0004302E06FF0010253101AEB0600C4
:100900004CEB085110EB0A0041EB0B01BDE8F04D38
:10091000FFF78DBEC1F30A52C1F3130140F2FF335A
:1009200041F480119A4202DA00200146704740F2F9
:1009300033439A42A2F2334202DC5242FFF767BECF
:10094000FFF781BD30B5041E71F1000404DB4FF0E8
:100950000044404264EB0101141E73F1000405DB06
:100960001C464FF00043524263EB0403994208BF18
:10097000904230BD064C074D06E0E06840F00103B0
:1009800094E8070098471034AC42F6D3FFF73CFCDC
:100990001099000030990000202A06DBCB17203A7E
:1009A00041FA02F043EAE07306E041FA02F3D04074
:1009B000C2F12002914008431946704770B58C1867
:1009C00010F8015B15F0070301D110F8013B2A1163
:1009D00006D110F8012B03E010F8016B01F8016B50
:1009E0005B1EF9D12B0705D40023521E0DD401F84C
:1009F000013BFAE710F8013BCB1A921C03E013F815
:100A0000015B01F8015B521EF9D5A142D8D3002049
:100A100070BD00001FB50B4800900B494FF480706B
:100A2000CDE9010103900723084A6946084801F00F
:100A3000ABFB002804D004B0BDE8104001F07ABA46
:100A40001FBD0000F4100020F41100205F7C0000A6
:100A50006801002010B5044604F006FAC82003F02F
:100A6000E9FD204604F0F1F9BDE81040C82003F08C
:100A7000E1BD10B5044604F0CFF92046BDE81040B2
:100A800004F0E3B92DE9F04700268AB0DFF8509171
:100A9000B0464FF48075012437460696284604F088
:100AA00009FA38B1D9F80403204203D0284604F0EB
:100AB000F7F926432D1D64007F1CADB2082FEDD33E
:100AC0004FF4BE74204604F0F5F948B1204604F016
:100AD000E7F946F0004606AA0121002004F0CCF90F
:100AE000404D16F0FF0F15D00127002437420DD0DE
:100AF00009EB8401D1F81005D1F81015C0F30420DA
:100B000055F82420C1F3014102B190477F00641CD5
:100B1000082CEBD3002E5FDA4FF0FF30CDF81080B9
:100B200054E0281910F8507F90F9000027F0C00811
:100B3000401C3BD007A9404603F05BFD10B34FEAD1
:100B40009719404601F0CCFF55F820701FB1B9F15C
:100B5000030F03D006E0B9F1030F27D104A94046E3
:100B600003F04FFD4FF0A04101EB8800D0F80007E3
:100B700006A9C0F3014A404603F03BFD18B1BAF1A3
:100B8000020F03D012E0BAF1030F0FD1B9F1030F36
:100B900008D1BAF1020F1DD00221404604F044F9F9
:100BA000761CF6B217B149464046B847641C042C7F
:100BB000B7D3002E10D06A460121002004F05CF962
:100BC00006990098884207D006900498002634467B
:100BD0000790A6E70321E0E70AB0BDE8F087000030
:100BE000006000406405002038B501F039FA04F0D7
:100BF000DBFE08B101F09EF91E481F4A69460068F5
:100C0000009003208DF801000D2004F065FE012105
:100C10000D2004F00FFE184A69460E2004F05CFE19
:100C200001210E2004F006FE134A69460F2004F04D
:100C300053FE01210F2004F0FDFD0F4A69461020EC
:100C400004F04AFE04460121102004F0F3FD01F0F7
:100C500007FA08B101F06EF9200001D001F06AF93D
:100C60000448064A0021001D01F0E8F904A000F044
:100C700025FC38BDA0890000910C00004D0D00003E
:100C800074696D657220637265617465640000004B
:100C900010B51D4C002020700D2004F0DDF880B947
:100CA0001AA000F00BFC1C48002240F2666140686C
:100CB00001F016FA19A000F001FC207840F00100C4
:100CC00020700E2004F0C8F830B917A000F0F6FB31
:100CD000207840F0020020700F2004F0BDF830B9F9
:100CE00014A000F0EBFB207840F0040020701020EE
:100CF00004F0B2F8002806D111A000F0DFFB207844
:100D000040F00800207010BD64010020627574740A
:100D10006F6E203100000000A089000074696D65CD
:100D20007220737461727400627574746F6E203215
:100D300000000000627574746F6E203300000000C4
:100D4000627574746F6E20340000000001A000F022
:100D5000B5BB000074696D657200000000F01F02F1
:100D6000012191404009800000F1E020C0F880128C
:100D7000704700F01F02012191404009800000F1FE
:100D8000E020C0F80011704700F01F0201219140DF
:100D90004009800000F1E020C0F8001270474907C8
:100DA000090E002806DA00F00F0000F1E02080F8BC
:100DB000141D704700F1E02080F800147047000017
:100DC00070B54FF48076304603F025FC114CB50524
:100DD00060B1304603F026FC0120C5F808036079B5
:100DE00020B9012060712168002088474FF4827685
:100DF000304603F010FC00280AD0304603F012FC05
:100E00000220C5F808032168BDE8704001200847AA
:100E100070BD00007800002007480021C0F8401194
:100E2000C0F84411C0F84811C0F84C11C0F80011C6
:100E3000C0F8041106F0B2BE001001402DE9FE43D7
:100E40004FF48278404604F05BFB4C4F00254C4C3D
:100E5000012600B3404604F05BFB94F82E0010B16D
:100E600094F82F10D1B18DF800506168019121895B
:100E7000ADF80810E26832B1218B61836260218194
:100E8000E56010B102E0257400E03E60216868462C
:100E9000884784F82F5094F82E0060B34FF4807781
:100EA000384604F02DFB30B3384604F031FB628B3A
:100EB00094F82D108A420AD9A2EB010080B2608317
:100EC0002289A2EB0000626802EB400005E007D136
:100ED000E06828B184F82F60658304F0FFFA04E02D
:100EE0008A4202D184F82F606583404604F010FBEB
:100EF0002248001D06604FF48877384604F000FB56
:100F000048B1384604F004FB257402208DF8000037
:100F10002168684688474FF48A77384604F0F0FA2B
:100F200028B1384604F0F4FA2574BDE8FE834FF08A
:100F300000484FF48C7967691DE000BFB7FA87F06D
:100F400028FA00F109EB80058F43284604F0D8FA0F
:100F500088B1284604F0DCFAA5F58C75E8088DF810
:100F6000040045F38000401C8DF800608DF80500FA
:100F7000216868468847002FE0D1D6E7007000401E
:100F80001006002070B50E46144900EB400001EB3E
:100F9000C0051446E86A183520B101280FD0022890
:100FA00005D113E0284600F02FFAA04201D2002418
:100FB00011E022463146284600F05EFA0BE0284652
:100FC00000F022FAA042F4D20446F2E73146284665
:100FD00000F025FA0446204670BD00003C0E0020BB
:100FE00006F02ABD04F032BB00B5354899B00DF1CA
:100FF0000C0C0EC88DE80E000EC88CE80E000EC852
:101000000DF1180C8CE80E000EC80DF1240C8CE8C4
:101010000E000EC80DF1300C8CE80E000EC80DF15C
:101020003C0C8CE80E000EC80DF1480C8CE80E004C
:1010300007C815AB83E8070021482249001F04F0C8
:1010400057FD08B100F076FF6946012004F00AFD63
:1010500008B100F06FFF03A9022004F003FD08B1FE
:1010600000F068FF06A9032004F0FCFC08B100F0C2
:1010700061FF09A9042004F0F5FC08B100F05AFF53
:101080000CA9052004F0EEFC08B100F053FF0FA9F5
:10109000062004F0E7FC08B100F04CFF12A907207D
:1010A00004F0E0FC08B100F045FF15A9082004F0A9
:1010B000D9FC002801D000F03DFF19B000BD0000B0
:1010C00040890000BD70000070B5044D044605EB7A
:1010D000440104F055FD35F9140070BDC410002022
:1010E000F0B5B5480023021D0178101D01254FF011
:1010F000805406290BD11678360708D10678C6F336
:101100000316032E06D0042E04D0052E02D0062985
:1011100007D00EE0B4F82463A84FC6F304263E605F
:1011200002E01678360704D10678C6F30316032EBC
:1011300002D0062904D00FE0A24FA14E7E670EE038
:101140001678360708D10678C6F30316032E06D0A4
:10115000042E04D0052E02D0062907D00EE0D4F8C4
:101160004462994FC6F342363E6002E01678360775
:1011700004D10678C6F30316032E02D0062906D042
:1011800011E0924E376827F0807737600EE01678CE
:10119000360708D10678C6F30316032E06D0042EB0
:1011A00004D0052E02D006290AD011E04FF0804667
:1011B000C6F80C31C6F81031834E361F336002E09A
:1011C0001678360704D10678C6F30316032E02D02C
:1011D000062905D00CE07C4F032664373E600AE008
:1011E0001678360704D10678C6F30316032E02D00C
:1011F00006290DD014E0764F05263E60744E7836F1
:101200003560734E083633603F263F1D3E6002E076
:101210001678360704D10678C6F30316052E02D0D9
:10122000062957D062E06B4E36686B4F3E60694EC0
:10123000361D36683F1D3E60664E083636683F1DD7
:101240003E60644E0C3636683F1D3E60614E10367F
:1012500036683F1D3E605F4E143636683F1D3E6067
:101260005C4E183636685C4F20373E60594E1C364F
:1012700036683F1D3E60574E203636683F1D3E6043
:10128000544E243636683F1D3E60524E283636682E
:101290003F1D3E604F4E2C3636683F1D3E604D4E22
:1012A000303636684C4F40373E604A4E34363668EA
:1012B0003F1D3E60474E383636683F1D3E60454E06
:1012C0003C3636683F1D3E60424E403636683F1D14
:1012D0003E6002E01678360708D10678C6F303169A
:1012E000032E06D0042E04D0052E02D0062907D0E6
:1012F00019E0D4F85812394A01F04F01116002E0A8
:10130000117809070FD10078C0F30310032803D028
:10131000042801D0052806D131480168C90702D048
:101320006FF001010160D4F83001062808D1D4F82B
:101330003401062804D12B48016841F48061016022
:1013400022487438016841F470010160BFF34F8F87
:10135000BFF36F8F4FF01021D1F80002002803DB9C
:10136000D1F80402002822DA1F4A15601F480468D9
:10137000002CFCD01524C1F800420568002DFCD0DB
:10138000C1F8044201680029FCD0136001680029FB
:10139000FCD0BFF34F8F0D48F0380168144A01F4B8
:1013A000E06111430160BFF34F8F00BFFDE71249B9
:1013B00010480860F0BD0000E00F00F0403501402B
:1013C0000DF0ADBA00C007403C050040FCED00E068
:1013D000105600400404001020C50040E40E0040F8
:1013E000000400403C17004004E5014000E40140D7
:1013F0000400FA050090D003800100200148006835
:1014000000470000800000200269C1688A4203D8BA
:101410008068401A104400E0501A401E70472DE9C1
:10142000F047C4681746894606464FF00008306901
:10143000A04201D9051B02E0B168201A0D1AB0685C
:101440006D1E001BA84200D80546BD4200D33D4694
:1014500070682A4620444946FFF708F8B0687F1BA9
:101460002C44A844A944A04200D10024F460002FD9
:10147000DDD14046BDE8F0872DE9F04104468846BD
:10148000D4E90207C51BE168606816460844B54206
:1014900006D94146FEF7EAFFB819E060BDE8F081E1
:1014A0002A464146FEF7E2FF761B08EB050132466D
:1014B0006068FEF7DBFFE660F0E700000FB4054B65
:1014C00010B503A9044A029800F0ECF810BC5DF8CE
:1014D00014FB0000A1310000E400002002E008C875
:1014E000121F08C1002AFAD170477047002001E09E
:1014F00001C1121F002AFBD17047000001212028E2
:1015000003DA81400548014003E0402802DA203830
:10151000814009B10120704700207047FC06FFBDE3
:101520002DE9FF5F82B00021DDE90430020DDDF816
:1015300040B0034318D044F61050A2F2FF324243A9
:101540001514119801281FD0A5EB0B00401C5FEA71
:10155000000A4FF000064E4FDFF83891B046504673
:1015600015D5CAF1000413E0119801244AA30128FB
:1015700001D16FEA0B010298119AC0E90031C0E96C
:10158000024206B0BDE8F09FCBF10000DFE7044661
:101590000021404A491842EB0450CDE9001012E006
:1015A000E00707D032463B4640464946FEF796FFE5
:1015B0008046894632463B4610461946FEF78EFF66
:1015C00006460F466410002CEAD1DDE90401DDE98E
:1015D0000023BAF1000F06DAFEF780FF42464B46C1
:1015E000FEF77CFF05E0FFF726F942464B46FFF782
:1015F00022F904460E460022284BFFF7A3F903D830
:101600004FF0FF30014607E00022254B20463146CF
:10161000FFF76AF8FFF77EF9102409E0002C0ADBD7
:101620000A220023FEF7DEFE039B30321A55641EA9
:1016300050EA0102F2D1641C039AC4F1110314446C
:10164000119A012A03D0012208430DD10AE0084370
:1016500004D000204FF0110B119072E7A3EB0B05A3
:101660006D1E0DE05B4504DD4FF0000205F1010544
:1016700004E003DA4FF00002A5F10105002AECD0E6
:1016800002981199C0E90231C0E9004579E70000EC
:10169000000014400000F03F300000000000F04364
:1016A0000000E03F2DE9FF4F95B09B468946064676
:1016B00000250FE2252877D100242746F84A01218A
:1016C000059400E0044316F8013F203B01FA03F0C3
:1016D0001042F7D130782A2811D06FF02F033078DC
:1016E000A0F13002092A16D8059A44F0020402EB50
:1016F000820203EB42021044761C0590EFE759F892
:10170000042B0592002A03DA504244F40054059059
:1017100044F00204761C30782E2816D116F8010FFA
:1017200044F004042A280DD06FF02F023078A0F185
:101730003003092B09D807EB870302EB4303C718D3
:10174000761CF3E759F8047B761C30786C280FD0B0
:1017500006DC4C2817D068280DD06A2814D104E084
:10176000742810D07A280FD10DE044F400140AE058
:1017700044F4801401E044F440147278824202D1AF
:1017800004F58014761C761C307866280BD013DCA8
:10179000582877D009DC002875D04528F6D046288F
:1017A000F4D047281AD19DE118E0632835D0642889
:1017B00079D0652812D195E1702873D008DC6728AC
:1017C000F1D069286FD06E280DD06F2806D1B5E012
:1017D00073282CD0752875D0782874D05A4617995C
:1017E00090476D1C75E1C4F30250022809D003280C
:1017F0000DD0D9F8001004280DD00D6009F10409AE
:1018000067E1D9F80010EA17C1E90052F6E7D9F804
:1018100000100D80F2E70D70F0E719F8041B8DF849
:10182000001000208DF80100EA46012003E059F87D
:1018300004AB4FF0FF3061074FF0000102D40DE020
:1018400008F101018846B9420FDA8045F8DB1AF841
:1018500008100029F4D108E008F10101884681420E
:10186000FADB1AF808100029F6D105985B46A0EBC0
:10187000080721463846179A00F094FA284400EBEE
:10188000080507E04DE029E10DE01AF8010B5A4682
:1018900017999047B8F10108F7D25B4621463846C0
:1018A000179A13E142E00A220092C4F302524FF069
:1018B000000A022A08D059F804CB032A4FEAEC7137
:1018C0000AD00DE029E02AE009F1070121F0070222
:1018D000F2E802C1914609E00FFA8CFC4FEAEC7184
:1018E000042A03D14FFA8CFC4FEAEC71002907DA85
:1018F0000A460021DCF1000C61EB02012D2202E01E
:10190000220504D52B228DF80420012203E0E207F2
:1019100001D02022F7E7904659E00A2102E0102288
:101920000DE010214FF0000A00910BE010224FF063
:10193000000A44F004040827009203E008224FF054
:10194000000A0092C4F30252022A05D059F804CBCF
:101950000021032A08D009E009F1070121F007025C
:10196000F2E802C1914605E01FFA8CFC042A01D17D
:101970000CF0FF0C4FF00008220728D5702806D085
:10198000009B83F0100353EA0A0305D00EE04022C7
:101990008DF80420012208E05CEA010206D0302222
:1019A0008DF804208DF8050002229046009B83F0FC
:1019B000080353EA0A030AD15CEA010201D1620773
:1019C00005D530228DF804204FF001087F1E5828DD
:1019D00004D034A003900EA802900DE036A0F9E7E1
:1019E00053466046009AFEF7FDFC84460398825CED
:1019F0000298401E029002705CEA0100F0D1029849
:101A000006A9081A00F1200A600702D524F48034E0
:101A100000E00127574502DDA7EB0A0000E00020A7
:101A200000EB0A01009005984144401A0590E0033C
:101A300006D45B462146179A059800F0B3F9054491
:101A4000002706E001A85A46C05D179990476D1C13
:101A50007F1C4745F6DBE0030CD55B462146179A11
:101A6000059800F09FF9054404E030205A46179984
:101A700090476D1C0099481E00900029F5DC08E095
:101A8000029802995A460078491C0291179990478A
:101A90006D1CBAF10001AAF1010AF1DC65E1000058
:101AA0000928010030313233343536373839616234
:101AB00063646566000000003031323334353637F8
:101AC00038394142434445460000000000F058F9CF
:101AD0000544761C307800287FF4ECAD19B0284618
:101AE000BDE8F08F620700D4062709F1070222F053
:101AF000070CFCE80223E14603F000485FEA080C0B
:101B000002D00FF2702C0DE05FEA045C02D50FF2F8
:101B1000682C07E05FEAC47C02D00FF2602C01E081
:101B2000AFF2700C4FF0FF3823F00043CDF850C0F7
:101B300065280CD006DC452809D046281DD047284A
:101B40003DD13DE0662818D067287ED138E00021DD
:101B5000112F01DB112000E0781CCDE9000106A95E
:101B60000EA8FFF7DDFCDDE90F010E9A03910021BD
:101B7000009207F1010A04914DE04FF000400097F8
:101B8000CDE9011006A90EA8FFF7CAFCDDE90F0296
:101B900003920E9B11990022DDF80CA00093049291
:101BA00011B9791C00EB010AB7EB0A0004D4C0F1AB
:101BB000FF3007F1010A0490AAEB0700019044E00E
:101BC000012F00DA01270021112F01DD112000E093
:101BD0003846CDE9000106A90EA8FFF7A1FCDDE912
:101BE0000F010E9A0391002104910092BA46210739
:101BF0000CD40399514500DA8A46BAF1010F05DD8C
:101C0000009AAAF10101515C302908D0B84202DAE9
:101C100010F1040F06DA0121CDE9011015E0AAF157
:101C20000101E9E7002805DC049901440491AAEBCD
:101C3000000102E0411C514500DD8A460499401A2A
:101C4000401C01904FF000400290200704D40198FE
:101C5000504501DBCDF8048000208DF84F0002983C
:101C60000DF14F07B0F1004F25D02B200E900298B8
:101C70004FF0020800280CDA404202902D200E900E
:101C800007E00A210298FEF7ACFC3031029007F819
:101C9000011DB8F10001A8F10108F2DC029800284A
:101CA000EFD1791E0E980870307800F0200040F0D7
:101CB000450007F8020D12A8C01B00F10708149890
:101CC000007800B1012000EB0A01019801EBE071FE
:101CD00005984144401A401E0590E00306D45B4637
:101CE0002146179A059800F05DF80544149800788D
:101CF00018B15A46179990476D1CE00324D55B46EE
:101D00002146179A059800F04DF805441CE0049808
:101D1000002807DBDDE90301884203DD0098405C11
:101D2000179901E0179930205A469047049805F119
:101D30000105401C04900198401E019004D12E2002
:101D40005A46179990476D1CBAF10001AAF1010A91
:101D5000DDDC05E017F8010B5A46179990476D1C1A
:101D6000B8F10001A8F10108F4DC5B462146179A9E
:101D70000598ABE62D0000002B00000020000000BD
:101D80002DE9F041044600251E461746880404D478
:101D900005E039462020B0476D1C641EF9D5284661
:101DA000BDE8F0812DE9F041044600251E4690462D
:101DB000C80301D5302700E02027880404D505E0BA
:101DC00041463846B0476D1C641EF9D52846BDE82B
:101DD000F08110B560B159B102780B785208B2EBBE
:101DE000530F05D10622401C491CFEF76AFB08B1BF
:101DF000002010BD012010BD800701D000207047D9
:101E000001207047C3688B4206D811440069491EFF
:101E1000814201D8012070470020704710B501228F
:101E20000221002000F07EFD08B1072810D1072212
:101E30000221012000F076FD08B1072808D1002119
:101E40000A22084600F06EFD08B1072800D10020E4
:101E500010BD70B58CB015460E4600236C46C3F11C
:101E60000F01415CE1545B1C102BF8D30D2104F1F0
:101E70001000FEF714FB0020C0F10F02315C224479
:101E8000401C11740328F7D3684646DF0020C0F1D8
:101E90000F01214491F820102954401C0328F6D347
:101EA0000CB070BD0149C97800F0AABB4C000020FD
:101EB00072B603F035FA00BF03F08EF80028FBD1AC
:101EC00011481249401AC408012000EB044010A137
:101ED00003F09CF911480068C00700D000BE022042
:101EE00000EB04400EA103F091F9BFF34F8F0B48B4
:101EF000E43801680E4A01F4E06111430160BFF368
:101F00004F8F00BFFDE70000E099000040990000FE
:101F1000466174616C206572726F7200F0ED00E0D2
:101F200053797374656D20726573657400000000E9
:101F30000400FA050EB500210091CDE901106A46B2
:101F400044F20100FFF7B4FF0EBD10B58268C3680C
:101F5000934203D001F0E1F8002010BD052010BD30
:101F600029B112B1531E134203D0092070470E202D
:101F700070470160838000218160C160084670471E
:101F800010B58268C3689A1A83889A4203D801F010
:101F9000CEF8002010BD042010BD00002DE9F84F40
:101FA000254C8146924660880E46814241D80027E2
:101FB0004FF6FF788DF80070684600F061F92278DE
:101FC0006078A188884201DA401C00E00020C0B29D
:101FD000904204D19DF8000000F076F927E0657882
:101FE0006078884201DA401C00E0002060709DF8B3
:101FF000000000F069F9454519D0A068B9F1000F5B
:1020000040F835A00DD066B16188E068324605FB26
:1020100001004946FEF72AFAA06800EBC500868059
:1020200002E000EBC50087800020BDE8F88F0420A7
:10203000FBE70920F9E7000088000020074B9B78A8
:1020400023B12AB120B10068037C1BB1082070477E
:10205000072070474174426100207047400600200D
:1020600070B5012670044FF0E0210024C1F8800112
:10207000174D4010C5F84803C5F808036E602F20BF
:1020800003F0D0FBAE60134D2F20AC6003F0CAFB11
:102090001148AC700B210470447081706C602C701E
:1020A0006C701420FEF75AFE04211420FEF777FE10
:1020B0001420FEF75EFE0948046004211120FEF79B
:1020C0006EFE0648001F0068A860002070BD00007A
:1020D0000010014098000020400600200815014033
:1020E0002DE9FC47DFF8789099F8023073B368B3B4
:1020F000052902D20720BDE8FC87436933B3437C3E
:10210000012B25D0002704460025884616468DF869
:102110000050684600F0B4F801A805F0AFFFC8B160
:10212000012101700F4944600968C0E90218C0E943
:1021300004769DF8040089F801009DF8000000F085
:10214000C3F81420FEF720FE2846D4E70820D2E783
:102150000F46D8E704259DF8000000F0B5F8F3E736
:1021600040060020041501400649897839B130B194
:10217000416921B100210174022105F0EBBC082066
:102180007047000040060020F0B5244E89B01F467D
:102190000D00044672603FD0A888296882B22048AA
:1021A000FFF7DEFE002835D1A889A96882B21C4855
:1021B0001030FFF7D5FE00282CD12022194968469F
:1021C000FEF754F960690690207C00B101208DF87B
:1021D00014008DF81C70607C00B10E208DF8150085
:1021E000E0680290A0680390206801906068009009
:1021F0000A480D4A6946083002F060FA002809D101
:10220000B0702068401C05D004490122491CC81D3B
:1022100002F088FA09B0F0BD0720FBE7E8000020D3
:10222000F80800205C880000717C000010B50146B1
:102230001048FFF7A5FE040019D10F480F4A017896
:10224000515C19B1001D03F04DFF02E00C3003F0AA
:1022500031FE60B9084907480839FFF776FE30B902
:10226000054901220839044802F06CFA0446204668
:1022700010BD000008090020F00000206C000020C4
:1022800030B5EFF3108172B60D4A9468012324B182
:102290000370002900D162B630BD93604FF0E02397
:1022A000D3F88051074C25401560C3F88041D3F81E
:1022B000844154605A17C3F8842100220270E8E771
:1022C0004C070020FC06FFBD0B498A68002A11D08C
:1022D00000280FD1EFF3108072B60B684FF0E022A8
:1022E000C2F800314B68C2F8043100228A6000282D
:1022F00000D162B6704700004C0700202DE9F04184
:10230000064608680C46411C4FF0A0474FF00105F7
:1023100006D005FA00F1C7F80815206802F068FD3C
:102320006068411C02D0002102F050FD3168A069B4
:10233000C1F82405607D227D31681043C1F86C0529
:10234000D4E900123068C0F81425C0F80C15207DBF
:10235000012815D1A068411C02D0002102F036FDF1
:10236000E068411C05D08540C7F80855E06802F0D8
:102370003FFDD4E902123068C0F80825C0F81015F6
:10238000BDE8F0812DE9F041064608680C46411C85
:102390004FF0A0474FF0010506D005FA00F1C7F84D
:1023A0000815206802F02EFD6068411C02D0002153
:1023B00002F015FD3168A069C1F82405607D217D1A
:1023C00032680843C2F86C05D4E900123068C0F8DE
:1023D0000C15C0F81425207D012815D1A068411CDA
:1023E00002D0002102F0FBFCE068411C05D08540D2
:1023F000C7F80855E06802F005FDD4E9021230681C
:10240000C0F80825C0F81015BDE8F08101F00CBE39
:102410002DE9F047814605884A484FF000088AB008
:1024200001784246284600F003F999F80500400774
:1024300001D4002176E005F58077B8B201AB012226
:10244000072103F08FFF04003F48404A4FF001018D
:10245000A0EB02004FEAD00001EB00460AD0204674
:1024600003F07CF9024630462B46394902F0D9FE8A
:10247000214629E0284601F041FB4FF6FF71044652
:1024800088422BD18A46029801F0A2FA04465045B0
:1024900010D00146284601F011FB2846FFF702FD47
:1024A000E0B9284604F078FF2846FFF7FBFC002837
:1024B000BFD013E004F0B4F80446504508D13046CC
:1024C00024A102F0A3FE0421284604F093FFB0E704
:1024D0000146284601F0F2FA4FF00108B8B2224650
:1024E000072103F0B7FF07001BD0862F1ED003F093
:1024F00035F9024630462B462349009402F099FEF6
:102500003946284604F076FF0021484603F066FE6F
:10251000B8F1000F02D0204601F0DAFA0AB0BDE8A7
:10252000F0870121484603F059FEF7E718221749C2
:1025300003A8FDF79BFFADF80E5003A800F048FD7F
:10254000EFE700004C000020809900004099000057
:1025500040900000436F756C64206E6F7420616C56
:102560006C6F63617465206E657720706565725F5E
:10257000696420666F7220696E636F6D696E672093
:10258000626F6E642E000000EC900000FC8500007D
:1025900010B5044600F06CF8002805D02146BDE8CF
:1025A0001040024801F0A4BF10BD0000040200204A
:1025B00070B515460E46044605F05AFD002809D0B0
:1025C000054800EB840080692A463146BDE870402A
:1025D00000F0CEBD70BD0000F401002070B50546CE
:1025E000002400F045F838B12946044801F080FF86
:1025F00008B1022400E00124204670BD0002002042
:1026000070B505460C46084605F032FD60B1284617
:1026100000F02EF840B10548294600EB8400BDE8E3
:102620007040183001F064BF002070BDF40100203C
:1026300070B5054614460E46084605F019FD0028FB
:1026400012D0284600F014F800280DD0074829467B
:1026500000EB860018301CB1BDE8704001F053BF9C
:10266000BDE8704001F004BF70BD0000F40100201F
:10267000142801D3002070470146014801F038BFFB
:10268000F801002010B51A4C0188606810290ED09E
:1026900011292BD1401E606028D1FFF7BFFB002815
:1026A00024D02168002921D0BDE810400847D0B9C6
:1026B00000210122084600F035F908B107280FD1A2
:1026C00007220221012000F02DF908B1072807D1C7
:1026D00004220221002000F025F920B1072802D0B1
:1026E000216801B188476068401C606010BD00002F
:1026F000000000202DE9F04701883B4E40F2F3191D
:102700004FF6FF7510291BD011293ED0122954D045
:10271000502946D1C188F289841D914241D16189F5
:1027200002293ED18688304601F07CFA050038D077
:1027300004F10C0000F0F2F8A8B3294630464EE050
:10274000C17B8788044601292BD1A846284601F081
:1027500069FA050017D02F800020287223484346CD
:102760004A460168C5F80A104068C5F80E0004F131
:10277000100105F10A0001F00DFB6872F0890028D4
:102780000FD129462AE0042013E0808801F04AFA9C
:10279000040006D06068FFF7E7FC08B104F00EFE05
:1027A0002580BDE8F087FFE76868FFF7DDFC0028BB
:1027B000F7D0BDE8F04704F001BE878806463846EA
:1027C00001F030FA0400ECD02B464A4606F108012D
:1027D00004F10A0001F0DEFA607221463846BDE8D5
:1027E000F04700F039BA0000D801002008000020AE
:1027F0002DE9F04F0746858802883D48012197B0B2
:102800008346102A09D0112A49D01A2A6CD1387A65
:10281000B1EB101F45D2012244E0354C083CA068C2
:10282000C0430B9061680BA801F083FE0B990CA8C4
:1028300000F0F2F92C220CA96846FDF717FE0026DD
:10284000E946A04610E000BF09EB46005FF0000437
:10285000B0F804A008EB84005146001D01F008FE0A
:10286000641C1D2CF6D3761C0098B042ECD8142DB5
:1028700005D317B00420BDE8F04FFFF75BBB294636
:10288000584601F040FE294608F1040001F03BFEE5
:10289000F87B012828D016482946001D15E0294656
:1028A0001AE000220221B1EB101F01D2012600E044
:1028B00000260F49083901F11000041D294682B194
:1028C00001F021FE36B12946204617B0BDE8F04F91
:1028D00001F019BE2946204617B0BDE8F04F01F0BF
:1028E000C7BD01F0C5FDF5E717B0BDE8F08F0000EA
:1028F000FC01002010B504460748007800280AD0E3
:10290000204600F0D7FF204604F056FE2046BDE8E2
:10291000104000F03FBD10BD3C000020007800F0EA
:102920000100704770B50023042810D20D4D00EB54
:102930004004012A02D101290CD00022094E00EBEB
:102940004000304461B1012906D0022906D0072396
:10295000184670BD0E30C2B22A55F9E74270F7E74B
:102960008270F5E7980100202DE9F8430546861CA2
:1029700000208DF8000090460F464FF00109684690
:10298000FFF77EFC1B4C20683860D4E90001401A38
:10299000A16804F21C47081A0EE00121384601F034
:1029A000C2FD01F023FC0146384601F0BCFDD4E92C
:1029B0000001401AA168081A401C8642EDD8B8F1FF
:1029C000000F03D0052065F3891002E0062065F3AF
:1029D0009F50A2682168114004EB8101C860206803
:1029E000304420609DF80000FFF76EFC4846BDE8CB
:1029F000F8830000180A002030B482680468531C71
:102A00008360A154D0E901128A4202D330BC01F0A4
:102A1000B6BE30BC70470000034803C8814201D1F4
:102A20000120704700207047180A00201CB504469A
:102A300001F064F800236A46092103F067FD0528C8
:102A400005D10348012241792046FFF7F1FD1CBD65
:102A5000100000201CB50021009142F6A621ADF81F
:102A6000001001218DF80210034901AA09680191A3
:102A70006946A0DF1CBD00000885000005494FF035
:102A8000FF32082841F8202002D3084480F848206B
:102A90007047000064050020F0B54FF0FF3512B11B
:102AA0000023082601E008230C260C4C05E000BF9B
:102AB00054F823707F1C04D05B1CB342F8D3284623
:102AC000F0BD26185DB286F8305044F82310002A75
:102AD000F5D1E11881F84800F1E700006405002015
:102AE0000249084490F93000704700006405002056
:102AF00070B504464FF6FF750A462846AC4209D128
:102B00004FF480742146104601F0CDFC80B2A04203
:102B10000BD070BDFF2CFCD82146104601F0B3FC51
:102B200090F0010F01D0204670BD284670BD000016
:102B300070B5084C050009D010342168002907D071
:102B400008682060496828468847F6E70834F4E7B3
:102B500070BD000050050020054A012120B1012868
:102B600005D19170FFF7E4BF51700020FAE770477C
:102B7000500500202DE9F05F24484168002942D02B
:102B8000DFF88CB00E688146DBF8004087688078FB
:102B9000E11B21F07F45ED1CB0B9DFF878804FF4E0
:102BA0008030C8F84403C8F804031120FEF7D6F8B3
:102BB0001120FEF7DEF84FF0010AC8F800A02F2020
:102BC00002F030FE89F802A0B54200D23546104B23
:102BD000E8193C3320F07F401860DBF800105A46BB
:102BE000091B21F07F41001B20F07F40C91C81425E
:102BF00009D9106818602F2002F014FEBDE8F05FBC
:102C00001120FEF7C1B8BDE8F09F00009800002039
:102C1000041501400010014073B58CB00646002039
:102C200000900D9880B100246D4621460DA801F05A
:102C30005FFC30B1009805EB400084800098401C98
:102C40000090641C142CF0D32C2269463046FDF70A
:102C50000DFC0EB070BD000038B54A7A0F4B62B162
:102C600000220A725969002906D001228DF800203D
:102C7000ADF802006846884738BD0A7A62B19B68A1
:102C80004C68024619462046FFF72AFA0028F3D07E
:102C9000BDE8384004F092BB5B68F1E7D801002042
:102CA000F0B587B016460F4604461D4618220B495C
:102CB0006846FDF7DBFB0A488DF80870ADF8024066
:102CC000ADF80A608DF80C50017800222046FFF71D
:102CD000AFFC684600F07CF907B0F0BD1486000038
:102CE0004C00002070B504460948012101F036FC73
:102CF000BFF35F8F0025002808D1204601F0F0F9CE
:102D0000002803D1BFF35F8F0148056070BD00004C
:102D10001C0000207FB50C4610B1012004B070BD2E
:102D20002079002638B141F61D5501281BD0022814
:102D300026D00F20F2E70220207102960396E06869
:102D40000190694601A804F0D7F850B10298818833
:102D5000E18000882081BDF80010029804F04AF953
:102D6000DCE70A20DAE70A4B6A460021A01D04F0DE
:102D70007FF838B1064918398E61CE610A28CDD165
:102D80002846CBE702488188019804F033F9F5E73B
:102D9000C400002010B50021024801F0DFFB80F3E1
:102DA000100010BD340E00200E4910B50A784C7882
:102DB0000023A24212D0521CD2B20A70022A00D1C1
:102DC0000B70084A0B780C3252F823200260886896
:102DD000104420F07F408860012010BD0360002077
:102DE00010BD00009800002013460A460021FFF79E
:102DF00057BF10B503780022072B06D2DFE803F097
:102E000005040610202930000A7010BD01230B7044
:102E100003898B818388CB81C06888600A7410BD68
:102E200002220A7002898A818288CA81C2688A6005
:102E3000807D062802D00020087410BD0120FBE729
:102E400003220A70C2888A810289CA81C0688860A8
:102E500010BD04230B70C0888881CA818A6010BDB0
:102E60000520087010BD000070B5064D0646002410
:102E700055F8241009B130468847641C042CF7D358
:102E800070BD00007407002030B50446006887B0AC
:102E90000D46806800281FD018216846FDF7FFFA0C
:102EA0000195A0680590207910B1012810D107E0A4
:102EB00001208DF8000020690290E068039005E091
:102EC00002208DF80000E068000302906069049021
:102ED000206881686846884707B030BD2DE9F04119
:102EE00086B016460C00804629D0112C27D0082C1D
:102EF00025D018216846FDF7D2FAADF80280404689
:102F000000F0FCFDADF804001B481C490027401AE6
:102F1000C5080D2C16D0204602F020FC02460120E8
:102F200000EB05404346164902F07BF907208DF877
:102F3000000002948DF80C70684600F057F806B057
:102F4000BDE8F081022000EB054042460D4902F049
:102F500061F903208DF8000026B13078C00701D058
:102F6000012000E002208DF8080041F201108DF8E8
:102F70000C70ADF80A00DFE7889900004099000066
:102F8000B8920000A891000010B50446408800F0F7
:102F9000B5FDA080024801682046BDE81040084702
:102FA000180000202DE9F04107460024064E074D89
:102FB00005E000BF56F8241038468847641CE878BE
:102FC0008442F7DBBDE8F081040500203C000020CE
:102FD00010B50446408800F091FDA08002480168C9
:102FE0002046BDE810400847C8850000014909682F
:102FF000084700005486000038B504460E480078A3
:10300000A8B1A4F57F40FF380FD0684603F0F6FD65
:1030100078B10521017001210171C480684603F077
:10302000FBFD03F0ABFE002038BD042038BD0220BC
:1030300038BD082038BD0000CC00002038B50400A1
:1030400014D0694603F058FFA0B1BDF8000000EBB2
:103050008001094800EB8100C16849B1A17A39B10A
:10306000C168491EC1600020A07238BD052038BD6E
:10307000062038BD0A2038BD100800201FB501A960
:10308000684603F0F5FE04B010BD07B513460A46C6
:103090006946002003F0ECFE0EBD07B513460A4654
:1030A0000021684603F0E4FE0EBD20B119B10068AE
:1030B000086000207047052070470000F8B50D46F5
:1030C000040018D0BDB1694603F016FFA8B1BDF8E1
:1030D00000000B4900EB800001EB800001210C3067
:1030E000666801F020FA2E6060680C30686001208C
:1030F000A0720020F8BD0520F8BD0A20F8BD000030
:103100001008002018B10323002205F0CBB80520D9
:1031100070470223002205F0C5B8826883881A40F0
:1031200003689A5C0A708168491C81607047C268B4
:1031300083881A4003689954C168491CC16070476C
:1031400070B5134600220546112900D10122074C13
:1031500033B12179FFF76CFA00226178284600E04C
:103160006178BDE87040FFF763BA000054000020AA
:10317000F7B517460E0011D00098002560B1002465
:103180002146684601F0B4F918B1A0B23946B047FB
:103190006D1C641C142CF3D32846FEBD0020FEBD1C
:1031A00010B50446C0B2FFF741F8204610BD406894
:1031B00003F044BD70B508B1012070BD194C002565
:1031C000207B08B1257301E000F0A0F820780828E2
:1031D00026D2DFE800F02504080C10251420BDE8F5
:1031E000704000F021B8BDE8704000F07DB8BDE847
:1031F000704000F05FB8BDE8704000F03BB86088F8
:10320000084900EB8000283901EB80004068BDE8E8
:10321000704002F083BF6560BDE8704002F08CBF73
:103220000F2070BD380800201149F0B48A1C00201E
:103230000346A1F128050C18A67A4EB1A37200EB43
:10324000800405EB8404E66816B9247C012C0AD0BE
:10325000401C80B20228EED30B704B804B60F0BC58
:1032600041F61D5070471080F0BC00F03DB80000E2
:10327000380800200C48418801EB8102A0F12801A8
:1032800001EB8201CA6852B1052101700748022191
:103290008180016800230122054801F069BB0422F6
:1032A00002704968F6E7000038080020D4000020CA
:1032B0008401002038B50A49084803240B68426895
:1032C000898803EB810153880470DB1C00201B04F8
:1032D00000909B0B034801F055FC38BD38080020D6
:1032E000D400002084010020074910B54888091D3A
:1032F00003F052FE18B1BDE81040FFF7DBBFBDE898
:103300001040FFF7B7BF000038080020F0B51F4895
:103310001F490125067802248B88A0F12802082E77
:1033200019D2DFE806F00418181B222F2F17018985
:10333000491C01810021418080F80C1001EB8103C0
:1033400012F8233043B100234418491C89B2A372F8
:103350000229F3D30570F0BD0123F5E742685288D6
:10336000D21C1A448A800470F0BD46880D6806EBB2
:10337000860602EB860256680E60556013818C80CB
:10338000062100E007210170F0BD00003808002090
:10339000D40000202DE9F041044680882188394E70
:1033A00086B00746352937D0502923D0522902D07C
:1033B00054295DD102E000F037FE59E0182232496D
:1033C0006846FDF753F8ADF80270384600F096FBFA
:1033D000ADF8040000F01CF9002231793846FFF7FF
:1033E00027F90022F1783846FFF722F96846FFF7FF
:1033F000CBFD3DE0207B01283AD1A07A012837D1CE
:103400002089A0F52451023932D10121384600F03B
:103410005FFE04F015FE2BE04FF000084246717984
:10342000FFF706F9E288B2F5857F1DD017481849E5
:10343000401AC008022101EB004512B1284615A12F
:103440000BE06289012A03D0284621A101F0E2FEA7
:10345000A289012A04D028462CA101F0DBFE03E05A
:10346000A07B00B1012080464146384604F0ACFA0A
:1034700000223549B078FFF79BF806B0BDE8F0416F
:1034800003F0F4BF100000206485000040990000A4
:1034900040990000556E65787065637465642047D7
:1034A00041545420737461747573207768696C6536
:1034B0002067657474696E672043415220636861B8
:1034C000722076616C75653A2030782578000000AE
:1034D0004D756C7469706C65202825642920434102
:1034E00052206368617261637465726973746963A1
:1034F0007320666F756E642C207573696E67207417
:1035000068652066697273742E000000556E6578D8
:103510007065637465642043415220636861726121
:103520006374657269737469632076616C75652074
:103530006C656E67746820282564292C2073746F6D
:10354000726520302E0000000D24000070B5044686
:103550000078002814D1608800F066FD6588284650
:1035600000F00EF928B107480122C1782846FFF77C
:103570005FF86088FFF75AFABDE8704004F060BD5C
:1035800070BD0000100000207CB5044600780828BB
:1035900037D1607A58BB207A1C4E4FF6FF75012850
:1035A00011D0072802D008282BD121E0A08800F0F4
:1035B000EFF90446A84224D0012100F089FD2046FD
:1035C000FFF734FA1DE0A0886A46012102F080FE70
:1035D00068B90198007850B1A08800F0D9F9A842E4
:1035E0000FD00122F178FFF723F803F03FFF08E046
:1035F000F068012805D1BFF35F8F044900200C312A
:103600000860BDE87C4004F01BBD000010000020F5
:103610001CB5054AD2E90212CDE900120022694622
:1036200002F0AEFF1CBD0000808500002DE9FC41CA
:10363000804600F063FA002403250127A0F57F41AE
:103640002646FF3908D06A46082102F041FE18B923
:103650000198841D8688056832462B4621464046DF
:10366000B1DF042804D0082804D00B2808D002E0D9
:10367000112000E00020002F00D10B20BDE8FC81CC
:103680000027A80701D50125E6E7344303D000242D
:1036900026460325E0E7064806494246401AC00888
:1036A000012101EB0040044901F0B4FDE5E7000011
:1036B0004899000040990000808C00002DE9FC41F1
:1036C000804600F01BFAA0F57F410646FF390ED078
:1036D00001252A466D1C0027ADB26B4608213046F5
:1036E00002F040FE040006D0072C33D033E043F252
:1036F0000200BDE8FC81019903230A1D0B604046CE
:10370000891DB2DF040004D00C2C09D0052C09D08F
:1037100009E032460821104602F09CFE04461AE0F9
:10372000012700E000240821304602F089FE70B134
:1037300002F014F80346094809493246401AC00805
:10374000012101EB0040074901F06BFD0324002F2C
:10375000BFD100E00C242046CBE7000048990000D0
:1037600040990000008C000004488088A0F57F414B
:10377000FF3901D003F084BE704700002000002014
:103780000EB502A9019100F0B9F96A46012102F0D3
:103790009FFD08B100200EBD019800780EBD00000D
:1037A0002DE9F04107464FF6FF761048B3DF78B1B8
:1037B00001F0D4FF02460E480E49401AC00801210C
:1037C00001EB00400C4901F025FD0320BDE8F0812C
:1037D000064C43F20305A41E324661883846AFDF2B
:1037E000A842F3D16088401C6080F5E722000020E9
:1037F0004899000040990000B48B0000428800EB1B
:1038000082020C328A4201D9022070478188A1F5D8
:103810007F42FF3A03D0008808B1002070470120A2
:103820007047884204D20068401C01D001207047D4
:10383000002070473EB5027802230C46B3EB520FCE
:1038400017D1B0F80110ADF80010C1788DF8021052
:103850008188ADF8041080798DF8060002AA01A9CC
:103860002046FEF7F6FA032202A96846FCF729FE75
:1038700008B100203EBD01203EBD000070B50D46E0
:103880000446142810D2FEF7F3FE68B1084904EB91
:10389000840001EB4000D0F802102960C188A980A3
:1038A000007AA871002070BD43F2020070BD0000D4
:1038B0006C02002070B5018892B0102961D1011D01
:1038C0002C226846FCF7D2FD9DF804004FF6FF76E7
:1038D00003213446B1EB500F2BD002F00FFE9DF8C0
:1038E00004006D4640080ED001280CD0022820D1DB
:1038F00018E00D99281D1131FEF76BFA18B100BFC1
:10390000BDF82C4015E00CAA0BA9072002F0CAFD57
:103910000028EED10DE00D99281D491CFFF78AFF04
:103920000028EDD10CAA0BA9072002F0BBFD00284E
:10393000F1D1BDF80000B44200EB8001124820F83C
:10394000114000EB41000199C0F80210BDF80810C9
:10395000C1809DF80A10017213D0BDF80000ADF8C7
:103960002E000020ADF83040084E8DF82C000BAD35
:10397000044600BF56F8241028468847641C022CD1
:10398000F8D312B070BD00006C02002094850000D6
:103990002DE9F0414FF6FF760546B04213D00B4FAC
:1039A000002400BF04EB840037F81000A84206D1C1
:1039B0002046FEF75DFE10B12046BDE8F081641C94
:1039C000A4B2142CEED33046F7E700006C020020BE
:1039D0003EB50C46054602F091FD0BE0BDF8000037
:1039E000A04207D02846029900F00EF810B1BDF8A9
:1039F00000003EBD01AA6946072002F053FD0028E1
:103A0000ECD14FF6FF703EBD2DE9F0410C46054666
:103A100000F1110701F111061022491C401CFCF7AE
:103A200050FD48B9681C00F0D7F928B1601C00F0BF
:103A3000D3F908B1012400E0002431463846FEF7EE
:103A4000C8F93B780222B2EB530F0CD00321B1EB43
:103A5000530F08D03378B2EB530F04D0B1EB530FB0
:103A600001D0012100E00021084201D18C4302D0A5
:103A70000120BDE8F0810020FBE7018811B9421860
:103A800092780AB101207047491C0829F7D3002019
:103A9000704710B50C460346FFF7EFFF00280AD029
:103AA00018882188884205D10822A11C981CFCF79F
:103AB00008FD08B1002010BD012010BD142804D25B
:103AC000024A00EB800022F8101070476C020020C0
:103AD00070B50546FFF75CFF0446284602F0FCFB84
:103AE000002808D1142C06D2034B04EB84024FF6B5
:103AF000FF7123F8121070BD6C02002010B504464F
:103B0000142808D2FEF7B4FD28B1044904EB840060
:103B100031F8100010BD4FF6FF7010BD6C02002090
:103B20003EB5044602F0EAFC0EE00199204646311B
:103B3000FFF7AFFF28B9019920462A31FFF7A9FF07
:103B400010B1BDF808003EBD6A4602A9072002F088
:103B5000A9FC0028E9D14FF6FF703EBD2DE9F041E8
:103B60002D4F002518B17D600120BDE8F081087956
:103B7000012258B1294E01280CD0274C4FF00208E1
:103B80000834022821D0032842D128E00A7102F02B
:103B9000D3FA3BE05FF0000000EB800116F8211043
:103BA000022908D0401C80B20228F5D33A707D600B
:103BB00041F61D50D9E700EB800006F8205006EBD7
:103BC0008000406802F0AAFA20E00D71A4F8048099
:103BD000002301221248216800F0CAFE16E00D7190
:103BE000206802F09BFA0D4923682831498801EBCF
:103BF000810206EB8201D1F804C0C4F800C04B601A
:103C0000A3880B81A4F8048006F822500028ACD0C9
:103C10007D600E20A9E70000CC00002010080020E5
:103C2000840100200146034802888A4200D0002017
:103C300070470000C40100202DE9FC5F0E008346A0
:103C4000DDE90C47C6F1000098469246814600D453
:103C50000846012503E000BF90FBFAF06D1C5045BB
:103C6000FADAA84500D9454624B1002E01DB7807D1
:103C700000D5641EB80702D5B8F1000F0AD0F807C6
:103C800008D13CB1A54205D220215846641EFEF75A
:103C9000B3FEF6E7002E02DA4E462D2102E0780749
:103CA00003D52B215846FEF7A7FE07F00300022894
:103CB0000BD1B8F1000F08D13CB1A54205D230219B
:103CC0005846641EFEF798FEF6E7CDE900474346E6
:103CD00052463146584604F059F9BDE8FC9F0000B1
:103CE00070B50D46044600684FF4887101F056FD2A
:103CF0004FF49071206801F051FD4FF492712068EB
:103D000001F04CFD4FF4A271206801F047FD2068DE
:103D10001249C0F804132068690740F30730090E00
:103D2000002806DA00F00F0000F1E02080F8141DF2
:103D300003E000F1E02080F800142068012140F346
:103D4000073000F01F0291404009800000F1E020A0
:103D5000C0F88012C0F8001170BD0000100302000E
:103D6000024600201268530713D502F00300012811
:103D700002D002280CD105E0C2F383100B68801C2E
:103D8000184404E00223086803EB925210440860D0
:103D900001207047F0B58488A518944200D82246C7
:103DA000A41AC288D6189A4200D81346D21A4B8851
:103DB0000788BB420CD34088834209D88888A04238
:103DC00006D3A84204D8C888904201D3B04201D992
:103DD0000020F0BD0120F0BD0021425C0AB10120AD
:103DE0007047491C1029F8D300207047800701D084
:103DF00000207047012070472DE9FE4F2E4F984656
:103E000092460D00814601D000260DE0684600F084
:103E1000E1FA6A460021484602F0FAF93878009E35
:103E200010B99DF8090098B152463146484603F052
:103E3000A5FC0446014600224846FFF781F90D2CF7
:103E400037D008DCA4B3082C33D00B2C09D130E0D8
:103E50000520BDE8FE8F112C1ED0A4F5405002387D
:103E600027D0204601F07AFC0246144814494B46FC
:103E7000401AC008012101EB0040124901F0D1F9BC
:103E80005FF00305B8F1000F04D0324621464846E2
:103E9000FFF724F82846DCE72A46F9784846FEF77B
:103EA000C7FB5246B9784846FEF7C2FB0025E9E752
:103EB000FFE72546E6E7000054000020889900004F
:103EC000409900006092000070B50E460C491546FE
:103ED00004460978FEF794FB00280FD0204602F034
:103EE0003DF900282A463146204603D0BDE87040FF
:103EF00002F03AB9BDE87040FEF776BF70BD000031
:103F00004C00002070B5094D0646A978FEF778FBF5
:103F10000446E9783046FEF773FB014622463046F8
:103F2000BDE870400123FFF767BF00005400002088
:103F30002DE9F047394E002780463D46DFF8E090F6
:103F4000D6F804A057E003D00446D0F81C8035E032
:103F500099F8002002EB4201521CD2B289F80020ED
:103F600009EBC10199F80230091D9A4201D189F883
:103F7000005048680A780446012A12D0022A02D06A
:103F8000032A3BD108E003F0B5FD00B101272574F9
:103F900034E00574C06900E070680028F9D17060F1
:103FA0002CE0207C50BB88686060C868A06008690D
:103FB000E0604869A061F07800B165606268B1684E
:103FC000184B501A20F07F40984202D2A168084452
:103FD00006E0881AA16820F07F40814202D9081AC1
:103FE000206000E0256065600120A5602074204607
:103FF000E56103F061FDB8F10000A4D199F800106B
:1040000099F801008142A3D117B97168514502D0D6
:104010000120BDE8F0870020FBE7000098000020A9
:1040200040060020FFFF7F00F0B587B0054600275F
:1040300018216846FCF733FAA5F57F40ADF8025029
:10404000FF3825D02846FFF7F1FA040022D01B489C
:104050001B49401AC6080B2C22D0112C1ED0A4F5E7
:10406000405002380ED0204601F078FB0246012075
:1040700000EB06402B46134901F0D3F821462846B1
:1040800003F0A4F910483A4681782846FEF7D0FAA2
:1040900007B0F0BD0E208DF800000BE00127F1E71E
:1040A0000F208DF80000022000EB06402A46074949
:1040B00001F0B0F86846FEF767FFE3E740990000BB
:1040C00040990000E08A000010000020348B0000BE
:1040D0000A4602494978FEF7ABBA000010000020FA
:1040E0002DE9F041002786B080463E46FFF7E6FA0C
:1040F000040022D0112C22D01B481C49401AC508AC
:10410000862C1ED0A4F5405002380ED0204601F077
:1041100025FB0246012000EB0540434614A101F0B7
:1041200080F82146404603F051F939464046FFF7F2
:10413000CFFF06B03046BDE8F0810126F5E7012744
:10414000F3E718221A496846FCF790F90220ADF807
:10415000028000EB0540424616A101F05BF868467C
:10416000FEF712FFE1E700004099000040990000CF
:104170006773636D5F6C6F63616C5F64625F6361E3
:104180006368655F75706461746528292072657461
:1041900075726E656420257320666F7220636F6E82
:1041A0006E5F68616E646C653A20256400000000F3
:1041B00034850000466C6173682066756C6C2E2037
:1041C000436F756C64206E6F742073746F7265201A
:1041D0006461746120666F7220636F6E6E5F6861E8
:1041E0006E646C653A202564000000002DE9FF41F3
:1041F0000026234800F094F92148001F074600F0EC
:104200008FF9204C60680090A56800E0009869462E
:10421000284004EB80000C30FFF7A2FD0028F5D108
:1042200001AA009901EA050304EB8303491CDB683A
:1042300042F82030401C00910228F2D3019800F08F
:10424000030001280BD0022810D10198032101EBB3
:1042500090500099BDF80A6001EB900005E00198CC
:10426000BDF80A60C0F3831008440090384600F09F
:1042700054F908B10098606004B03046BDE8F081A0
:10428000300E0020180A00202DED048BFCF7ACFC4A
:10429000FCF7AAFE1220FCF7ECFB00F09DFEFCF7F9
:1042A000B9FB1448FDF70AF99FED138B9FED149BA2
:1042B000154C4FF47A461220FCF7CCFB0620FCF795
:1042C00003FFFCF77DF953EC182BFCF707F953ECCF
:1042D000192BFCF703F941EC100B0CA053EC102B3D
:1042E000FDF7ECF86425611C304688476D1EFAD155
:1042F000E1E700003C8A0000CDCCCCCCCCCC0C401B
:10430000000000000000503F008500005745204796
:10431000455420252E3466200D0A00002DE9F04773
:10432000C5881E1DB6FBF5F78946B6FBF5F10446B8
:1043300005FB176C407916686843DDF820A0F71874
:10434000001F874200D9C61A166001E02468491E82
:104350000029FBD1A5EB0C078846B74216D818E018
:1043600004EB0C00001D09EB0803BAF1000F3A46FC
:1043700002D00146184600E01946FCF777F8246899
:10438000F61B4FF0000CB844B54201D9374600E0A7
:104390002F46002EE4D1BDE8F087000030B502467C
:1043A00051B100F0A5FF0021074C08E034F821309E
:1043B0001568AB4202D11160002030BD491C81421A
:1043C000F4D3052030BD000000000000BFF35F8F74
:1043D00000F08EB8034A00219268C0E90021816094
:1043E000704700005400002070B54FF6FF750E4670
:1043F000A84201D1002000E0401C84B208E0214620
:10440000304600F075F808B1204670BD641CA4B2B7
:10441000FF2CF4D9284670BD70B50C460546FBF755
:10442000F9FE002802D021882868084470BD10B524
:104430000A8849888A4203D1FBF72EFF012010BD6C
:10444000002010BD70B50C460546FBF708FF00289C
:1044500002D061882868084470BD10B50A88498870
:104460008A4203D1FBF7F2FE012010BD002010BDEF
:1044700001F01F0301229A40D243490900EB810059
:10448000114600F056B80A4601F01F030121994079
:1044900010B552090C4600EB820000F05AF820409B
:1044A00000D0012010BD2DE9F04180460D460024CA
:1044B000481E012101EB501716E058F82400C043B4
:1044C00090FAA0F0B0FA80F020280CD200EB44164D
:1044D000AE4208D231464046FFF7D5FF0028ECD166
:1044E0003046BDE8F081641CA742E6D82846F8E7CC
:1044F0004A0950F8220001F01F02012191400840B2
:1045000000D00120704701F01F0301229A404909A1
:1045100000EB8100114600F026B8002100F014B82D
:10452000012100F020B808B56A46FBF70AFF0098A1
:1045300008BD08B56A46FBF7EAFE009808BD08B555
:104540006A46FBF7FEFE08BD08B56A46FBF7DFFECC
:1045500008BD08B56A46FBF7CDFE08BD08B56A463A
:10456000FBF7BCFE08BD08B56A46FBF7C3FE009822
:1045700008BD08B56A46FBF7F1FE009808BD38B5DE
:10458000044600258DF800506846FDF779FE216845
:104590006268086890420ED9401E08600178238A3C
:1045A000E26801FB0325227A2168101AC0B20A7959
:1045B000824200D208719DF80000FDF785FE284672
:1045C00038BD38B5054600208DF800000C46684619
:1045D000FDF756FEE868298A201AB0FBF1F12A6837
:1045E0001068431C136001709DF80000FDF76CFE1D
:1045F00038BDC20800F007030120895C98400840DC
:10460000704710B5C20800F00703885C01249C4085
:104610002043885410BD00F180400068002800D07D
:104620000120704708B500F180400021016000685A
:10463000009008BD2DE9F041040007D0044E4FF46E
:104640007A47751C3846A847641EFAD1BDE8F08148
:10465000B089000070B50B4C207808B185250FE0BB
:104660000020A06060602061E060074801F0B4F8BD
:10467000054600F0FDFF08B901F096F80120207012
:10468000284670BD50050020592B000038B5002584
:104690008DF800506846FDF7F3FD074CE068401EBA
:1046A000E060E06810B901F0A7F8A5709DF800007F
:1046B000FDF70AFE38BD000050050020F0B50546A4
:1046C0000478154889B0164640F82420124A086933
:1046D000121DA2F1080742F82400487F3855202215
:1046E0006846FBF7C3FE04942878385C48B10EB1E5
:1046F0000A4A00E000226946281D01F0F3FB09B0D8
:10470000F0BD0EB1064A00E00022694605F10C003A
:1047100001F09EFAF3E7000070000020697E0000BF
:10472000117D000030B40378054CE35C1BB130BC54
:10473000001D01F00DBC30BC0C3001F0F3BA0000DC
:104740006C00002030B40378054CE35C1BB130BC36
:10475000001D01F07FBC30BC0C3001F059BB0000E3
:104760006C0000200FB408B50399002904D004AAF6
:1047700000926A4600F00FF801B05DF814FB10B526
:1047800082680446002A05D0D4E9040321689847CA
:104790000020A06010BD2DE9FC4791460C0080462A
:1047A00076D014F8011B39B125290ED04046FEF70A
:1047B00023F920780028F4D198F80C00002867D05D
:1047C0004046BDE8FC47FFF7DABF00200122217810
:1047D0002B291BD02D2902D0302908D102E040F02E
:1047E000010001E040F00200641C002AEFD1002526
:1047F0002A290ED02178A1F130020A2A11D205EB24
:10480000850201EB4205641C303DF1E740F00400F5
:10481000EAE7D9F800100B1DC9F800300968641CDC
:104820000D44217800232E290BD114F8011FA1F18A
:1048300030020A2A05D203EB830201EB4203303B2C
:10484000F3E76C290DD068290BD0692921D00BDC46
:10485000252918D0582931D063290ED0642915D1C3
:1048600017E014F8011FECE7702969D0732932D0E2
:1048700075291BD0782909D120E0D9F80000011D45
:10488000C9F8001001784046FEF7B6F8641C90E7BE
:104890006CE0D9F800100A1DC9F800200968CDE9BC
:1048A00000500A224046FFF7C7F9EFE7D9F8001099
:1048B0000A1DC9F8002009680A2206E0D9F800108C
:1048C0000A1DC9F8002009681022CDE900504046B1
:1048D00003F05CFBDAE7D9F8001000270A1DC9F8DD
:1048E00000200E68C00705D112E04046761C7F1CF0
:1048F000FEF782F831780029F7D104E02021404604
:104900006D1EFEF779F8BD42C0D9002DF6D1BDE786
:104910004EB13046FBF7CEFD074604E0202140466D
:104920006D1EFEF769F8BD4206D9002DF6D103E0F1
:104930004046761CFEF760F831780029F8D1A5E7EB
:10494000D9F80000011DC9F8001005683021404663
:10495000FEF752F878214046FEF74EF80820002175
:10496000CDE90001034610222946B0E7BDE8FC87E7
:104970002DE9F843884605002C482D499946A0EBBF
:1049800001004FEAD0004FF00101164601EB004450
:1049900024D0286800282CD0002E34D069684046E6
:1049A0004FF010070A68511E11EA080F11D1014695
:1049B00072432846FDF726FA00282ED028684B4679
:1049C0003246046901B041462846A446BDE8F0439A
:1049D00060472046174B18A2009722E00E20009057
:1049E0002046144B1EA220A100F023FC0E20BDE89F
:1049F000F8830820009020460E4B26A21AA100F052
:104A000018FC0820F3E7092000902046094B24A257
:104A100015A100F00EFC0920E9E7064B214A2046CB
:104A2000009711A100F005FC1020E0E7D0990000EC
:104A300040990000FB860000616464725F69735FE7
:104A4000706167655F616C69676E656428705F6639
:104A5000732C20706167655F6164647229000000D7
:104A6000705F667300000000257320636865636BE8
:104A7000206661696C656420696E20257328292091
:104A8000776974682076616C756520307825782E9A
:104A900000000000705F66732D3E705F61706900FA
:104AA0006C656E0024930000044801214174007A73
:104AB00008B100207047012070470000E408002082
:104AC000012801D0032808D10449002201284A7492
:104AD00000D00020087402F001B97047E4080020FB
:104AE00070B50246022801D0032A45D1234C207A12
:104AF000002841D0012833D0022831D1204800239A
:104B0000022A006802D0032A2AD11BE0E36001795F
:104B100011B1012924D10DE0D0E90565711B4FF4D5
:104B20008056B14200D33146294481614569A9428A
:104B30000ED015E00169491C0161426991420FD113
:104B4000237213E0E168491CE160082908D9E36099
:104B50002372022A0AD00D21FEF796F902F064F8BA
:104B6000607C28B1BDE8704000F088BD0021F3E70B
:104B7000BDE8704002F0B2B870BD0000E40800204B
:104B8000DC0000202DE9F84F90468A463A493B4A1E
:104B90000500A1EB02014FEAD1014FF00102DDF85F
:104BA00028901E464FF00E0002EB01441AD0B8F1D7
:104BB000000F1CD02868002822D00920002E29D000
:104BC00069684968B6FBF1F201FB1261002926D041
:104BD00000902B4B20462BA235A100F02AFB092088
:104BE000BDE8F88F00902046254B3CA203E00090E2
:104BF000234B20463BA22EA100F01BFB0E20EFE72B
:104C00000820009020461E4B38A229A100F011FB7D
:104C10000820E5E700902046194B37A2DCE7504614
:104C2000FDF7EAF8102798B14046FDF7E5F8A0B186
:104C3000324651462846FDF7E5F898B1CDF8009088
:104C4000286833464246C46851462846A047C7E70D
:104C500020460B4B29A2009708E02046084B2DA2C6
:104C6000009703E0064B204633A2009710A100F006
:104C7000E0FA1020B4E70000D0990000409900004D
:104C8000E886000021286C656E202520705F667321
:104C90002D3E705F666C6173685F696E666F2D3E56
:104CA00070726F6772616D5F756E697429000000C4
:104CB000257320636865636B206661696C65642099
:104CC000696E202573282920776974682076616CC5
:104CD000756520307825782E00000000705F6673BF
:104CE00000000000705F737263000000705F667305
:104CF0002D3E705F617069006C656E006164647266
:104D00005F69735F616C69676E65643332286465DF
:104D100073742900616464725F69735F616C6967B1
:104D20006E65643332282875696E7433325F742976
:104D3000705F737263290000616464725F69735FFE
:104D400077697468696E5F626F756E647328705FEF
:104D500066732C20646573742C206C656E290000CA
:104D600070B541EA4201DDE904564FF0A04441EA42
:104D7000830141EA052104EB800041EA0641C0F8C5
:104D8000001770BD70B541EA4201DDE904564FF0ED
:104D9000A04441EA830141EA052104EB800041EA95
:104DA0000641C0F8001770BD70B541EA4201DDE967
:104DB00004564FF0A04441EA830141EA052104EB87
:104DC000800041EA0641C0F8001770BD1CB5002202
:104DD0000B46009211460192FFF7D4FF1CBD1CB593
:104DE00000220B46009211460192FFF7DDFF1CBD29
:104DF0001CB5002100910B46012201911146FFF7DD
:104E0000C1FF1CBD1CB5002100910B460122019180
:104E10001146FFF7C9FF1CBD4FF0A04202EB800016
:104E20000321C0F8001770474FF0A04202EB80004A
:104E3000D0F8002722F44032C0F80027D0F800272D
:104E400042EA0141C0F8001770474FF0A04201212B
:104E50008140C2F80C1570474FF0A041D1F81015F1
:104E6000C14001F0010070474FF0A0420121814094
:104E7000C2F808157047000018B5084B6C4601448D
:104E80001B68009306E000BF54F82030D3F81035BB
:104E9000401C08C28142F7D818BD000058860000A7
:104EA000034908B50844002101600068009008BD6E
:104EB0000060004002494058012800D0002070479F
:104EC000006000407047704708B5034A00924023D5
:104ED000024A00F005F808BD1D7400001809002002
:104EE000F0B595B01C4615460F4608461A9E00F0D0
:104EF000D1FA182109A8FBF7D2FA0E96CDE9095488
:104F00000023082203A9384600F0D7FA0598069036
:104F1000BDF81000ADF81C00BDF81200ADF81E0081
:104F200000208DF821000398082600F003000128D6
:104F300002D0022818D032E003983346850AC0F325
:104F4000C2008DF8200003980FA9C0F38314A200BB
:104F5000384600F0B2FA09A8009006AB22460FA925
:104F6000284600F0F3F91AE00398840DC0F3C2005C
:104F70008DF82000082C01D2254600E00825334694
:104F80002A460FA9384600F098FA2E44641B09AB54
:104F900006AA29460FA800F055F9002CEAD1384698
:104FA00000F07CFA15B0F0BD0A4A012902EBC000FE
:104FB00007D0022907D0032907D0042907D00020F1
:104FC000704702207047042070470079704740798D
:104FD00070470000409900002DE9F04F8DB0FDF7BB
:104FE0001BFD18B100200DB0BDE8F08F7E4C4FF0D6
:104FF000000BC4F818B4BFF34F8F60680290A56827
:10500000D846284004EB80000CE000BFD4F8180418
:1050100070B921680298814201D86160E2E72840B6
:1050200004EB80000C3002A9FEF79AFE0028EDD1B7
:10503000002005AA029901EA050304EB8303491C39
:10504000DB6842F82030401C02910228F2D3059818
:1050500000F00300022802D001284DD0AAE00598F4
:105060005022810D8946B2EB905F00D850210E4648
:1050700066F39F50059008315C4800F0C2F90700C4
:1050800078D000F007FA4346082205A9384600F018
:105090001CFA029908F1080A2940681A8000001DCC
:1050A000864222D9504D0C3530B1C2B204EB810199
:1050B000301A90460C3104E02946F2B200259046A1
:1050C0002846C6B25346384600F0FFF90AEB0803FB
:1050D00025B132462946384600F0F7F9029909F120
:1050E000030001EB900002903BE004EB810153468A
:1050F000324638460C31EFE70598C0F38310062896
:1051000000D30620059960F38911C1F38310801C38
:1051100005918100354800F074F907004AD000F08D
:10512000B9F94346082205A9384600F0CEF908F13E
:10513000080800260FE00298434600EA0501401CDB
:1051400004EB81010290042238460C3100F0BDF9D5
:1051500008F10408761C0598C0F38310B042EAD821
:1051600047B1D4F81054D4F8180478B1384600F098
:1051700095F934E01EE0E8684079012804D12A68F6
:105180002846394612689047E8680568002DF2D134
:10519000384600F083F98DF800B06846FDF770F8E6
:1051A000D4F8180408B9029860609DF80000FDF773
:1051B0008BF814E0D4F8104405E021682046896893
:1051C0008847E0680468002CF7D109480949401A6B
:1051D000C008022101EB004007A100F017F8FDF71D
:1051E0001BFC80F00100FEE6180A0020009A000077
:1051F000E0990000409900004261636B656E647342
:1052000020666C75736865640000000000231A4610
:1052100002F094BB08B5012300926A4602F08EFBAF
:1052200008BD1CB5CDE9002302236A4602F086FBC7
:105230001CBD3EB5069C8DE81C0003236A4602F0A7
:105240007DFB3EBD2DE9F0470E4680461C4692464A
:1052500008293ED894F80C90002020731946104677
:1052600001F074FC0025B54206D218F805201AA1F9
:105270002046FFF777FA03E019A12046FFF772FAFC
:105280006D1C082DEFD317A12046FFF76BFA002500
:10529000B54210D218F80570FBF7E4F80068C05D5D
:1052A00010F03E0F01D03A4600E02E220EA120461B
:1052B000FFF758FA03E00DA12046FFF753FA6D1CE3
:1052C000082DE5D301222146504601F021FC84F847
:1052D0000C90BDE8F08700002025303278000000F7
:1052E000202020007C00000025630000200000003A
:1052F00002480349401AC00870470000009A0000A5
:105300004099000013B56846FFF748F808B100203F
:105310001CBD0248009950F831001CBD40990000A6
:1053200070B509480125D0F8104480F8205407E0F2
:10533000E06845712168204649688847E06804684C
:10534000002CF5D170BD0000180A00202DE9FF47A0
:1053500081460C9D00200C462F7B287398461646EC
:105360002946184601F0F2FB072E42D2DFE806F08C
:1053700004090F161F2A360049462846FFF7F2F99E
:1053800037E0494628462268FFF7ECF931E0D4E9D6
:10539000002349462846FFF7E5F92AE0A068009077
:1053A000D4E9002349462846FFF7DCF921E0D4E997
:1053B0000201CDE90001D4E9002349462846FFF760
:1053C000D1F916E004F1080007C88DE80700D4E918
:1053D000002349462846FFF7C5F90AE004F1080012
:1053E0000FC88DE80F00D4E9002349462846FFF78F
:1053F000B9F900222946404601F08AFB2F73BDE827
:10540000FF872DE9F041058A80462D1F4819C01CF1
:10541000B0FBF5F0C6B24046FFF7B1F8041E19D054
:105420000020207101206071E58000272546761E4E
:10543000C4F800800BE04046FFF7A1F860B1617945
:10544000491C6171286005467F1CC0F80080B74286
:10545000F1D32046BDE8F081204600F002F800209C
:10546000F8E72DE9F041457901466B1E002201E085
:105470000968521C9A42FBD30F680146002605E0DA
:1054800038460C68FFF79DF82146761CAE42F7D3EC
:10549000BDE8F0810121001DFFF745B810B50446B5
:1054A0000121001DFFF765F810F0FF0F04D1204621
:1054B000BDE81040FFF7D5BF10BD1CB50192012219
:1054C000009201AAFEF72AFF1CBD1CB50192002222
:1054D000009201AAFEF722FF1CBD0000024A1060E4
:1054E000101D0160704700002C7600400301034846
:1054F0001844C0F81425C0F810157047007000401B
:1055000002494058002800D0012070470070004038
:10551000034908B50844002202600068009008BDF5
:105520000070004030B51548ADF5017D00780028C9
:1055300021D04FF4FA7500BFADF8005280A968463B
:1055400061DF38B1052816D00DF5017DBDE830408A
:10555000FCF7F0BC6C460A497DA800F0BBF806E0F9
:10556000D0E90021204690477DA800F0CAF87F9836
:105570000028E1D0F4E70DF5017D30BD6301002086
:1055800014890000F8B5134C2078C0B10120A07038
:1055900001F0D0FD112814D0022001F0E3FD002518
:1055A0008DF800506846FCF76BFE11DF064625704B
:1055B0009DF80000FCF788FE2EB13046F8BD0820AB
:1055C000F8BD0020F8BDA57002F070F9032001F0CD
:1055D000C9FDF6E7600100207CB5194C207808B1C0
:1055E00008207CBD0120A070002001F0A3FD11283F
:1055F00019D0002001F0B6FD124800260068019085
:105600008DF800606846FCF73BFE0F4901A810DFEB
:1056100005000AD0002020709DF80000FCF754FE21
:105620002DB128467CBD00207CBD0120F3E7A6708B
:10563000667002F057F9012001F094FDF3E70000D5
:1056400060010020A8880000B11E00000EB50749C7
:10565000684600F03FF805E0D0E90010884768464A
:1056600000F04FF802980028F6D10EBDC488000063
:1056700001480078704700006001002005488178EB
:1056800019B1007818B1FFF77DBF08207047FFF708
:10569000A3BF0000600100201FB568464BDF30B19A
:1056A000052814D004B0BDE81040FCF743BC0849FD
:1056B00001A800F00FF806E0D0E90021009890471B
:1056C00001A800F01EF803980028E6D0F4E71FBDFB
:1056D00030890000016009684160AFF3008010B5B7
:1056E000D0E900215368994201D1002104E0D1E9B9
:1056F0000034A34202D01946816010BD08314160D8
:10570000F0E7816800290BD0026892680A44826041
:1057100041684B689A4203D108314160FFF7DFBF0F
:10572000704700000C4A10B502F594730EE0991A08
:10573000C91001EBD171491002EBC1010C68844220
:1057400001D90B4602E005D201F108029A42EED3DC
:10575000002010BD486810BD3487000000B5FFF779
:10576000E1FF002800D1014800BD000020870000B3
:105770004058002800D00120704708B50022425050
:105780004058009008BDD0F80403084000D0012024
:1057900070474058002800D00120704708B500220B
:1057A00042504058009008BD09480068012110F09F
:1057B000010F08D14FF0E020C02280F80024C0F88B
:1057C0008012C0F8001103490120086070470000F2
:1057D00000E100E0180500400649024600200B7970
:1057E0000BB1852070470A6001220A7100224A71BC
:1057F0007047000078000020044901200860044838
:105800000168C1F300410029FAD170470C00004043
:1058100018040040002802D0014980010847704761
:1058200071860000002802D00149800108477047B6
:10583000818600002DE9F0418846054600F0E0FF32
:10584000234E002828461AD0FDF74AF9304490F834
:1058500048008009032802D001280ED007E04FF04D
:10586000A040D0F81005E84010F0010F05D003214A
:105870002846BDE8F041FFF7D7BA0221F8E700F06B
:10588000CBFF002822D02846FDF72AF904464FF422
:10589000807000EB84000F4F81B207EB8400D0F8DA
:1058A000102542F00102C0F810250846FFF7F8FA6B
:1058B000B8F1000F0AD02846FDF712F956F820007B
:1058C000002803D00120A040C7F80403BDE8F08100
:1058D00064050020006000402DE9FC41DFF8BC8039
:1058E000044608EB0400002790F930001346C01767
:1058F0000E46401C01D008274CE0B0781946C0F392
:1059000040022046FDF7C8F80546401C41D0B0785B
:10591000410719D4C0070AD04FF0A04000EB840122
:10592000D1F8000720F00200C1F8000707E00021CD
:105930007378204600910A460191FFF711FA174942
:1059400020465431FEF75DFEB078800718D5144824
:10595000317800EB8500D0F81025124B1A40C0F8C2
:1059600010254FF4F8524FF4403302EA042203EAC0
:1059700001410A43D0F810150A43C0F8102509E088
:1059800008EB0500327810F8481F41EA82110170D7
:1059900000E004273846BDE8FC81000064050020D3
:1059A00000600040FFE0FCFF70B5184D95F858000E
:1059B00008B1082070BD0020411E2A18401CC0B24A
:1059C00082F830102028F8D300242046FDF756F83E
:1059D000641CE4B20C2CF8D300240D49C0206C6583
:1059E00081F8000401264020891FC1F88002C1F817
:1059F00000014FF4BE70FFF753FA0649F007C1F8F3
:105A0000040385F85860204670BD0000640500203E
:105A100006E000E0006000400121B1EB507F01D1C1
:105A2000012070470020704738B50D4601F0DAF8C4
:105A3000040014D000208DF800006846FCF720FC1C
:105A4000207928B19DF80000FCF73EFC112038BDFC
:105A50000120256020719DF80000FCF735FC002036
:105A600038BD0000204A10B5137C0BB1112010BDC9
:105A700002EB40031C7F1CB912F82D4F641C1470FC
:105A8000CA791A770A7A5A770A784B78302402F062
:105A9000030204EA03131A438B784FF4E06404EA28
:105AA00003231A43CB784FF4805404EA03331A4398
:105AB0000B794FF4E02404EA03431A434B794FF483
:105AC000801404EA03531A438B79240104EA036324
:105AD000064C1A4304EB0013C3F818250A7AC97957
