:020000040002F8
:10600000F0850020B1640200B9640200BB640200A4
:10601000BD640200BF640200C16402000000000011
:10602000000000000000000000000000C364020047
:10603000C564020000000000C7640200C9640200D9
:10604000CD800200CB640200C1870200CB64020055
:10605000A9820200CB640200E97A020001810200F9
:106060008587020099870200AD870200CB64020099
:10607000CB640200CB640200CB640200CB6402005C
:10608000CB640200DD800200CB640200CB6402001E
:10609000B9820200CB640200BD820200CB64020020
:1060A000CB640200CB640200CB640200CB6402002C
:1060B000CB640200CB64020000000000000000007E
:1060C000CB640200CB640200CB640200CB6402000C
:1060D000CB640200CB640200CB640200CD870200D7
:1060E000CB640200CB640200CB640200000000001D
:1060F00000000000CB64020000000000CB6402003E
:10610000000000000000000000000000000000008F
:10611000000000000000000000000000000000007F
:10612000000000000000000000000000000000006F
:10613000000000000000000000000000000000005F
:10614000000000000000000000000000000000004F
:10615000000000000000000000000000000000003F
:10616000000000000000000000000000000000002F
:10617000000000000000000000000000000000001F
:10618000000000000000000000000000000000000F
:1061900000000000000000000000000000000000FF
:1061A00000000000000000000000000000000000EF
:1061B00000000000000000000000000000000000DF
:1061C00000000000000000000000000000000000CF
:1061D00000000000000000000000000000000000BF
:1061E00000000000000000000000000000000000AF
:1061F000000000000000000000000000000000009F
:1062000000F002F800F06FF80AA090E8000C824459
:106210008344AAF10107DA4501D100F064F8AFF236
:10622000090EBAE80F0013F0010F18BFFB1A43F074
:1062300001031847EC0501000C0601000A444FF069
:10624000000C10F8013B13F0070408BF10F8014BD5
:106250001D1108BF10F8015B641E05D010F8016B1A
:10626000641E01F8016BF9D113F0080F1EBF10F87E
:10627000014BAD1C0C1B09D16D1E58BF01F801CBA1
:10628000FAD505E014F8016B01F8016B6D1EF9D524
:106290009142D6D370470000002300240025002639
:1062A000103A28BF78C1FBD8520728BF30C148BF79
:1062B0000B60704766290EF01880002070471FB5EC
:1062C0000EF009F800F082FB0400002000210DF020
:1062D0001FFE401C6060002000210DF02FFEE060DA
:1062E0001FBD10B510BD00F0F5FE1146FFF7E7FF2A
:1062F00006F0E0FB00F013FF03B4FFF7F2FF03BC6E
:1063000000F016FF30B450E8012F93B2C489234443
:106310008489A34228BF1B1B0489A34202BFBFF389
:106320002F8F002007E0C3EA020340E80134002C6D
:10633000E9D14FF001000A6030BC704750E8012FEE
:10634000C2EA024240E801210029F7D1704730B487
:1063500050E8022F1FFAA2F3C488A34202BFBFF382
:106360002F8F00200DE0C48923448489A34228BFD5
:106370001B1BC2EA034340E80234002CE8D14FF073
:1063800001000A6030BC704750E8022FC2EA224286
:1063900040E802210029F7D17047034653E8022F55
:1063A000D988B2EB324F4FF0000017BF92B241EAEA
:1063B000014142EA014104E05A68B2EB324F08BFA2
:1063C000012043E80212002AE8D1704730B40446A5
:1063D00054E8000F0D4644E80053002BF8D1156037
:1063E00030BC704730B4044654E8000F40EA010561
:1063F00044E80053002BF7D1156030BC704730B42F
:10640000044654E8000F00EA010544E80053002B5D
:10641000F7D1156030BC704730B4044654E8000F23
:1064200080EA010544E80053002BF7D1156030BC29
:10643000704730B4044654E8000F00EB010544E80F
:106440000053002BF7D1156030BC704730B40446C0
:1064500054E8000FA0EB010544E80053002BF7D1EE
:10646000156030BC704770B404464FF0000054E82B
:10647000006F0D68AE4207BF44E80023012044E8E6
:1064800000630E60002B1CBF0020F0E770BC70475B
:1064900030B4044654E8000F88422CBF451A054624
:1064A00044E80053002BF5D1156030BC7047000064
:1064B0000948804709480047FEE7FEE7FEE7FEE798
:1064C000FEE7FEE7FEE7FEE7FEE7FEE704480549D4
:1064D000054A064B70470000A985020001620200D0
:1064E000F0450020F0850020F0650020F0650020D8
:1064F00010B500F06BFA001D10BD00BF15DA0000EA
:1065000053EA020C00F069802DE9F04B4FF00006D1
:10651000002B1FBFB3FA83F503FA05F424FA05F63E
:106520005E4012BF1643B2FA82F502FA05F4C5F1D5
:1065300020051EBF22FA05FC44EA0C04203556EA69
:10654000044C4FEA144418BF641C4FF000084FF08D
:106550000009904271EB030C39D3002919BFB1FA3D
:1065600081F701FA07F6B0FA80F700FA07F6C7F1EB
:1065700020071EBF20FA07FC46EA0C062037B6FBB0
:10658000F4FCA7EB0507103F07F01F0BCBF120062B
:106590000CFA0BFB2CFA06F644BFB3460026202F5C
:1065A000A4BF5E464FF0000B5BEA060C08BF4FF03D
:1065B000010B19EB0B09ABFB027C48EB0608C01B77
:1065C00006FB02CC0BFB03CC71EB0C01C1E70B46C5
:1065D000024641464846BDE8F08B13B54FF0000037
:1065E0004FF00001AFF30080BDE81C407047000091
:1065F0000FB4044910B503AA029800F019FC10BCAE
:106600005DF814FBCC2C00200FB41CB5074B06AA78
:106610007B4469460090059800F0F1FB0020694634
:1066200000F000FC1CBC5DF814FB00001108000029
:106630002DE9F05F894604464FF0000ADFF824B1E7
:10664000FB44C0F820A02046E168884700287DD0A0
:10665000252806D0D4E901219047206A401C2062F9
:10666000F1E700255F462046E16888472028064676
:1066700007DB312E05D2B81910F8200C08B10543FC
:10668000F1E7A80701D525F00405C4F81CA00027F0
:10669000C4F818A02A2E09D0304602F0ABFA38B35D
:1066A00004EB8708303EC8F8186019E059F8041B5D
:1066B000204604EB87029161E1688847012F064676
:1066C00018D1E069002820DA25F020051DE0D8F86F
:1066D000180000EB800006EB40003038C8F81800C6
:1066E0002046E1688847064602F084FA0028EED189
:1066F000012F0AD02E2E08D12046E16888477F1C42
:106700000646022F45F02005C4DBA069002803DA05
:10671000404245F00105A061E80701D025F01005D1
:10672000A6B1A6F14100192802D8203645F400652B
:106730004A463146204625604D46FFF7BBFD60B115
:10674000012807D0ED1D25F0070000E007E000F16B
:10675000080978E705F1040975E730467AE7206A09
:10676000BDE8F09F84EB000040EA010310B59B07F1
:106770000FD1042A0DD310C808C9121F9C42F8D0AB
:1067800020BA19BA884201D9012010BD4FF0FF305C
:1067900010BD1AB1D30703D0521C07E0002010BD72
:1067A00010F8013B11F8014B1B1B07D110F8013BFE
:1067B00011F8014B1B1B01D1921EF1D1184610BDDF
:1067C00040EA0103024630B59B0710D14FF0013477
:1067D00000E008C208C91D1B9D4315EAC41FF8D07C
:1067E00013F0FF0102F8011B0DD01B0AF8E711F8A6
:1067F000013B002B02F8013B05D011F8013B002BB7
:1068000002F8013BF3D130BD10B5431C02E010F893
:10681000011B71B18107FAD14FF0013202C88C1A05
:106820008C4314EAC211F9D0C01A0A0603D0C01E64
:1068300010BDC01A10BD0A0401D0801E10BD09028F
:10684000FCD0401E10BD032A40F2308010F0030C33
:1068500000F0158011F8013BBCF1020F624498BFB3
:1068600011F801CB00F8013B38BF11F8013BA2F150
:10687000040298BF00F801CB38BF00F8013B11F0CB
:10688000030300F02580083AC0F0088051F8043B6B
:10689000083A51F804CBA0E80810F5E7121D5CBFD8
:1068A00051F8043B40F8043BAFF30080D20724BF0B
:1068B00011F8013B11F801CB48BF11F8012B24BF9F
:1068C00000F8013B00F801CB48BF00F8012B7047EE
:1068D00010B5203AC0F00B80B1E81850203AA0E87B
:1068E0001850B1E81850A0E81850BFF4F5AF5FEAAF
:1068F000027C24BFB1E81850A0E8185044BF18C962
:1069000018C0BDE810405FEA827C24BF51F8043B08
:1069100040F8043B08BF7047D20728BF31F8023B5C
:1069200048BF11F8012B28BF20F8023B48BF00F8F0
:10693000012B70474FF000020429C0F0128010F0C4
:10694000030C00F01B80CCF1040CBCF1020F18BF4B
:1069500000F8012BA8BF20F8022BA1EB0C0100F0DE
:106960000DB85FEAC17C24BF00F8012B00F8012BB1
:1069700048BF00F8012B70474FF0000200B51346E6
:1069800094469646203922BFA0E80C50A0E80C504F
:10699000B1F12001BFF4F7AF090728BFA0E80C5000
:1069A00048BF0CC05DF804EB890028BF40F8042BF9
:1069B00008BF704748BF20F8022B11F0804F18BF66
:1069C00000F8012B704770477047704700487047C8
:1069D000AC45002070472DE9FF4F0C461E464FF096
:1069E000FF378BB0D2E90001DDF860800A908A465B
:1069F000C1F30A5505B93D46002108464FF0000095
:106A0000BAF1000F00F4400005DA00EB80004FF40B
:106A1000400101EA50004FEA9059B9F1010F00DD41
:106A2000B9460A9850EA4A000ED044F61050A5F232
:106A3000FF3545432F14B8F1000F1ED07542291EB3
:106A40001EDDC9F100021CE0B8F1010F4FF000009B
:106A500001D0302103E0F24305E02154401CB04254
:106A6000FBDB30460022002121540B99C1F808803D
:106A7000C1E900200FB0BDE8F08FBD1B6D1CDEE743
:106A80004A4600DA694206A800F06EFA06AB93E8BF
:106A9000070003AB83E8070050460A9900F04FFB5C
:106AA0008DE80700A0F500501F3800900398002DD6
:106AB0000ADD42F21F014A460844002303A903905D
:106AC000684600F0B8FD09E0A0F500504A461F38BE
:106AD000002303A90390684600F0C2FD8DE807007B
:106AE0000004000C03D04FF0FF30410800E01046D6
:106AF000B8F1000F03D00022009215461EE0751E6B
:106B000005D400F0ABF9303262556D1EF9D5B346AD
:106B10000122084302D000227F1C04E020783028A4
:106B200001D100227F1E002A099784D01DE0112D7B
:106B300007DA00F093F9303262556D1C50EA010219
:106B4000F5D1084302D00098C8B10EE00021681EBC
:106B500005E0235C625C63542254401E491C814260
:106B6000F7DBAB46A81B401E0990002004F80B0081
:106B70000B98099AC0F80880C0E9002B7AE7112623
:106B80004FF0000857E72DE9F04F88460446D21D24
:106B900022F0070191B0D1E90001CDE90A0101F02D
:106BA00060FF02460B98C00F01D02D2007E020683F
:106BB000810701D52B2002E0202101EAC000032A31
:106BC000099001D0072A05DB03464146204600F024
:106BD0008BF90BE12078800601D5E06900E0062002
:106BE000B8F1650F814606D0B8F1660F18D0B8F13C
:106BF000670F70D131E00020B9F1110F009001DB77
:106C0000112301E009F101030AAA01A90CA8FFF769
:106C1000E2FEDDE90C70002609F10105834647E03C
:106C200001204B4600904FF000470AAA01A90CA88A
:106C3000FFF7D1FEDDE90DB00C995D46002610B9D5
:106C400009F101000D18B9EB050003D4C0F1FF36BE
:106C500009F10105A5EB09002BE0B9F1010F01DAFB
:106C60004FF001090020B9F1110F0090484601DDF5
:106C7000112300E003460AAA01A90CA8FFF7ABFE06
:106C8000DDE90C704D4600268346207800070AD4C3
:106C9000AB4500DA5D4601A8012D04DD411911F86C
:106CA000011C302907D04F4502DA17F1040F04DA2E
:106CB000012082460FE06D1EEEE7002F02DCED1B87
:106CC0003E4403E0781CA84200DD7D1CB81B00F1A7
:106CD000010A4FF000472078000703D4AA4501DBE2
:106CE0004FF0FF3A0021B7F1004F0DF143088DF846
:106CF000431024D002202B23002F01DA7F422D23C2
:106D00000A21021EA0F1010000DC5FB197FBF1FC3B
:106D100097FBF1F201FB1C7C17460CF1300C08F8D4
:106D200001CDEEE7A8F1010003702188090501D526
:106D3000452100E06521A0F1010800F8011C099837
:106D40000FA9A1EB0807FF1D00B10120411901EBBC
:106D5000EA70A1693844081A401EA0612078C00674
:106D600002D42046AFF30080099828B1D4E901216C
:106D70009047206A401C20622078C00622D5204619
:106D8000AFF300801EE0002E04DBB34502DD01A856
:106D9000805D00E03020D4E901219047206A401C4A
:106DA0002062761CAAF101005FEA000A0AD1FFF70F
:106DB0000DFEC0680168405CD4E901219047206A5B
:106DC000401C2062281EA5F10105DCDC07E0D4E9A7
:106DD000012118F8010B9047206A401C2062381EE0
:106DE000A7F10107F3DC2046AFF30080032011B0C8
:106DF00041E6000001694A1C02610878704700B54D
:106E00008FB0CDE901310021059105497944CDE9E3
:106E1000031011466846FFF70BFC0FB000BD0000E1
:106E2000E5FFFFFF0A6802F8010B0A6070470000E7
:106E3000074B70B50D467B44FFF7E1FF044628463B
:106E400000F004F910B14FF0FF3070BD204670BD66
:106E50009F490000004870478C45002030B5B0F1D4
:106E60000A024FEA900E71F100034EEA817EB0EB08
:106E70000E0061EB91014FEA101E4EEA017E10EB0D
:106E80000E0041EB11114FEA102E4EEA016E10EB8D
:106E90000E0041EB11214FEA104E4EEA014E10EB6D
:106EA0000E0041EB1141401841F100014FEAD000C2
:106EB00040EA41704FEAD10110EB80054FEA8104AE
:106EC00044EA907444EB01046D1944EB0404521B32
:106ED000A3414FF0000348BF0A3200D530BD401C2B
:106EE00041F1000130BD00002DE9F0411F4604468C
:106EF00003260168072A01F4006004DB08B116A527
:106F000005E016A503E008B115A500E015A521F0E0
:106F100010002060A069C01EA0610FB1401EA061DA
:106F20002046AFF300804FB1D4E9012138469047A5
:106F3000206A401C2062C01C206206E0206AFAE73A
:106F4000D4E9012115F8010B9047761EF8D22046AE
:106F5000AFF30080BDE8F0814E414E006E616E00DF
:106F6000494E4600696E66002DE9F0478146164697
:106F70008AB0354878440DC88DE80D003248784411
:106F8000801C03AC0DC884E80D0041F69B3008441A
:106F9000372190FBF1F290FBF1F5A5F1800501FBA3
:106FA00012041B3C02D56442012000E00020DFF8FF
:106FB00098A080460027FA44AAF1BE0A0EE0E00736
:106FC0000AD03246684607EB470101230AEB8101EC
:106FD00000F046FB8DE8070064107F1C002CEED10A
:106FE000194F7F44AE3F19E0E80715D007EB0410B6
:106FF0000DF1180A90E80E008AE80E00C068F04211
:1070000001D1981908903246012306A903A800F07F
:1070100027FB03AB83E807006D10641C002DE3D150
:107020004FF0010332466946B8F1000F03A802D0C1
:1070300000F001FB01E000F013FBC9E90001C9F811
:1070400008200AB0BDE8F087E0E20000007B00F015
:10705000800070474FF0013C50F8042B51F8043B7E
:107060009A4221D1A2EB0C03934313EACC1317D11C
:1070700050F8042B51F8043B9A4215D1A2EB0C03B3
:10708000934313EACC130BD150F8042B51F8043B73
:107090009A4209D1A2EB0C03934313EACC13DBD041
:1070A0004FF00000704700BFD01A01BAB1FA81F169
:1070B00001F0180122FA01F0CB40C1F12001DBB24E
:1070C000C0B2C01A2CFA01F3D11A914311EAC311CC
:1070D000E6D170477546FFF7BDFEAE46050069462E
:1070E000534620F00700854618B020B5FFF7EEF9AB
:1070F000BDE820404FF000064FF000074FF00008B9
:107100004FF0000B21F00701AC46ACE8C009ACE839
:10711000C009ACE8C009ACE8C0098D46704710B59D
:107120000446AFF300802046BDE81040FFF7E4B806
:1071300001491820ABBEFEE72600020070475FEA57
:10714000400C08BF91F0000F4FEA8C234FEAC12298
:1071500043EA51514FEA1C5018BF00F5F0404FEA86
:10716000300018BF41F000415FEA6C5C00F02980FC
:10717000BCF1FF3F08BF40F080407047130C06BFD2
:1071800012044FF0100C4FF0000C130E04BF12024B
:107190000CF1080C130F04BF12010CF1040C930F37
:1071A00004BF92000CF1020CD30F04BF52000CF18B
:1071B000010C11464FF00002A0F11F00A0EB0C00E3
:1071C000704711F0004F08BF704731F000413FF4A5
:1071D000D5AF0B0C06BF09044FF0100C4FF0000C9C
:1071E0000B0E04BF09020CF1080C0B0F04BF0901C0
:1071F0000CF1040C8B0F04BF89000CF1020CCB0FB7
:1072000004BF49000CF1010CCCF12003A0EB0C00F1
:1072100022FA03F302FA0CF241EA030100F1010041
:10722000704720F07F4C80EA030023F07F47ACEBEF
:10723000070303F57C5300F0004003F1FF032DE941
:1072400080494FEA154B09B44FEA144325EA0B4E27
:1072500024EA03480FF2042606EB132749083E7878
:107260005FEA320203FB0667C7F5000707FB06F675
:107270004FEA54374FEAD64606F1020607FB066C82
:10728000CCF1005C4FEA1C472CEA074C07FB06F4E4
:107290000CFB06F504EB15464FEA961634BF0020AA
:1072A0004FF000404FEAD13706FB07FC4FEA1C4C79
:1072B0000CFB0BF7D21B03FB0CF761EB07010CFB7C
:1072C0000EF7B0EB074072EB17420CFB08F734BF28
:1072D000A2EB0742B2EB074261EB17414FEA0C44C5
:1072E0004FEA910706FB07FC4FEA1C4C0CFB0BF71F
:1072F000B0EBC74072EB573203FB0CF734BFA2EB85
:10730000C742B2EBC74261EB57310CFB0EF7B0EB53
:10731000C70072EB57720CFB08F734BFA2EBC70231
:10732000B2EBC70261EB5771039F4FEA816141EAFB
:10733000921104EBCC044FEAD1374FEA826206FB8C
:1073400007FC42EA90124FEA80604FEA1C4C0CFBAB
:107350000BF7D21B03FB0CF761EB07010CFB0EF7DD
:10736000B0EB074072EB17420CFB08F734BFA2EBFF
:107370000742B2EB074261EB17414FEA8C554FEAE7
:10738000910704EB9C2406FB07FC4FEA1C4C0CFB0A
:107390000BF7B0EBC74072EB573203FB0CF734BF6F
:1073A000A2EBC742B2EBC74261EB57310CFB0EF7C1
:1073B000B0EBC70072EB57720CFB08F734BFA2EBBF
:1073C000C702B2EBC70261EB577115EB4C254FEAD0
:1073D000816141EA92114FEA82624FEAD13742EA73
:1073E000901206FB07FC44F100044FEA80604FEA6C
:1073F0001C4C0CFB0BF7D21B03FB0CF761EB0701DA
:107400000CFB0EF7B0EB074072EB17420CFB08F7D2
:1074100034BFA2EB0742B2EB074261EB174115EB19
:107420001C154FEA813141EA92414FEA823242EA29
:1074300090424FEA80304FEA0C7644F1000448EA6B
:1074400003434EEA0B484FF0000EB2EB080C71EB11
:10745000030724BF624639464EEB0E0E4FF0000B79
:107460000018524149414BEB0B0BB2EB080C71EB8E
:1074700003077BF1000B24BF624639464EEB0E0E2C
:107480004FF0000B0018524149414BEB0B0BB2EB94
:10749000080C71EB03077BF1000B24BF62463946F1
:1074A0004EEB0E0E51EA020718BF46F0010616EB2E
:1074B0000E7655F1000254F1000103D5BDE88901B3
:1074C000BDE80088BDE88901BDE80048B619524111
:1074D00041EB0101A3F10103704780807F7E7D7C39
:1074E0007B7A7978777676757473727171706F6E56
:1074F0006E6D6C6C6B6A6A69686867666665646401
:10750000636362616160605F5F5E5E5D5D5C5C5B8A
:107510005B5A5A59595858575756565555555454F9
:10752000535352525251515050504F4F4F4E4E4D57
:107530004D4D4C4C4C4B4B4B4A4A4A4949494848A3
:1075400048474747474646464545454444444443E3
:1075500043434342424242414141002B9C4630D486
:1075600077002BD01CB54FEA370703B44FF010005B
:107570004FF01001BAF1000F06D0BCF1000FDCBFD4
:1075800040F0080040F008014FF000000FBCBDE8DB
:1075900010400BF1010BBBF1010F08BF5FEA1707A9
:1075A00022BF12F1010211F101014FF0004143F13C
:1075B000000300F0004043EA00007047F9D3570889
:1075C000D0E746EA064613F1400F4FEA16461FDDA4
:1075D00013F1200FDFBF16430A46002120335B4220
:1075E000BED0C3F1200746EA064602FA07F74FEA83
:1075F000164646EA0706C3F1200722FA03F201FA0B
:1076000007F721FA03F14FF0000342EA0702A7E768
:1076100046EA020646EA06464FEA164646EA0106EA
:10762000BCBF46EA0646360C4FF000034FF000029E
:107630004FF0000194E72DE9804C9A46934670B4D0
:1076400091E8380007C831EA400C48BF34EA430CDF
:1076500003D5FFF7E6FDFFF780FFF0BCBDE8008C27
:107660002DE9804C9A46934670B491E8380007C8DB
:1076700010F0804F08BF13F0804F03D100F005F8E1
:10768000FFF76BFFF0BCBDE8008C20F07F4780EA7D
:10769000030023F07F4C07EB0C03A3F57C5300F0B1
:1076A0000040A3F1FE0392F0000F00F0B38095F0CC
:1076B000000F00F077802DE901494FEA11404FEAB1
:1076C000144621EA004800FB06FC24EA064708FBB2
:1076D00006F607FB08F800FB07F718EB06484CEB2B
:1076E000164C4FEA124B18EB07484FEA15464CEB85
:1076F000174022EA0B4E0BFB06FC25EA06470EFB61
:1077000006F607FB0EFE0BFB07F71EEB064E4CEBD7
:10771000164C4FF000061EEB074E4CEB174B18EBC8
:107720000B0840F1000018EB0E0B58EB000840F17D
:1077300000008F1A4FF000013CBFC943661B14BF05
:10774000B5EB040C00213CBFC943F61B4FEA1744BC
:107750004EEA8E0E27EA04454FEA1C4704FB0762F7
:107760002CEA074C05FB07F70CFB05F604FB0CFCA9
:1077700016EB074642EB174216EB0C4642EB1C4257
:107780001BEB060658EB0202414146EA9E0601D574
:10779000BDE80189B619524141EB0101A3F1010392
:1077A000BDE801894FEA14454FEA114724EA05462E
:1077B00021EA074C05FB07F406FB07F70CFB06F173
:1077C00005FB0CFC11EB074144EB17444FEA124751
:1077D00011EB0C4144EB1C4422EA074C05FB07F279
:1077E00006FB07F70CFB06F605FB0CFC16EB074641
:1077F00042EB174216EB0C4642EB1C456A1854F15B
:10780000000148BF7047B619524141EB0101A3F195
:107810000103704795F0000F37D04FEA11424FEA4D
:10782000144721EA024624EA074C02FB07F106FB53
:1078300007F70CFB06F402FB0CFC14EB074441EBCE
:1078400017414FEA154714EB0C4441EB1C4125EA64
:10785000074C02FB07F506FB07F70CFB06F602FBDD
:107860000CFC16EB074645EB174516EB0C4645EBB3
:107870001C42121951F1000148BF7047B61952411C
:1078800041EB0101A3F1010370474FEA14454FEAB0
:10789000114724EA054621EA074C05FB07F106FBE0
:1078A00007F70CFB06F24FF0000605FB0CFC12EB91
:1078B000074241EB174112EB0C4251EB1C4148BF10
:1078C0007047921841EB0101A3F1010370470000DA
:1078D00010B50CF07AFB9FED081B53EC112B0CF04C
:1078E0008BFB9FED071B53EC112B0CF085FB0CF071
:1078F0003BFB00EE100A10BDCDCCCCCCCCCC0C4068
:10790000000000000000503F1FB50B4800900B49DD
:107910004FF48070CDE9010103900723084A6946BE
:10792000084801F071FB002804D004B0BDE8104005
:1079300001F08CBA1FBD00008C4300208C44002055
:10794000393003004C2D00201CB501A84CDF00216C
:10795000012342A2084600F04DFB012000F01DFE6D
:10796000FFF7B6FF01221146002000F0C5FA0123FF
:107970003DA20221002000F03DFB022000F00DFEA0
:10798000FFF7A6FF01220321002000F0B5FA012332
:1079900038A20421002000F02DFB032000F0FDFDA3
:1079A000FFF796FF01220521002000F0A5FA012330
:1079B00033A20021402000F01DFB042000F0EDFD6B
:1079C000FFF786FFF1EE040A012220EE200A11469D
:1079D000402000F091FA01232CA20221402000F067
:1079E00009FB01200090019802238210032140200E
:1079F000019200F09DFA012327A20421382000F013
:107A0000F9FA022328A20621002000F0F3FA2A4CFA
:107A10006078012812D0022813D0032818D0042837
:107A20004FF0010317D025A20521402000F0E2FA13
:107A3000002060706078401C60701CBD012322A291
:107A400001E0012321A20521402000F0D3FAF1E753
:107A5000012320A2F7E721A2F5E7000053656E732A
:107A60006F72313A2000000053656E736F72323AC4
:107A70002000000053656E736F72333A20000000DF
:107A800043757272656E743A2000000043505520B1
:107A900054656D703A2000003E3E776F726B696EE0
:107AA000673C3C2000000000477972666C61636FA0
:107AB0006E53797374656D00E82A00202020202021
:107AC00020202020200000003E3E00003E3E3E3EA2
:107AD000000000003E3E3E3E3E3E00003E3E3E3E3A
:107AE0003E3E3E3E000000002DE9F04F00268DB0E6
:107AF000DFF8A081B14604964FF480750124374623
:107B00000596284606F0F0F938B1D8F8040320426B
:107B100003D0284606F0DEF926432D1D64007F1CA5
:107B2000ADB2082FEDD34FF4BE74204606F0DCF959
:107B300048B1204606F0CEF946F0004604AA0221DC
:107B4000002006F0B1F9544C16F0FF0F15D00127B4
:107B5000002537420DD008EB8501D1F81005D1F88A
:107B60001015C0F3052054F82520C1F3014102B1DE
:107B700090477F006D1C082DEBD3002E7EDA00208D
:107B8000CDF82890411E0DF1100B07AACDF82C90CE
:107B900042F82010401C91460228F9D300252E46B9
:107BA000A11911F8607F91F9000027F0C008401C6E
:107BB00040D007A9404605F064FA40B34FEA971A4F
:107BC000404602F0B5FD54F820701FB1BAF1030F22
:107BD00003D006E0BAF1030F2CD10AA9404605F004
:107BE00058FA02A8CDF8088006F0F4F8029900EBE4
:107BF0008100D0F8000704A9C0F30140029040467C
:107C000005F03FFA0028029802D0022802D011E0C5
:107C100003280FD1BAF1030F08D10298022833D0FC
:107C20000221404606F0A6F86D1CEDB217B1514690
:107C30004046B847761C042EB2D3002D21D001AAAD
:107C40000221002006F030F900205A460DF104010F
:107C500052F8206051F82030B34217D000200AAE0D
:107C60004FEA090351F8207042F8207056F820704E
:107C700043F82070401C0228F4D300E001E0002DFE
:107C80008CD10DB0BDE8F08F0321CAE7401C02285B
:107C9000DED3F6E700600040E03400200A4610B56D
:107CA00001461046104A114C0B88121BD2080324BF
:107CB00004EB0244102B08D0112B0BD0502B12D107
:107CC00009F086FE20460AA109E089884184204601
:107CD0000CA104E04FF6FF71418420460FA1BDE8DE
:107CE000104006F0EBBA10BD5C6A03007C6903002B
:107CF000424C455F47415454535F4556545F575279
:107D0000495445004C455F4741505F4556545F43D9
:107D10004F4E4E4543544544000000004C455F47DC
:107D200041505F4556545F444953434F4E4E45437F
:107D3000544544001FB5094B0FCB8DE80F00074891
:107D400000231A466946103805F04EFB08B101F0D1
:107D50007DF802480C3807F0ADF91FBDB85103009B
:107D600007B5012302AA0BF069FDC0B20EBD0000E9
:107D7000014900200860704704C5004000F01F0260
:107D8000012191404009800000F1E020C0F88012FC
:107D9000704700F01F02012191404009800000F16E
:107DA000E020C0F80011704700F01F02012191404F
:107DB0004009800000F1E020C0F800127047490738
:107DC000090E002806DA00F00F0000F1E02080F82C
:107DD000141D704700F1E02080F800147047002067
:107DE000AFF3008070B506465FF0000404F1B00008
:107DF000C0B200F09FFD002000F09CFD102000F0BC
:107E000099FD0025304600F09AFD6D1CEDB2802DE5
:107E1000F8D3641CE4B2082CE8D370BD10B5AE20D2
:107E200000F088FD202000F085FD102000F082FD8C
:107E3000B02000F07FFDC82000F07CFD002000F0A5
:107E400079FD102000F076FD402000F073FD8120C8
:107E500000F070FDEF2000F06DFDA12000F06AFD44
:107E6000A62000F067FDA82000F064FD3F2000F090
:107E700061FDA42000F05EFDD32000F05BFD00203A
:107E800000F058FDD52000F055FDF02000F052FD27
:107E9000D92000F04FFD222000F04CFDDA2000F048
:107EA00049FD122000F046FDDB2000F043FD2020BC
:107EB00000F040FD8D2000F03DFD142000F03AFD63
:107EC000AF2000F037FDBDE810400020FFF78ABF6B
:107ED00010B50446B031C8B200F02CFD102040EAC5
:107EE000141000F027FD04F00F00BDE8104040F032
:107EF000010000F01FBD0000FEB5064614460D4609
:107F000010EE100A0CF076F941EC100B06A153ECC0
:107F1000102B6846FEF778FB23466A462946304612
:107F200000F068F8FEBD0000252E34660000000059
:107F30002DE9F84F06460020DDF828A08DF8000056
:107F40001C468B46E94695B25046BAF1010F04D063
:107F5000022828D19846002748E09846002720E0CC
:107F6000641EE1B20C460A2004F0EAFEB5FBF0F014
:107F70008DF8000021460A2004F0E2FE01469DF83B
:107F80000000534600FB115130308DB28DF80000D7
:107F90004A465946304600F02DF8B61D7F1CF6B211
:107FA000FFB24745DCD3BDE8F88F641EE1B20C4652
:107FB0000A2004F0C5FEB5FBF0F08DF80000214664
:107FC0000A2004F0BDFE01469DF80000534600FB68
:107FD000115130308DB28DF800004A465946304676
:107FE00000F008F808367F1CF6B2FFB24745DCD334
:107FF000D9E700002DE9F047002591468A4604465E
:10800000012B22D0DFF8BC80022B24D155E0203890
:10801000C7B27E2C04D90AF10100002400F0FF0A47
:1080200051462046FFF754FF07EB4700002608EBB8
:108030004007B85D00F083FC761CF6B2062EF8D33C
:10804000A41D6D1CE4B2EDB201E0DFF87C8019F8EC
:1080500005000028DBD1BDE8F0872038C7B2782CB6
:1080600004D90AF10100002400F0FF0A514620461D
:10807000FFF72EFF5FF0000606EB071118F801006E
:1080800000F05DFC761CF6B2082EF5D30AF1010073
:10809000C1B22046FFF71CFF5FF0000606EB071198
:1080A00001EB0800007A00F04AFC761CF6B2082EBC
:1080B000F4D308346D1CE4B2EDB219F805000028C1
:1080C000CBD1C8E7A14B03007949030010B506F0F6
:1080D00091FEBDE8104006F02BBE000007480021CD
:1080E000C0F84011C0F84411C0F84811C0F84C1154
:1080F000C0F80011C0F804110AF076BC001001406D
:108100002DE9FE434FF48278404606F0CBFA4C4FFF
:1081100000254C4C012600B3404606F0CBFA94F8FB
:108120002E0010B194F82F10D1B18DF80050616875
:1081300001912189ADF80810E26832B1218B618389
:1081400062602181E56010B102E0257400E03E60CC
:1081500021686846884784F82F5094F82E0060B351
:108160004FF48077384606F09DFA30B3384606F073
:10817000A1FA628B94F82D108A420AD9A2EB010071
:1081800080B260832289A2EB0000626802EB4000AB
:1081900005E007D1E06828B184F82F60658306F018
:1081A0006FFA04E08A4202D184F82F60658340466A
:1081B00006F080FA2248001D06604FF488773846A2
:1081C00006F070FA48B1384606F074FA25740220B9
:1081D0008DF800002168684688474FF48A77384652
:1081E00006F060FA28B1384606F064FA2574BDE856
:1081F000FE834FF000484FF48C7967691DE000BFA3
:10820000B7FA87F028FA00F109EB80058F4328467A
:1082100006F048FA88B1284606F04CFAA5F58C75A8
:10822000E8088DF8040045F38000401C8DF80060DC
:108230008DF80500216868468847002FE0D1D6E711
:10824000007000409C35002000F07EBB70B50E46EB
:10825000144900EB400001EBC0051446E86A1835EC
:1082600020B101280FD0022805D113E0284600F0E4
:108270009FFBA04201D2002411E02246314628464D
:1082800000F0CEFB0BE0284600F092FBA042F4D2B7
:108290000446F2E73146284600F095FB04462046A6
:1082A00070BD00000441002002494FF040200AF058
:1082B0008DBC0000283800200AF0E4BA06F0D4BBD8
:1082C00008B503490091694600F07AF808BD00003E
:1082D000D58202003FB5134A0D4683B007CA8DE828
:1082E000070011480A236A464088059900F032F8D1
:1082F0000E490F48081AC108032000EB01440DA1E4
:10830000204605F0DBFF204605AA0BA105F0DAFFA9
:10831000002D05D0012D03D1204606A105F0CEFF8A
:1083200007B030BD00430300E82A00205C6A030068
:108330007C6903007373320068616E64656C20733E
:108340006572766963652061646472657373202564
:10835000780000007FB50E460446164816491546BB
:10836000401AC008032101EB004084B0224613A14B
:1083700005F0A8FFA4F57F40FF3806D0BDF81C002B
:10838000142804D9072008B070BD0520FBE70020A1
:10839000009001900290039001208DF802007088F7
:1083A000ADF8000007A8CDE9020569462046AEDF1A
:1083B000E9E700005C6A03007C69030025640000B3
:1083C00070B58EB00446564B0868A0620FCB08AD5E
:1083D00085E80F0004F1240108A862DF00287DD1A0
:1083E00094F824008DF832000125ADF83050224673
:1083F0000CA92846A8DF002870D120216846FEF786
:10840000BBFA4FF6FF60ADF8000094F824008DF839
:1084100002009DF80D008DF81150ADF8065014269D
:1084200040F01A008DF81250ADF804608DF80D0080
:108430008DF813502088A21C694602F0B1F900287B
:108440006BD120216846FEF797FA4FF47E40ADF8D5
:10845000000094F824008DF802009DF80D008DF8BE
:108460001150ADF8065040F01A008DF81250ADF8DA
:1084700004608DF80D008DF81350208804F10A0275
:10848000694602F08DF9002847D120216846FEF7A1
:1084900073FA4FF61060ADF8000094F824008DF8E0
:1084A00002009DF80D008DF81150ADF8065040F017
:1084B0001A008DF81250ADF804608DF80D008DF89B
:1084C0001350208804F11202694602F069F900286D
:1084D00023D120216846FEF74FFA00E01DE04FF659
:1084E0003160ADF8000094F824008DF802009DF88A
:1084F0000D008DF81150ADF8065040F01A008DF8BF
:108500001250ADF804608DF80D008DF813502088DE
:1085100004F11A02694602F043F90EB070BD000082
:108520000045030000B58DB008B100F08FFC18487D
:108530000DF10C0C0EC88DE80E000EC88CE80E0074
:108540000EC80DF1180C8CE80E0007C809AB83E8C3
:1085500007000F480F49001F06F004FD08B100F0A6
:1085600075FC6946002006F0B7FC03A9012006F05F
:10857000B3FC06A9022006F0AFFC09A9032006F00F
:10858000ABFC002801D000F061FC0DB000BD000084
:108590004C490300CD190300704708B5694606F041
:1085A00029FDBDF9000008BD30B54FF08050002214
:1085B0008300D0F83011C3F80C21C3F81021624BAE
:1085C0001A60624B1B68624C2360604B1B1D1B686A
:1085D000241D23605D4B08331B68241D23605B4B07
:1085E0000C331B68241D2360584B10331B68241D5B
:1085F0002360564B14331B68241D2360534B1833E0
:108600001B68534C20342360504B1C331B68241DC3
:1086100023604E4B20331B68241D23604B4B2433B7
:108620001B68241D2360494B28331B68241D2360CD
:10863000464B2C331B68241D2360444B30331B688E
:10864000434C40342360414B34331B68241D23606A
:108650003E4B38331B68241D23603C4B3C331B6866
:10866000241D2360394B40331B68241D23600124E3
:10867000082902D1D0F8343113B1082904D006E01A
:10868000354B3449196005E0D0F8343113B108296D
:1086900004D006E0314BFB21196005E0D0F83431FD
:1086A00013B1082908D00EE090F858322C48016820
:1086B00063F30301016002E0D0F834311BB92949AA
:1086C0004FF40070086028480168C90702D06FF0B5
:1086D000010101602548016841F470010160BFF3A8
:1086E0004F8FBFF36F8F4FF01021D1F80002002899
:1086F00003DBD1F80402002822DA1D4B1C601D4860
:108700000468002CFCD01224C1F800420568002D3A
:10871000FCD0C1F8044201680029FCD01A6001684D
:108720000029FCD0BFF34F8F10487C380168124AF3
:1087300001F4E06111430160BFF34F8F00BFFDE71B
:108740000F490E48086030BD380500400404001091
:1087500020C50040488103008C56004018F50040B9
:10876000E40E0040409602400004004088ED00E026
:1087700004E5014000E401400400FA050090D00344
:10878000642D002004220249024803F0C9BE000003
:10879000043800200080004004220249024803F00F
:1087A000BFBE0000103800200090004004220249A3
:1087B000024803F0B5BE00001C38002000A00040B5
:1087C00001480068004700003C2C00202DE9F05FC4
:1087D0005448D0F8045300242E464FF0010913E00A
:1087E00096FAA6F0B0FA80F7B80000F580708046DF
:1087F00006F048FA28B1404606F04CFA09FA07F0AC
:10880000044309FA07F08643002EE9D104F094FEF0
:10881000002869D0444AD078F0BBA00264D543490F
:1088200040F2A978C1F80080081D036813F0FF0C1E
:1088300002D0036803EA0C0C40F2AA7AC1F800A047
:10884000036813F0FF0301D00668334040F2AB7BAE
:10885000C1F800B0066816F0FF0601D007683E4078
:1088600040F2AC770F60076817EA0C0709D0D2F81E
:1088700010C04CEA070CC2F810C0C1F800800760B5
:10888000076840F2AD770F6007681F4009D0136991
:1088900043EA0743136100E026E0C1F800A0076047
:1088A000036840F2AE730B60036833400BD0DE0701
:1088B00001D044F40004DE0601D544F00104C1F8FF
:1088C00000B003600068106930F0011102D005F0BB
:1088D00080710C4310F0011F06D0690504D520F00B
:1088E000011044F480641061C4F3C05624F4000401
:1088F0004F46DFF83C8009E094FAA4F0B0FA80F526
:1089000058F82500804707FA05F08443002CF3D17E
:108910000AF016FE002E03D0BDE8F05F02F094BB13
:10892000BDE8F09F00700240442C00200078024017
:1089300078450300024600213C20FFF711BA0246A9
:1089400040213C20FFF70CBA10B5124C02202061E8
:10895000606111A0A06104F17800E0614FF4007043
:1089600020620020A06260620BA1A164E06204F5B5
:108970001E71E1641021A065C4E91410E06509A12D
:10898000E01DFDF71DFF08A12046FDF719FF20207F
:10899000A07110BD044100205465726D696E616C58
:1089A0000000000052545400534547474552000010
:1089B0000269C1688A4203D88068401A104400E006
:1089C000501A401E70472DE9F047C4681746894683
:1089D00006464FF000083069A04201D9051B02E0AD
:1089E000B168201A0D1AB0686D1E001BA84200D88D
:1089F0000546BD4200D33D4670682A46204449469C
:108A0000FDF721FFB0687F1B2C44A844A944A04275
:108A100000D10024F460002FDDD14046BDE8F0878E
:108A20002DE9F04104468846D4E90207C51BE168F8
:108A3000606816460844B54206D94146FDF703FF73
:108A4000B819E060BDE8F0812A464146FDF7FBFE1B
:108A5000761B08EB050132466068FDF7F4FEE66020
:108A6000F0E703B401984100009850EAC12018BF14
:108A700004204A0D18BF40F0010040F2FF72B2EB33
:108A8000515F08BF40F00200012808BF052002B076
:108A9000704700000121202803DA81400548014089
:108AA00003E0402802DA2038814009B101207047F4
:108AB00000207047FC06FFBD2DE9F843804643F2D5
:108AC000020659B9694607F051FEB04202D008B11A
:108AD00000F0BCF99DF80000800744D40021404616
:108AE00007F080FE05003ED0112D3CD01F482049E4
:108AF000401AC708022000EB07440D2D0AD00B2DA9
:108B00001DD0B5421FD11B4920464246BDE8F8435F
:108B100005F0D8BB20464246174905F0D3FB132188
:108B2000404676DF00281ED006F026F8024601B047
:108B300020464346BDE8F04310A105F0CABB2046DD
:108B400042461C49E2E7284606F016F80246012094
:108B500000EB0740434618A105F0BBFB2846BDE8E3
:108B6000F84300F073B9BDE8F8830000B46903006E
:108B70007C690300345A0300C059030073645F62C8
:108B80006C655F6761705F646973636F6E6E656368
:108B90007428292072657475726E656420257320AF
:108BA0006F6E20636F6E6E5F68616E646C6520250A
:108BB000642E0000805A0300417373657274696EFD
:108BC000672E20706D5F636F6E6E5F736563757285
:108BD0006528292072657475726E6564202573207E
:108BE0006F6E20636F6E6E5F68616E646C652025CA
:108BF000642E000030380A2801D20120704700207E
:108C0000704710B560B159B102780B785208B2EBD9
:108C1000530F05D10622401C491CFDF7A5FD08B1E4
:108C2000002010BD012010BD800701D0002070473A
:108C300001207047C3688B4206D811440069491E61
:108C4000814201D8012070470020704710B50122F1
:108C50000221002001F0CCFB08B1072810D1072227
:108C60000221012001F0C4FB08B1072808D100212E
:108C70000A22084601F0BCFB08B1072800D10020F9
:108C800010BD000019481A4900B5401AC008042157
:108C900001EB0040ABB017A105F010FBAC2168461A
:108CA000FDF76AFE02208DF8000001208DF8020019
:108CB00006218DF803100321ADF810108DF87C000B
:108CC000134928200591229044F2506023901148C6
:108CD00029906946104800F093FC08B100F0B6F8FE
:108CE00001210D4800F089FC2BB000BD5C6A030037
:108CF0007C6903006164766572746973696E675F8D
:108D0000696E697428766F696429202E000000005E
:108D1000EC2A0020D1F60200242E002010B560B10C
:108D20000B480C49401AC008032101EB00400AA17E
:108D300005F0C4FA08F0A2FA03E00321094800F0A4
:108D40001BFD002803D0BDE8104000F07FB810BD27
:108D50005C6A03007C690300457261736520626F81
:108D60006E647300242E002070B58CB015460E463C
:108D700000236C46C3F10F01415CE1545B1C102BD6
:108D8000F8D30D2104F11000FDF7F6FD0020C0F12D
:108D90000F02315C2244401C11740328F7D368464B
:108DA00046DF0020C0F10F01214491F82010295422
:108DB000401C0328F6D30CB070BD00000149C978EF
:108DC00000F0B4BEB42B002072B605F029FB00BF42
:108DD00005F05AF90028FBD111481249401AC4087D
:108DE000012000EB044010A105F068FA114800686A
:108DF000C00700D000BE022000EB04400EA105F029
:108E00005DFABFF34F8F0B48E43801680E4A01F456
:108E1000E06111430160BFF34F8F00BFFDE7000029
:108E20005C6A03007C690300466174616C206572B2
:108E3000726F7200F0ED00E053797374656D20720B
:108E400065736574000000000400FA050EB500218A
:108E50000091CDE901106A4644F20100FFF7B4FF2A
:108E60000EBD10B58268C368934203D002F040FC87
:108E7000002010BD052010BD29B112B1531E1342B0
:108E800003D0092070470E207047016083800021C5
:108E90008160C1600846704710B58268C3689A1A3D
:108EA00083889A4203D802F02DFC002010BD0420D4
:108EB00010BD0000074B9B7823B12AB120B1006898
:108EC000037C1BB108207047072070474174426142
:108ED000002070476438002070B508F019FD104874
:108EE00000240B21047044700E4D817014206C60BE
:108EF0002C706C70FEF742FF06211420FEF75FFF16
:108F00001420FEF746FF0848046006211120FEF7F2
:108F100056FF0548001F0068A860002070BD0000D3
:108F200064380020782C0020081501402DE9FC470A
:108F3000DFF8789099F8023073B368B3052902D24C
:108F40000720BDE8FC87436933B3437C012B25D060
:108F5000002704460025884616468DF800506846CE
:108F600000F0CEF801A80AF09FFCC8B10121017001
:108F70000F4944600968C0E90218C0E904769DF809
:108F8000040089F801009DF8000000F0DDF81420CD
:108F9000FEF70AFF2846D4E70820D2E70F46D8E7B5
:108FA00004259DF8000000F0CFF8F3E764380020B6
:108FB000041501400649897839B130B1416921B1C0
:108FC00000210174022109F0EBBC08207047000069
:108FD0006438002070B50A4E01460A48B578FFF79C
:108FE00040FF04464DB10020B070711C0122C81D25
:108FF00004F056FA08B1FFF729FF204670BD0000C3
:10900000D02C0020283B0020F0B5244E89B01F460C
:109010000D00044672603FD0A888296882B22048BB
:10902000FFF72AFF002835D1A889A96882B21C4819
:109030001030FFF721FF00282CD120221949684663
:10904000FDF746FC60690690207C00B101208DF898
:1090500014008DF81C70607C00B10E208DF8150096
:10906000E0680290A068039020680190606800901A
:109070000A480D4A6946083004F0DEF9002809D193
:10908000B0702068401C05D004490122491CC81D4D
:1090900004F006FA09B0F0BD0720FBE7D02C002051
:1090A000283B0020604803008130030010B50146D2
:1090B0001048FFF7F1FE040019D10F480F4A01785C
:1090C000515C19B1001D06F0F5FA02E00C3006F013
:1090D000D9F960B9084907480839FFF7C2FE30B925
:1090E000054901220839044804F0EAF904462046FB
:1090F00010BD0000383B0020D82C00201C2C002084
:1091000030B5EFF3108172B60D4A9468012324B193
:109110000370002900D162B630BD93604FF0E023A8
:10912000D3F88051074C25401560C3F88041D3F82F
:10913000844154605A17C3F8842100220270E8E782
:1091400070390020FC06FFBD0B498A68002A11D047
:1091500000280FD1EFF3108072B60B684FF0E022B9
:10916000C2F800314B68C2F8043100228A6000283E
:1091700000D162B6704700007039002070B5054616
:1091800008680C46411C04D004F05CFE206804F022
:10919000DDFD6068411C02D0002104F0C5FD296896
:1091A000A069C1F82405607D227D29681043C1F8BB
:1091B0006C05D4E900122868C0F81425C0F80C1515
:1091C000207D012814D1A068411C02D0002104F0A8
:1091D000ABFDE068411C04D004F034FEE06804F00C
:1091E000B5FDD4E902122868C0F80825C0F81015AA
:1091F00070BD70B5054608680C46411C04D004F0EB
:109200002BFE206804F0ACFD6068411C02D00021F8
:1092100004F093FD2968A069C1F82405607D217DD3
:109220002A680843C2F86C05D4E900122868C0F81F
:109230000C15C0F81425207D012814D1A068411C0C
:1092400002D0002104F079FDE068411C04D004F054
:1092500003FEE06804F084FDD4E902122868C0F837
:109260000825C0F8101570BD03F0F4BA2DE9F047D9
:10927000814605884A484FF000088AB00178424686
:10928000284600F06BFC99F80500400701D4002146
:1092900076E005F58077B8B201AB0122072106F030
:1092A000F1FE04003F48404A4FF00101A0EB0200EC
:1092B0004FEAD00001EB00460AD0204605F05CFCE6
:1092C000024630462B46394905F003F8214629E08D
:1092D000284602F0BFFF4FF6FF71044688422BD1AB
:1092E0008A46029802F020FF0446504510D00146FD
:1092F000284602F08FFF2846FFF760FDE0B92846B8
:1093000008F0ECFD2846FFF759FD0028BFD013E018
:1093100007F084F80446504508D1304624A104F0F3
:10932000CDFF0421284608F007FEB0E70146284695
:1093300002F070FF4FF00108B8B22246072106F094
:1093400019FF07001BD0862F1ED005F015FC024622
:1093500030462B462349009404F0C3FF3946284683
:1093600008F0EAFD0021484606F080FDB8F1000F44
:1093700002D0204602F058FF0AB0BDE8F087012174
:10938000484606F073FDF7E71822174903A8FDF7D2
:109390009FFAADF80E5003A801F0F2FFEFE70000CE
:1093A000B42B0020BC6903007C690300385D030016
:1093B000436F756C64206E6F7420616C6C6F6361B9
:1093C0007465206E657720706565725F69642066DC
:1093D0006F7220696E636F6D696E6720626F6E6475
:1093E0002E000000E45D0300A44403000448054986
:1093F000401AC008032101EB004003A104F05EBF46
:109400005C6A03007C69030062617474202E0000B2
:10941000102802D31038C0B2704740F08000704767
:109420002DE9FC47002517880646158090F82D0089
:109430001446894630B13A462146484600F0B8FB0A
:10944000051E09D1B0784FF00C0A18B32088C84621
:10945000001DB84202D95046BDE8FC87684679DF56
:109460000028F9D12088032108F80010208819214C
:10947000401C80B2208008F800102088401C80B278
:10948000208000EB0801BDF8000009F087FF21886B
:1094900008442080F0780222C8B1218896F9033070
:1094A00001F1030C4846BC45D5D8425421884FF001
:1094B000010C491C89B2218000F801C02188491C97
:1094C00089B2218009F801302088401C2080706812
:1094D000B8B1218890F9003001F1030C4846BC4531
:1094E000B9D8425421880A22491C89B221804254A9
:1094F0002188491C89B2218009F801302088401C4C
:109500002080308950B1CDE900474B460622022128
:1095100006F108000AF0E0F9051E9DD1308A50B12D
:10952000CDE900474B460722032106F110000AF05F
:10953000D3F9051E90D1308B50B1CDE900474B4691
:109540001522142106F118000AF0C6F9051E83D170
:10955000306A30B13B462246494601F0A0FA051E6A
:10956000DBD1706A30B13B462246494603F05AFBD4
:10957000051ED2D196F82C0038B13B46224649460A
:10958000304608F0BBFD051EC7D1307838B13B46E8
:1095900022464946304603F0DBFB051EBDD1284676
:1095A0005AE718B504460020ADF8000013466A4695
:1095B000204600F006F8002802D0BDF80000204444
:1095C00018BD70B588B182B10024158803E0065D2E
:1095D000641C3444A4B2A54203D8061976789E428E
:1095E00001D08C42F3D38C4201D3002070BDA11C6A
:1095F0001180005D401E80B270BD80F83010704751
:109600002DE9F0470E00044606D02CB196F87A00FA
:109610000025012803D006E00E20BDE8F08796F86B
:109620009800012821D04FF00109A5702C2206F1E5
:109630007801201DFDF74CF984F83050D6F8A400CD
:109640006063D6F8A800A0634FF6FF70A4F8480244
:1096500004F50D70C4F84402C4F84A52A4F84E52FE
:1096600084F85052207810B104E00720D5E7FF209D
:1096700084F8540004F15501C4F8341294F824001D
:10968000EE274FF01F0801281FD0A4F8388200BF32
:1096900004F50E723046FFF7C3FE0028BDD116F167
:1096A0003C0F18D004F24311C4F83C1294F8240083
:1096B00001280DD0A4F8408204F5107206F13C0098
:1096C000FFF7AEFE0028A8D109E0A4F83872DFE762
:1096D000A4F84072F0E7C4F83C52A4F8405284F871
:1096E0005190208BA4F8480084F83C90256484F8BD
:1096F0005050606960644E4604F13C02002104F160
:10970000540072DF002888D1267086E710B50288E1
:10971000102A1BD0112A20D0262A1DD1007A0C46EF
:10972000012801D0022817D1A0780521401CB0FBE8
:10973000F1F201FB1201204600F01EF800280BD0C8
:10974000A16B002908D0BDE810400847C27B012A60
:1097500002D18088A1F8480210BD0C46002184F88F
:1097600052128088B4F848128842F5D12079002836
:10977000F2D10121DFE770472DE9F05F0446007860
:109780000F4698B1A7700025C4F84A52A4F84E526B
:1097900084F85052A079012608B1012F09D0E07950
:1097A00080B1012F05D0022F03D00BE00820BDE8C7
:1097B000F09F616B21B184F851620820884701E075
:1097C00084F8515204F24B2100200A5C0AB1304661
:1097D00003E0401C0628F8D300204FF002084FF0A9
:1097E000030B012F06D0022F0CD0032F0FD0042F14
:1097F00015D110E0A17929B194F8241011B908B15C
:1098000030460DE0E17911B108B1404608E0207A18
:1098100008B1584604E0607A08B1042000E0284608
:10982000A070616B41B1032801D0042804D1607994
:1098300010B194F85202A0B184F8535204F13C00E4
:1098400018210746FDF798F804F12C0084F83C60D5
:10985000814606F00FFF58B194F82C0084F85100AF
:1098600008E084F8545284F8536207208847E5E7FB
:1098700084F8516094F8240050B1484606F0FAFE8E
:1098800020B194F8280084F8520001E084F8526076
:1098900084F85050A27804F24A2104F50D794FF073
:1098A000060A052A62D2DFE802F07A030F2241009D
:1098B00084F83160C4F84452C4E9101584F83C803F
:1098C0008020A4F8480053E084F8318094F82420E4
:1098D000384612B10722027001E080F800B0228AF7
:1098E0008281C4F844524160E168B96040E0606937
:1098F000B860208BB88194F824003D4610B184F8FC
:109900003CA001E084F83C60204609F085FF50B19E
:1099100085F814800421204601F019FF30BB052191
:1099200084F8311020E084F831B01DE0E069B860BF
:10993000208CB88194F824003D4610B184F83CA0F6
:1099400001E084F83C60204609F066FF48B185F8E4
:1099500014800421204601F0FAFE38B984F831A0C1
:1099600002E0042084F83100C4F84492A07878B171
:109970003A4604F15400D4F8441272DF00287FF410
:1099800016AF94F8301094F8540073DF0028F6D125
:10999000616B11B194F831008847002007E784F823
:1099A0003150F5E738B5002924D0002822D00288AC
:1099B000502A1FD10546487C0C4600281AD0E98859
:1099C0006289A81D914215D14189022912D12168CD
:1099D00000290FD00C3000F0ACFB08B1002000E0F3
:1099E00001208DF80000A888ADF8020022686946C1
:1099F0002046904738BD000070B5040012D00146E3
:109A00001C221448FCF764FF1248134D05602068BF
:109A100050B17ADF002806D12068016829604068CB
:109A2000686005E00E2070BD0B487BDF0028FAD18E
:109A300008484FF6FF711438084A20F8041B0549FE
:109A4000343901600021FFF735FA0028EBD00320FC
:109A500070BD000054310020102B0020AD340300F5
:109A600010B5044600F09AF8002805D02146BDE85C
:109A70001040024803F069BA10BD00008031002098
:109A800070B515460E46044609F0D2FE002809D0EE
:109A9000054800EB840080692A463146BDE87040E5
:109AA00001F082BE70BD00007031002010B5044688
:109AB00000F074F8002805D02146BDE810400248A7
:109AC00003F043BA10BD00008431002070B5054694
:109AD000002400F063F838B12946044803F035FA51
:109AE00008B1022400E00124204670BD7C31002032
:109AF00070B50546002400F051F838B129460448F5
:109B000003F023FA08B1022400E00124204670BDCE
:109B10007831002010B51821034803F0F1F9182816
:109B200000D0C0B210BD00007031002070B50546F5
:109B30000C46084609F07CFE60B1284600F02EF87D
:109B400040B10548294600EB8400BDE8704018305C
:109B500003F0FBB9002070BD7031002070B50546E0
:109B600014460E46084609F063FE002812D0284627
:109B700000F014F800280DD00748294600EB8600B5
:109B800018301CB1BDE8704003F0EAB9BDE8704080
:109B900003F09BB970BD000070310020142801D380
:109BA000002070470146014803F0CFB9743100200E
:109BB0007CB5054608880C460930904201D90C2036
:109BC0007CBD68466DDF0028FAD1218808206854E2
:109BD00020881B21401C80B2208029542088401CF2
:109BE00080B220802844DDF801100160BDF8051026
:109BF00081802088801D80B220809DF80010490857
:109C000000D0012129542088401C208000207CBDE8
:109C10001FB5044601208DF8060041F60A00ADF894
:109C20000400494A01A90120A8DF00287DD122882B
:109C30005AB14548801C009094F83C3042F62920E7
:109C4000616800F07DFD00287BD122895AB13E4831
:109C50000A30009094F83C3042F62420E16800F08D
:109C60006FFD00286DD1228A5AB13748123000901A
:109C700094F83C3042F62520616900F061FD00282F
:109C80005FD1228B5AB130481A30009094F83C30A2
:109C900042F62720E16900F053FD002851D1228CC3
:109CA0005AB129482230009094F83C3042F62620E0
:109CB000616A00F045FD002843D1228D5AB1224847
:109CC0002A30009094F83C3042F62820E16A00F0F7
:109CD00037FD002835D1216B79B102A808F0B0FD1D
:109CE000194808223230009094F83C3002A942F61C
:109CF000232000F025FD002823D1606B60B11249BC
:109D00003A3100910279016894F83C3042F62A20F9
:109D100000F016FD002814D1A16B89B102A807F04C
:109D20001CFB09484230009000E00AE094F83C3007
:109D3000072202A942F6502000F002FD002800D1BF
:109D4000002004B010BD0000D22B002038B504461E
:109D500001883148314A801AC008042202EB0040D1
:109D600021293FD016DC2D4A2B4B4FF00300A3EBEB
:109D700002024FEAD2022A4D00EB0240102916D00F
:109D8000112928D0142904D10023A0881A46194685
:109D900086DF38BD3B2932D0522937D05629F8D139
:109DA00020A104F08BFAA088132176DF0DE023A117
:109DB00004F084FA072000F03DFB08B1FFF746F8F5
:109DC000A1886980204803F0F5F90028E1D0BDE8BA
:109DD0003840FFF73BB81DA104F070FA4FF6FF7052
:109DE000688038BD1DA104F069FA00200090A088A9
:109DF00069468FDF0028F4D0FFF728F838BD1CA192
:109E000004F05CFAA088132176DFDEE70023A08847
:109E10001A461946B1DF38BD5C6A03007C6903004D
:109E2000E82A002047415454205365727665722019
:109E300054696D656F75742E00000000436F6E6E7F
:109E400065637465642E00007C3000204469736390
:109E50006F6E6E65637465642E0000005048592073
:109E600075706461746520726571756573742E0018
:109E70004741545420436C69656E742054696D6584
:109E80006F75742E0000000010B51A4C01886068D0
:109E900010290ED011292BD1401E606028D1FEF769
:109EA000D5FE002824D02168002921D0BDE810402B
:109EB0000847D0B900210122084600F099FA08B1FC
:109EC00007280FD107220221012000F091FA08B1E2
:109ED000072807D104220221002000F089FA20B1CE
:109EE000072802D0216801B188476068401C606083
:109EF00010BD0000082B00202DE9F04701883B4EE3
:109F000040F2F3194FF6FF7510291BD011293ED0EE
:109F1000122954D0502946D1C188F289841D91421A
:109F200041D1618902293ED18688304602F040FA4B
:109F3000050038D004F10C0000F0FBF8A8B3294666
:109F400030464EE0C17B8788044601292BD1A846C4
:109F5000284602F02DFA050017D02F800020287225
:109F6000234843464A460168C5F80A104068C5F8C8
:109F70000E0004F1100105F10A0002F0FDFA68720A
:109F8000F08900280FD129462AE0042013E08088B8
:109F900002F00EFA040006D06068FFF70BF808B173
:109FA00007F0AEFF2580BDE8F087FFE76868FFF7A0
:109FB00001F80028F7D0BDE8F04707F0A1BF878877
:109FC0000646384602F0F4F90400ECD02B464A4627
:109FD00006F1080104F10A0002F0CEFA607221468F
:109FE0003846BDE8F04700F0A1BD00005431002024
:109FF000102B00202DE9F04F0746858802883D4848
:10A00000012197B08346102A09D0112A49D01A2A73
:10A010006CD1387AB1EB101F45D2012244E0354CA7
:10A02000083CA068C0430B9061680BA802F0B1FF28
:10A030000B990CA800F014FD2C220CA96846FCF723
:10A0400047FC0026E946A04610E000BF09EB4600A9
:10A050005FF00004B0F804A008EB84005146001D36
:10A0600002F033FF641C1D2CF6D3761C0098B0421E
:10A07000ECD8142D05D317B00420BDE8F04FFEF73F
:10A08000E5BE2946584602F06BFF294608F1040058
:10A0900002F066FFF87B012828D016482946001DEB
:10A0A00015E029461AE000220221B1EB101F01D26F
:10A0B000012600E000260F49083901F11000041DB7
:10A0C000294682B102F04CFF36B12946204617B02E
:10A0D000BDE8F04F02F044BF2946204617B0BDE866
:10A0E000F04F02F0F2BE02F0F0FEF5E717B0BDE867
:10A0F000F08F00007831002010B504460748007842
:10A1000000280AD0204601F081FF204608F0E4F83C
:10A110002046BDE8104001F0A1BC10BD442B00203A
:10A1200070B504460D460846FCF76EFB208065605E
:10A1300070BD007800F00100704700001FB51E4898
:10A140001E49401AC008042101EB00401CA104F084
:10A15000B5F804F04FFC08B1FEF778FE002469461C
:10A160000120009404F0BAFA08B1FEF76FFE0194E2
:10A170009DF80400039420F00F00401C20F0F00034
:10A1800010308DF8040001208DF80500ADF80C406A
:10A190000820ADF80E00029401A94120009A69DF61
:10A1A00008B1FEF753FE684604F032FB002801D0E8
:10A1B000FEF74CFE1FBD00005C6A03007C690300D3
:10A1C000537461636B20696E697420007CB5234C05
:10A1D00064212078C0F1800010FB01F0C11700EB72
:10A1E0005160C2111EA0022300680190012000905E
:10A1F00003213720FDF79CFE012301AA03214620FD
:10A20000FDF7F8FE022317A200210620FDF7F2FE5B
:10A21000207801280CD0C0F18000C0B20521FDF7E4
:10A2200057FEFF20FEF78BFB2078401E20707CBD80
:10A23000104CE068FEF7BEFE4FF4004529460022B0
:10A240006068FEF773FE08B1FEF700FE29460022A3
:10A25000A068FEF76BFEFDF7C2FD7CBDE82A00207A
:10A2600020250000477972666C61636F6E20696E0D
:10A2700069740000F04203000149085C7047000067
:10A2800024430300094908B5085C0090684603F0C0
:10A2900093FDD0F80425009B0121994021EA020397
:10A2A000C0F808351140C0F80C1508BD2043030064
:10A2B0000249085C012103F0E3BD000020430300D4
:10A2C0000249085C002103F0DBBD000020430300CD
:10A2D000084908B5085C0090684603F06DFDD0F8A9
:10A2E00004050099C84010F0010000D0012080F062
:10A2F000010008BD2043030010B500242046FFF7ED
:10A30000D7FF641C042CF9D310BD10B500242046DF
:10A31000FFF7D6FF641C042CF9D310BD10B502461C
:10A32000064B4FF0FF3000215C5C944201D108469F
:10A3300010BD491C0429F7D310BD000024430300BD
:10A3400010B5002000F066F908B1062806D10120FA
:10A3500000F060F908B1062800D1002010BD00000F
:10A360002DE9F0470D468146FFF7D8FF0446042843
:10A3700036D2DFF874801B481C4EA8F10C0725B3B9
:10A38000012D0ED0022D2BD104EB44003044457832
:10A39000002D25D0B968002922D02846BDE8F04715
:10A3A000084704EB4401755C0E44717849B10E4ACC
:10A3B0004FF40041093A8068FEF7B8FD08B987F804
:10A3C0000390B17808F80410E2E78068FEF7F2FD28
:10A3D00004EB4401314418F804008D78A842D7D02A
:10A3E000BDE8F08728430300042B0020F430002050
:10A3F00070B50023042810D20D4D00EB4004012A53
:10A4000002D101290CD00022094E00EB400030445B
:10A4100061B1012906D0022906D00723184670BD74
:10A420000E30C2B22A55F9E74270F7E78270F5E7BD
:10A43000F4300020044A014600201279D20702D0ED
:10A44000084600F003B87047F82A00202DE9F05FB5
:10A450006E4C054600266078B34618B184F801B00A
:10A4600002F0BCF86A4F4FF47A694FF4C87A4FF0A3
:10A470000108182D69D2DFE805F00C131338475492
:10A48000696E727B727BC58484848484B3B6B9BCE4
:10A49000C5C502F0A3F83868FEF78CFD06465CE0FF
:10A4A0000020FFF715FF00284FF0000008D0FFF74D
:10A4B000FFFE022D02D14FF4E16008E0484606E0BD
:10A4C000FFF7FEFE022D01D1C82000E05046410CEE
:10A4D000C0034FF4FA72801841F100012570520058
:10A4E0000023FCF70DF801462AE00020FFF7F0FEFC
:10A4F00000284FF0000004D0FFF7DAFE4FF4487058
:10A50000E5E7FFF7DDFEDFE70020FFF7E1FE0028CB
:10A510004FF0000002D0FFF7CBFECFE7FFF7D0FEF1
:10A52000D4E70020FFF7D4FE00284FF0000002D04F
:10A53000FFF7BEFE01E0FFF7C3FE257041F69A115A
:10A5400000223868FEF7F2FC064646E00020FFF7DE
:10A5500099FE257008E0002051E025703DE084F868
:10A5600001800120FFF78EFE002240F6CD41E8E792
:10A5700084F801800120FFF785FE00224FF480411E
:10A58000DFE77868FEF716FD0646D5F1110000D02A
:10A590002EB10220FFF78CFE84F802B01DE00128E6
:10A5A00016D980B2C8214843C117C90341EA5041B6
:10A5B000C0034FF4FA72801841F1000152000023E9
:10A5C000FBF79EFF014600227868FEF7AFFC0646C7
:10A5D0000220FFF775FE84F802803046BDE8F09F48
:10A5E00001F0FCFFB9E701F0F9FFB4E701F0F6FF75
:10A5F00004E001F0F3FF0020FFF762FE0120FFF707
:10A600005FFEAAE7FFF781FEA7E70000F82A002017
:10A6100028430300012109F0C7B900002DE9F843E0
:10A620000546861C00208DF8000090460F464FF02E
:10A6300001096846FEF764FD1B4C20683860D4E9C8
:10A640000001401AA16804F21C47081A0EE001211B
:10A65000384602F098FC02F0DFF90146384602F075
:10A6600092FCD4E90001401AA168081A401C8642F5
:10A67000EDD8B8F1000F03D0052065F3891002E092
:10A68000062065F39F50A2682168114004EB810108
:10A69000C8602068304420609DF80000FEF754FD3B
:10A6A0004846BDE8F8830000E03C002030B48268F2
:10A6B0000468531C8360A154D0E901128A4202D37A
:10A6C00030BC02F0AABF30BC70470000034803C88A
:10A6D000814201D10120704700207047E03C0020FA
:10A6E0001CB5044601F0B6FD00236A46092105F0B9
:10A6F0000BFE052805D10348012241792046FFF7CA
:10A700002DFA1CBD182B00201CB50021009142F62B
:10A71000A621ADF8001001218DF80210034901AA0D
:10A72000096801916946A0DF1CBD00005443030085
:10A730000249084490F9300070470000E0340020DE
:10A740002DE9F04188B01E46DDF8388014460D0032
:10A75000074602D10020FEF779FB14B90020FEF76E
:10A7600075FB20216846FCF707F99DF80D00ADF850
:10A77000044040F002008DF80D000848ADF800706C
:10A78000ADF8064002958DF8116042466946008892
:10A7900000F006F808B0BDE8F0810000D22B0020E0
:10A7A0002DE9F0438146887891B090460C4600B977
:10A7B00001208DF83E002088ADF83C000025009572
:10A7C000607C694607F070FD6E46A07C711C07F046
:10A7D0006BFDE07B00289DF8020002D040F00800ED
:10A7E00001E020F008008DF80200217C11B140F05A
:10A7F000100001E020F010008DF80200217B11B163
:10A8000040F0010001E020F001008DF80200217D00
:10A8100009B1022100E0012161F342008DF802003C
:10A820001C2102A8FCF7A8F8607BC10601D48006B1
:10A8300017D50E950EAFE07C791C07F035FD9DF81D
:10A840003800079720F00F00401C20F0F000103077
:10A850008DF838009DF83A0020F00600801C8DF835
:10A860003A00607B8DF80800A07B8DF80900142168
:10A8700009A8FCF781F80FA8CDE90906A088ADF872
:10A880003000A06820B1E088ADF82C00A0680D90E1
:10A89000A06998B301950088ADF81000A06901ADDA
:10A8A00001A94088ADF81200A069406806950390A0
:10A8B000A069007B07F0F8FCA069691C407B07F0E9
:10A8C000F3FCA069807A00289DF8060002D040F0D1
:10A8D000080001E020F008008DF80600A169C97A9F
:10A8E00011B140F0100001E020F010008DF80600DA
:10A8F000A169097A19B140F0010002E00DE020F0F1
:10A9000001008DF80600A169897B09B1022100E0F0
:10A91000012161F342008DF80600E06900B1059065
:10A92000434609AA02A94846AADF11B0BDE8F08350
:10A9300070B504464FF6FF750A462846AC4209D169
:10A940004FF480742146104602F0DAFA80B2A04239
:10A950000BD070BDFF2CFCD82146104602F0C0FA87
:10A9600090F0010F01D0204670BD284670BD000058
:10A9700070B5084C050009D010342168002907D0B3
:10A9800008682060496828468847F6E70834F4E7F5
:10A9900070BD0000CC340020054A012120B10128FF
:10A9A00005D19170FFF7E4BF51700020FAE77047BE
:10A9B000CC3400202DE9F05F26484168F1B3DFF880
:10A9C00098B00E688146DBF8004087688078E11B0C
:10A9D00021F07F45ED1CB0B9DFF880804FF4803066
:10A9E000C8F84403C8F804031120FDF7C7F9112083
:10A9F000FDF7CFF94FF0010AC8F800A02F2004F0AE
:10AA0000E9F989F802A0B54200D23546124BE8199F
:10AA10003C3320F07F401860DBF800105A46091BD9
:10AA200021F07F41001B20F07F40C91C81420FD9DB
:10AA3000106818602F2004F0CDF900E004E0BDE8B4
:10AA4000F05F1120FDF7B0B9BDE8F05F06F060BF20
:10AA5000BDE8F09F782C0020041501400010014053
:10AA600073B58CB00646002000900D9880B100248C
:10AA70006D4621460DA802F068FA30B1009805EB4A
:10AA8000400084800098401C0090641C142CF0D37B
:10AA90002C2269463046FBF71BFF0EB070BD2DE936
:10AAA000F04117880646B81D14460D46984202D953
:10AAB0000C20BDE8F0813188072206290AD34FF423
:10AAC000486C4FF6FF73614501D9994202D17088F5
:10AAD000062801D21046ECE7604501D99842F9D129
:10AAE000994203D0984201D08142F3D80520E8551D
:10AAF00020881221401C80B2208029542088401CCC
:10AB000080B220804119308808F048FC2188084430
:10AB100080B220804119708808F040FC21880844E8
:10AB200020800020C5E7FEF791B9000038B54A7AC9
:10AB30000F4B62B100220A725969002906D0012226
:10AB40008DF80020ADF802006846884738BD0A7AC3
:10AB500062B19B684C68024619462046FEF7E6F94A
:10AB60000028F3D0BDE8384007F0CAB95B68F1E7C8
:10AB700054310020F0B587B016460F4604461D46F6
:10AB800018220B496846FBF7A3FE0A488DF80870A7
:10AB9000ADF80240ADF80A608DF80C500178002243
:10ABA0002046FEF7DBFF684600F0EAFB07B0F0BD89
:10ABB000BC440300B42B0020FDF77EBFF0B50C466B
:10ABC00006461E481E4987B0401AC708042000EBFD
:10ABD0000740334622461BA103F07BFB0020049074
:10ABE0000590ADF8104001900290ADF8124001AA16
:10ABF00004A9304690DF05001DD003F0BDFF0346D9
:10AC0000012000EB0740044632461A4903F061FB7D
:10AC1000BDF8042012B9BDF8060028B1BDF8063011
:10AC2000204615A103F055FBBDF808201AB12046B7
:10AC3000214903F047FB07B02846F0BD94690300A3
:10AC40007C6903005570646174696E672064617487
:10AC500061206C656E67746820746F202575206FA5
:10AC60006E20636F6E6E656374696F6E2030782539
:10AC7000782E0000A0550300546865207265717538
:10AC800065737465642054582F5258207061636B4B
:10AC90006574206C656E67746820697320746F6FCB
:10ACA000206C6F6E672062792025752F2575206FC7
:10ACB00063746574732E0000EC55030070B5044690
:10ACC0000948012102F07AF9BFF35F8F00250028BF
:10ACD00008D1204601F01AFE002803D1BFF35F8F90
:10ACE0000148056070BD0000242B00207FB50C4694
:10ACF00010B1012004B070BD2079002638B141F6B2
:10AD00001D5501281BD0022826D00F20F2E7022073
:10AD1000207102960396E0680190694601A806F04A
:10AD200053FD50B102988188E18000882081BDF8F0
:10AD30000010029806F0C6FDDCE70A20DAE70A4BAD
:10AD40006A460021A01D06F0FBFC38B106491839FF
:10AD50008E61CE610A28CDD12846CBE70248818892
:10AD6000019806F0AFFDF5E7A42C002010B50021F6
:10AD7000024802F023F980F3100010BDFC400020CF
:10AD80000E4910B50A784C780023A24212D0521C0A
:10AD9000D2B20A70022A00D10B70084A0B780C322A
:10ADA00052F8232002608868104420F07F408860B9
:10ADB000012010BD0360002010BD0000782C002091
:10ADC00013460A460021FFF7D5BE6FEA0061C90F9E
:10ADD00061F31F10704700000106044900D590314F
:10ADE00000F00F0001EB001070470000CC35002090
:10ADF0002DE9F843104D0F4680461E4691466946A0
:10AE0000286802F036F8040014D01C21FBF7B4FDCA
:10AE100001202071C4F81490380BC4F80080C4E9F4
:10AE200002606946286802F045F806F0F5FB00204C
:10AE3000BDE8F8830420FBE7D046030010B508F016
:10AE400069FB8020FFF7C8FF817B0124032902D022
:10AE50000068002809D18020FFF7B7FF8440E14354
:10AE6000BDE81040014802F094B810BD502C0020FD
:10AE7000812003F0B9BE822003F0B6BE832003F028
:10AE8000B3BE842003F0B0BE852003F0ADBE8620A3
:10AE900003F0AABE872003F0A7BE000038B58825BE
:10AEA00008F038FB2846FFF797FF817B0124032930
:10AEB00015D00068002811D12846FFF786FF84408E
:10AEC000E1430C4802F065F80B480A49806800909D
:10AED0000C398DF8025049686846884738BD2846C5
:10AEE000FFF773FF8440E143BDE83840014802F0BA
:10AEF00050B80000502C00203045030038B508F051
:10AF000009FB0020FFF768FF817B0124032905D09E
:10AF1000006868B1BDE8384002F01BBB0020FFF7B5
:10AF200054FF8440E143BDE838400A4802F031B89C
:10AF30000020FFF74AFF8440E143064802F029F869
:10AF400005480449C0680C3900904968684688473C
:10AF500038BD0000502C002030450300012003F0D4
:10AF60005FBE022003F05CBE032003F059BE042044
:10AF700003F056BE052003F053BE062003F050BE7A
:10AF8000072003F04DBE000038B5082408F0C2FACF
:10AF90002046FFF721FF817B032915D00068002898
:10AFA00012D12046FFF711FF01218140C943074814
:10AFB00001F0EFFF06480549406900900C398DF813
:10AFC000024049686846884738BD0000502C002080
:10AFD0003045030070B5134804680460BFF36F8FF9
:10AFE000BFF34F8F02F0A8FA38B10F48016921F082
:10AFF000011201F001111443016101266CB194FAB0
:10B00000A4F0B0FA80F52846FEF702FA06FA05F138
:10B010008C43294608F0E0FBF0E7BDE8704008F0FB
:10B020008FBA00006C740240442C002010B5054C0F
:10B03000A078FFF7CAFE0146A078BDE8104008F0EE
:10B04000CBBB0000442C0020F8B51A4800681A4D0C
:10B05000C6B2A878FFF7B9FE012404FA00F12889E6
:10B06000EA68C04380B21043014202D0A87808F0D9
:10B0700029FB06F08000A8700020FFF7A6FE04FA66
:10B0800000F68020FFF7A1FE04FA00F006430A480C
:10B09000F1430C3001F07DFF8020FFF796FE8440E5
:10B0A000A86804430548AC60006A00906968684677
:10B0B0008847F8BD80740240442C002030450300CE
:10B0C00038B5002000900F480068ADF802008820D5
:10B0D000FFF77BFE012505FA00F40A486038006896
:10B0E00040B1C10301D4401C04D00820FFF76DFE1D
:10B0F00085402C4304498868204388604968684635
:10B10000884738BD20750240442C0020704700005D
:10B11000F8B518480568284603F0C8FDBFF36F8FDF
:10B12000BFF34F8F144E154CE80506D50120607013
:10B13000706A0090616868468847A8054FF000076C
:10B1400005D56770B06A00906168684688476805F1
:10B150000ED5607800280BD067700949012008607F
:10B16000582003F0ADFDF06A00906168684688479A
:10B17000F8BD00000074024030450300442C00205C
:10B1800008750240054908B50020487088700448D9
:10B190004068009049686846884708BD442C0020F4
:10B1A0003045030010B503780022072B06D2DFE8F4
:10B1B00003F005040610202930000A7010BD012399
:10B1C0000B7003898B818388CB81C06888600A7487
:10B1D00010BD02220A7002898A818288CA81C268EF
:10B1E0008A60807D062802D00020087410BD0120EE
:10B1F000FBE703220A70C2888A810289CA81C0687B
:10B20000886010BD04230B70C0888881CA818A6061
:10B2100010BD0520087010BD70B5064D064600240F
:10B2200055F8241009B130468847641C042CF7D324
:10B2300070BD00009839002030B50446006887B022
:10B240000D46806800281FD018216846FBF794FB44
:10B250000195A0680590207910B1012810D107E070
:10B2600001208DF8000020690290E068039005E05D
:10B2700002208DF80000E0680003029060690490ED
:10B28000206881686846884707B030BD2DE9F041E5
:10B2900086B016460C00804629D0112C27D0082CE9
:10B2A00025D018216846FBF767FBADF802804046C1
:10B2B00000F0D0FFADF804001B481C490027401ADD
:10B2C000C5080D2C16D0204603F056FC024601207E
:10B2D00000EB05404346164902F0FBFF07208DF8BE
:10B2E000000002948DF80C70684600F057F806B024
:10B2F000BDE8F081022000EB054042460D4902F016
:10B30000E1FF03208DF8000026B13078C00701D09E
:10B31000012000E002208DF8080041F201108DF8B4
:10B320000C70ADF80A00DFE7C46903007C69030014
:10B33000B05F0300A05E030010B50446408800F033
:10B3400089FFA080024801682046BDE810400847F8
:10B35000202B00202DE9F04107460024064E074D22
:10B3600005E000BF56F8241038468847641CE8788A
:10B370008442F7DBBDE8F08180340020442B0020BC
:10B3800010B50446408800F065FFA08002480168BF
:10B390002046BDE810400847704403000149096891
:10B3A00008470000FC44030070B586B0044618212D
:10B3B0006846FBF7E1FAA0890125A0F54040ADF809
:10B3C00004002078324E062835D2DFE800F034033E
:10B3D00003032E4EA08900F09EF930B9E08943F6B0
:10B3E000FE71A0F54040884225D8A07B8DF808006A
:10B3F0002078032811D000208DF80900A068039060
:10B40000606860B109208DF80000606804908DF8D4
:10B410001450684604F0CAFE0DE00120ECE7082055
:10B420008DF800008DF81050F3E7A08900F073F953
:10B4300008B1E08930B17078002801D005F000F83B
:10B4400006B070BD606840B10B208DF800006068E8
:10B4500002908DF80C507570DBE70A208DF8000023
:10B46000BDF8040005F08AF8F5E7606858B11420CB
:10B470008DF80000606802908DF80C504FF6FF7058
:10B48000ADF80400C5E713208DF80000F6E70000D2
:10B49000302B002038B504460E480078A8B1A4F53A
:10B4A0007F40FF380FD0684605F0E8FF78B10521EE
:10B4B000017001210171C480684605F0EDFF06F0BE
:10B4C0009DF8002038BD042038BD022038BD08207A
:10B4D00038BD0000AC2C00200C4808B5007888B1BD
:10B4E000684605F0CBFF78B106210170684605F08B
:10B4F000D3FF0748017809B10121017306F07EF8F6
:10B50000002008BD022008BD082008BDAC2C00208A
:10B510005C3A0020F0B587B014216846FBF72CFA9E
:10B520002B4C207818B16846FFF776FE4EE0201DC0
:10B5300001F026FDB8BB4FF01020416900040269FC
:10B5400040694B1C01D100FB02F12248002201613D
:10B55000A1F54051C160204902F0F4F9002820D142
:10B560001F481C238C221D49006801F06FFC04F069
:10B57000AFFB051E14D0022812D000270126062D8D
:10B5800012D005A805F07AFF88B106700C2D18D2EC
:10B59000DFE805F0170F170F1716171617111311FD
:10B5A0000B2007B0F0BD11E026706760BBE70820F4
:10B5B000F7E7077105E0032100E00221017100E0D7
:10B5C000067105A805F068FF06F018F80020E8E706
:10B5D000AC2C0020682D0020E0460300A839002094
:10B5E0004846030038B5040014D0694606F0ECF86C
:10B5F000A0B1BDF8000000EB8001094800EB81001C
:10B60000C16849B1A17A39B1C168491EC160002041
:10B61000A07238BD052038BD062038BD0A2038BDCF
:10B62000343A00201FB501A9684606F089F804B035
:10B6300010BD07B513460A466946002006F080F89B
:10B640000EBD07B513460A460021684606F078F895
:10B650000EBD20B119B100680860002070470520B8
:10B6600070470000F8B50D46040018D0BDB169461A
:10B6700006F0AAF8A8B1BDF800000B4900EB800065
:10B6800001EB800001210C30666801F07CFC2E602B
:10B6900060680C3068600120A0720020F8BD0520B1
:10B6A000F8BD0A20F8BD0000343A002018B1032389
:10B6B000002208F0C5BA052070470223002208F0D6
:10B6C000BFBA0000084910B50A69042A0AD0074A1F
:10B6D000096942F8210004480121103001F053FCAF
:10B6E000002010BD0C2010BD8C2C002098390020AB
:10B6F000826883881A4003689A5C0A708168491CD2
:10B7000081607047C26883881A4003689954C16891
:10B71000491CC160704743F6FE71A0F54040884265
:10B7200001D8012070470020704710B5044600780A
:10B73000182802D1FEF7EEF9207010BD10B50446AE
:10B740000078182802D1FEF7E5F9207010BD70B519
:10B750000D460446B0F83812D0F834020122FDF745
:10B7600020FF00B1057004F13C0204F50D7104F1F5
:10B77000540072DF70BD000070B51346002205460C
:10B78000112900D10122074C33B12179FEF7E6F9E6
:10B7900000226178284600E06178BDE87040FEF73D
:10B7A000DDB90000BC2B0020F7B517460E0011D004
:10B7B0000098002560B100242146684601F0C5FBD1
:10B7C00018B1A0B23946B0476D1C641C142CF3D3D9
:10B7D0002846FEBD0020FEBD10B50446C0B2FDF7F0
:10B7E00065FC204610BD406805F068BE0EB51B48DC
:10B7F0001B49401AC008042101EB004019A102F0C6
:10B800005DFD9DF808001AA120F00F00401C20F0FB
:10B81000F00010308DF80800082202A87CDF08B183
:10B82000FDF714FB40F2C33078DF08B1FDF70EFBE3
:10B8300000204FF4C87100900190ADF80400ADF8FD
:10B8400000104A00ADF80220ADF8061068467ADF15
:10B85000002801D0FDF7FAFA0EBD00005C6A030073
:10B860007C69030047617020696E6974202E0000B6
:10B870004172746963616E610000000070B508B1C7
:10B88000012070BD194C0025207B08B1257301E013
:10B8900000F0A0F82078082826D2DFE800F0250480
:10B8A000080C10251420BDE8704000F021B8BDE858
:10B8B000704000F07DB8BDE8704000F05FB8BDE8B2
:10B8C000704000F03BB86088084900EB80002839E0
:10B8D00001EB80004068BDE8704004F0D9B96560B4
:10B8E000BDE8704004F0E2B90F2070BD5C3A002062
:10B8F0001149F0B48A1C00200346A1F128050C1858
:10B90000A67A4EB1A37200EB800405EB8404E668CE
:10B9100016B9247C012C0AD0401C80B20228EED338
:10B920000B704B804B60F0BC41F61D50704710808F
:10B93000F0BC00F03DB800005C3A00200C484188A3
:10B9400001EB8102A0F1280101EB8201CA6852B12A
:10B95000052101700748022181800168002301222E
:10B96000054801F053BF042202704968F6E7000061
:10B970005C3A0020B42C0020682D002038B50A491C
:10B98000084803240B684268898803EB81015388C7
:10B990000470DB1C00201B0400909B0B034802F08A
:10B9A00089F838BD5C3A0020B42C0020682D0020B6
:10B9B000074910B54888091D05F056FF18B1BDE8C4
:10B9C0001040FFF7DBBFBDE81040FFF7B7BF000036
:10B9D0005C3A0020F0B51F481F4901250678022473
:10B9E0008B88A0F12802082E19D2DFE806F004188F
:10B9F000181B222F2F170189491C0181002141802A
:10BA000080F80C1001EB810312F8233043B10023BE
:10BA10004418491C89B2A3720229F3D30570F0BD02
:10BA20000123F5E742685288D21C1A448A800470C8
:10BA3000F0BD46880D6806EB860602EB8602566866
:10BA40000E60556013818C80062100E00721017093
:10BA5000F0BD00005C3A0020B42C00202DE9F0413C
:10BA6000044680882188394E86B00746352937D06C
:10BA7000502923D0522902D054295DD102E000F090
:10BA8000E9FE59E0182232496846FAF721FFADF87D
:10BA90000270384600F0DEFBADF8040000F05AF901
:10BAA000002231793846FEF759F80022F1783846FD
:10BAB000FEF754F86846FFF73FFC3DE0207B012885
:10BAC0003AD1A07A012837D12089A0F52451023932
:10BAD00032D10121384600F011FF07F0CFFC2BE0F6
