:020000040000FA
:1000000070200020150200001D0200001F020000E9
:100010002102000023020000250200000000000071
:1000200000000000000000000000000027020000A7
:1000300029020000000000002B0200002D02000039
:100040002F0200002F0200002F0200002F020000EC
:100050002F0200002F0200005D0200002F020000AE
:100060002F0200002F0200002F0200002F020000CC
:100070002F0200002F0200002F0200002F020000BC
:100080002F0200002F0200002F0200002F020000AC
:100090002F0200002F0200002F0200002F0200009C
:1000A0002F0200002F0200002F0200002F0200008C
:1000B0002F0200002F0200000000000000000000DE
:1000C0002F0200002F0200002F0200002F0200006C
:1000D0002F0200002F0200002F0200002F0200005C
:1000E0002F0200002F0200002F020000000000007D
:1000F000000000002F020000000000002F0200009E
:1001000000000000000000000000000000000000EF
:1001100000000000000000000000000000000000DF
:1001200000000000000000000000000000000000CF
:1001300000000000000000000000000000000000BF
:1001400000000000000000000000000000000000AF
:10015000000000000000000000000000000000009F
:10016000000000000000000000000000000000008F
:10017000000000000000000000000000000000007F
:10018000000000000000000000000000000000006F
:10019000000000000000000000000000000000005F
:1001A000000000000000000000000000000000004F
:1001B000000000000000000000000000000000003F
:1001C000000000000000000000000000000000002F
:1001D000000000000000000000000000000000001F
:1001E000000000000000000000000000000000000F
:1001F00000000000000000000000000000000000FF
:10020000DFF80CD000F018F8004800475D0A000045
:10021000702000200648804706480047FEE7FEE7BA
:10022000FEE7FEE7FEE7FEE7FEE7FEE7FEE7FEE7A6
:100230009904000001020000064C074D06E0E0684A
:1002400040F0010394E8070098471034AC42F6D31D
:10025000FFF7DAFF50120000701200002DE9F04F96
:100260008DB0002700200B900C904FF480700A9006
:100270000126002412E00A9800F0B2FC40B100BF51
:100280007E480068304018B10A9800F09BFC374364
:1002900076000A98001D80B20A90641C082CEAD3EC
:1002A0004FF4BE7000F09CFC50B14FF4BE7000F0F3
:1002B00089FC47F000470BAA0221002000F066FCF1
:1002C000F8B200B3012600241BE006EA0700B0B133
:1002D00000BF6B4850F82400C0F30520804600BFE3
:1002E000674850F82400C0F301408146204600F0E2
:1002F00067FA054615B149464046A84700BF760053
:10030000641C082CE1D307F0004000287DD04FF09A
:10031000000B002008900990002505E04FF0FF3009
:1003200006A941F825006D1C022DF7D300BF4FF040
:10033000000B002463E05348005D0590059820F011
:10034000C00004904F480057401C002856D006A912
:10035000049800F089FB002850D005984FEA9019C6
:10036000049800F075FA804600F02AFA039003988A
:1003700010B9B9F1030F40D1B9F1030F03D108A9A6
:10038000049800F07CFB0498029002A800F0D4FBD3
:100390000190019800F5E060029950F82100C0F347
:1003A000014800BF0BA9049800F05EFB8246BAF139
:1003B000000F02D0B8F1020F05D0BAF1000F1BD127
:1003C000B8F1030F18D1B9F1030F0FD1B8F1020F33
:1003D00001D1032000E0022002900299049800F06D
:1003E00081FB0BF1010000F0FF0B00BF039818B177
:1003F0004946DDE90320904700BF00BF641C002C84
:1004000099D0BBF1000F31D000E034E04FF001088B
:1004100004AA0221002000F0B9FB00250BE004A88B
:1004200050F825000BA951F82510884202D04FF052
:10043000000802E06D1C022DF1D300BFB8F1000FDF
:1004400002D04FF0000B10E000250CE004A850F89B
:1004500025000BA941F8250008A850F8250006A999
:1004600041F825006D1C022DF0D300BFBBF1000F39
:100470007FF45DAF00BF0DB0BDE8F08F04630040B6
:10048000106500406800002001480249086070477C
:100490000090D0031000002010B500F025FA40B104
:1004A0000020794908604FF08041C1F81001774978
:1004B000086000F035FA002855D075480068754985
:1004C00008607348001D0068091D08607048083006
:1004D0000068091D08606E480C300068091D08603E
:1004E0006B4810300068091D0860694814300068C6
:1004F000091D0860664818300068664920310860A8
:1005000063481C300068091D08606148203000689D
:10051000091D08605E4824300068091D08605C48B9
:1005200028300068091D086059482C300068091DF2
:1005300008605748303000685649403108605448D8
:1005400034300068091D0860514838300068091DC2
:1005500008604F483C300068091D08604C48403036
:100560000068091D086000F0F7F910B14A484B49CE
:10057000086000F073F910B1FB204949086000F0F1
:100580007BF938B1474801784748006861F30300B8
:100590004549086000F07EF918B14FF400704349F6
:1005A000086000F085F940B14148006800F00100A2
:1005B00018B16FF001003E4908603E48006840F401
:1005C00070003C49086000BF00BF00BFBFF34F8F01
:1005D00000BF00BF00BF00BF00BF00BFBFF36F8FF1
:1005E00000BF00BF00BF3448006800F0004030B9D1
:1005F0003148001D006800F00040002840D0012074
:100600002E49086000BF2E4800680028FBD0122049
:100610002949086000BF2A4800680028FBD0122141
:100620002548001D016000BF254800680028FBD058
:1006300000202249086000BF214800680028FBD044
:1006400000BF00BF00BF00BF00BFBFF34F8F00BFA0
:1006500000BF00BF17487C38006800F4E06019490B
:100660000843001D13497C39086000BF00BF00BF6C
:10067000BFF34F8F00BF00BF00BF00BF00BFFDE74B
:10068000FFF702FF10BD00000C01004038050040DC
:100690000404001020C50040488103008C5600402F
:1006A00018F5004058020010E40E00404096024049
:1006B0000004004088ED00E00012001004E5014055
:1006C00000E401400000FA0502E008C8121F08C15A
:1006D000002AFAD170477047002001E001C1121FC3
:1006E000002AFBD17047000072B600BF13480068B3
:1006F00000F0010000B100BE00BF00BF00BF00BF9E
:1007000000BF00BFBFF34F8F00BF00BF00BF0B484B
:10071000E438006800F4E06009490843001D074917
:10072000E439086000BF00BF00BFBFF34F8F00BFB8
:1007300000BF00BF00BF00BFFDE70000F0ED00E01C
:100740000000FA053EB5044600200090019002909A
:1007500002946A46002144F20100FFF7C5FF3EBD46
:1007600000B5024600F006F800BD00B5024600F0F4
:100770000BF800BD72B603480068401C01490860D0
:10078000704700000C00002004480068401E034928
:1007900008600846006800B962B670470C00002087
:1007A0004FF0FF31054A42F82010082804DBFF23F0
:1007B000A0F1080154325354704700001400002087
:1007C0000146024850F82100704700001400002044
:1007D0002DE9F04F03460C464FF0FF390AB10020D7
:1007E00000E0082084460AB1082000E00920804685
:1007F000614624E0154850F82100401CF0B91D4620
:100800000846274616464FFA80FBDFF840A00AF15B
:10081000240A0AF805B0DFF834A04AF820704EB96F
:100820004FFA85FBA0F1080ADFF820E00EF1540E24
:100830000EF80AB000BF4FFA81F902E0491C4145A9
:10084000D8D300BF4846BDE8F08F00001400002058
:1008500001460148405670473800002005480068AE
:10086000082805D10348001D006808B90120704719
:100870000020FCE73001001005480068082805D179
:100880000348001D006808B9012070470020FCE7FC
:100890003001001005480068082805D10348001DF4
:1008A000006808B9012070470020FCE73001001003
:1008B0000C480068082812D10A48001D006808B9D1
:1008C000012070470748001D0068012800D1F8E7A3
:1008D0000448001D0068022801D10120F1E7012031
:1008E000EFE70000300100100C480068082812D122
:1008F0000A48001D006808B9012070470748001D1C
:100900000068012800D1F8E70448001D00680228AB
:1009100001D10120F1E70120EFE7000030010010D4
:100920000C480068082812D10A48001D006808B960
:10093000012070470748001D0068012800D1F8E732
:100940000448001D0068022801D10120F1E70120C0
:10095000EFE700003001001005480068082805D1C5
:100960000348001D006808B9012070470020FCE71B
:10097000300100107CB500F031FA044600BF254676
:1009800025B100BF2846FFF7DDFE00BF00BF2048AD
:100990000068019001A90D2000F082FA044600BF12
:1009A000254625B100BF2846FFF7CCFE00BF00BF9B
:1009B00001A90E2000F074FA044600BF254625B1B7
:1009C00000BF2846FFF7BEFE00BF00BF0D2000F0AD
:1009D000DBFA0E2000F0D8FA0D48001D00680090E8
:1009E00003208DF80100002269460B2000F07AF9FF
:1009F000044600BF254625B100BF2846FFF7A2FEEA
:100A000000BF00BF01210B2000F016F97CBD0000E3
:100A10000412000010B50446204600F05DFB0449B6
:100A20000968084008B1012010BD0020FCE7000063
:100A30000400002070B50446204600F04DFB05463A
:100A4000012070BD10B50446204600F045FBC0F300
:100A5000130008B1012010BD0020FCE7FFF78AFF5A
:100A600000F078FB00BFFEE730B502460B46D40825
:100A700002F00702012090401D5D284030BD30B5D6
:100A80000B46C20800F007009C5C012585402C4302
:100A90009C5430BD0548007818B9012003490870FE
:100AA00001E0852070470020FCE7000009000020DD
:100AB0002DE9FF470C4615461E46DDE90C786846D1
:100AC00000F03AF8814644EA450040EA860040EAF0
:100AD000072040EA084109F5E060009A40F822103A
:100AE000BDE8FF8773B50D46684600F025F804465B
:100AF00004F5E060009950F8210020F4403104F53D
:100B0000E060009A40F82210009950F8210040EA75
:100B1000054104F5E060009A40F822107CBD31B533
:100B2000684600F009F804460121009A01FA02F033
:100B3000C4F80C0500BF38BD01460868202802D261
:100B40004FF0A0407047087800F01F00086001488F
:100B5000F8E700000003005031B56846FFF7ECFFEE
:100B6000044600BFD4F810050099C84000F0010009
:100B700038BD31B56846FFF7DFFF04460121009A12
:100B800001FA02F0C4F8080500BF38BD3CB50B46B9
:100B9000084D30CDCDE90045014606E05DF8214025
:100BA000D4F810551560121D491CC4188C42F5D894
:100BB0003CBD00000C12000001460148084470478B
:100BC0000060004038B504462046FFF7F5FF0021DD
:100BD00001602046FFF7F0FF0068009000BF38BDBD
:100BE00010B504462046FFF7E7FF0068012800D152
:100BF00010BD0020FCE700000149086070470000BC
:100C0000046300400146014808447047006000400A
:100C100070B504464FF4BE75204600F085FA30B139
:100C20002046FFF715FE800000F5807085B228464B
:100C3000FFF7C2FF70BD00002DE9F04706460D46E4
:100C4000304600F065FAE0B13046FFF701FE0838A3
:100C500022490F5CBC11032C08D13046FFF77CFF02
:100C600008B1032000E00220804605E0012C01D1FC
:100C7000022000E00320804641463046FFF732FF65
:100C80002AE0304600F050FA30B33046FFF7E0FD7E
:100C90000446A00000F5807087B22046104951F844
:100CA000201041F001020E4941F8202000BF3846D3
:100CB000FFF788FF7DB13046FFF7CAFD8146FFF799
:100CC0007FFD8046B8F1000F04D0012101FA04F045
:100CD000FFF792FF00BF00BFBDE8F087680000206B
:100CE000106500402DE9FC4706460D4617464FF0BB
:100CF0000008304600F0FEF910B14FF0080864E03B
:100D0000A878C0F3400239463046FFF761FD04463B
:100D1000601C002856D0A878C0F3800030BBA878AB
:100D200000F0010090B1019601A8FFF705FF814690
:100D300009F5E060019950F8210020F0020A09F558
:100D4000E060019940F821A000BF0CE095F8019007
:100D5000002000904B460246014601903046FFF7C6
:100D6000A7FE00BF00BF304600F0BAF9A878C0F374
:100D70004000D0B12878164951F82410154A114086
:100D8000134A42F82410114651F824104FF47C52B3
:100D900002EA06224FF4403303EA00431A431143A8
:100DA0000B4A42F8241000BF0EE0A4F108000A49E3
:100DB000085C297840EA811042B2A4F10800064993
:100DC0000A5401E04FF0040800BF4046BDE8FC872C
:100DD00010650040FFC0FCFF680000202DE9F041D5
:100DE0002B4890F85B0018B108252846BDE8F08133
:100DF000002404E0204600F0A7F9601CC4B2302CA7
:100E0000F8DB002404E02046FFF7CAFC601CC4B2F3
:100E1000092CF8DB1E485530002101608180062234
:100E2000134610461946002809DA4E074FEA166C99
:100E3000184E00F00F073F1F06F807C003E04E07EB
:100E4000370E154E375400BF00BF062000BF0121EA
:100E50008140124A430942F8231000BF00BF01211C
:100E600081404209920002F1E022C2F8001100BF65
:100E700000BF4FF4BE70FFF7A5FE4FF00040FFF734
:100E8000BBFE0120024981F85B0000252846ADE742
:100E90001400002018ED00E000E400E080E200E033
:100EA0002DE9FC4104460E46002720462D490956EF
:100EB000491C09B1012100E0002109B108274DE0DA
:100EC000B07860B3012200212046FFF781FC05467F
:100ED000681C10B330787178234A52F82520234BD0
:100EE0001A40214B43F825201A4652F825304FF47A
:100EF0007C5202EA04224FF4403C0CEA004C42EAE5
:100F00000C024FF4801C0CEA015C42EA0C02134311
:100F1000154A42F8253000BF00E0042705E000BF75
:100F2000FE211048015500BF00BFBFB970780128ED
:100F300003D12046FFF71DFE02E02046FFF7EFFD3C
:100F400000BF002000900346012211460190204678
:100F5000FFF7AEFD00BF204600F0C2F83846BDE8FE
:100F6000FC8100003800002010650040FFC0ECFF4D
:100F700070B504462046FFF76BFC8006050E284638
:100F8000FFF740FE70BD000010B50146064A5056FE
:100F9000064C04EB8003D3F8103543F00302044BF6
:100FA00043F8202000BF10BD380000200060004042
:100FB000106500402DE9F041064600270025042772
:100FC000154D002422E00020FFF7CAFB204600F068
:100FD00083F8284078B12046FFF71CFD58B900BFC0
:100FE000204600F079F80D49096808430B4908606C
:100FF00000BF347000270020FFF7B7FB07B907E0F8
:10100000204600F069F88543601CC4B2002DDAD197
:1010100000BF3846BDE8F081FFFF0F00040000204C
:101020002DE9F04106460C46154604B115B90E20CF
:10103000BDE8F08100273046FFF704FD08B9072717
:101040000EE03046FFF7E6FC08B9082708E000BFCD
:10105000044840F8364000EBC600456000BF00BFC2
:101060003846E5E710F5014070B5044600252046F6
:10107000FFF7E0FC08B9072510E02046FFF7E2FC87
:1010800028B12046FFF7C6FC08B9082506E000BFD6
:101090000120A0400249086000BF00BF284670BD83
:1010A00004F5014070B505460C4600262846FFF7BA
:1010B000C9FC08B907260BE02846FFF7ABFC08B9C6
:1010C000082605E000BF034840F8254000BF00BFE8
:1010D000304670BD10F9014001460120884070473C
:1010E00010B5044602492046FFF7C9FC10BD0000B8
:1010F00069000020014605484056012202EBE070DD
:1011000008B1012070470020FCE7000038000020F3
:10111000014604484056082801DB012070470020A2
:10112000FCE7000038000020014606484056002831
:1011300005DB04484056082801DA012070470020EA
:10114000FCE7000038000020FF2201490A547047E4
:101150003800002070B50024FFF79CFC044600BF57
:10116000254625B100BF2846FFF7ECFA00BF00BFB7
:101170002348FFF71FFF044600BF254625B100BFE7
:101180002846FFF7DFFA00BF00BF0D20FFF7F0FE93
:1011900005460B20FFF73CFD06462A463146184817
:1011A0000078FFF73DFF044600BF254625B100BF8C
:1011B0002846FFF7C7FA00BF00BF0E20FFF7D8FE92
:1011C000054629460E480078FFF76CFF044600BF2D
:1011D000254625B100BF2846FFF7B4FA00BF00BF7F
:1011E00007480078FFF740FF044600BF254625B1B9
:1011F00000BF2846FFF7A6FA00BF00BF70BD000081
:101200000000002003010100020002000000005065
:10121000000300506E7266785F6770696F74655F77
:10122000696E6974006E7266785F6770696F746565
:101230005F6F75745F696E6974006E7266785F6760
:1012400070696F74655F696E5F696E697400000034
:10125000701200000000002014000000C80600000A
:1012600084120000140000205C200000D80600005A
:10127000000000000000000000000000000000006E
:041280000090D00307
:0400000500000201F4
:00000001FF
