:020000040000FA
:10000000D0220020150200001D0200001F02000087
:100010002102000023020000250200000000000071
:1000200000000000000000000000000027020000A7
:1000300029020000000000002B0200002D02000039
:100040002F0200002F020000B10400002F02000068
:100050002F0200002F0200002F0200002F020000DC
:100060002F0200002F0200002F0200002F020000CC
:100070002F0200002F0200002F0200002F020000BC
:100080002F0200002F0200002F0200002F020000AC
:100090002F0200002F0200002F0200002F0200009C
:1000A0002F0200002F0200002F0200002F0200008C
:1000B0002F0200002F0200000000000000000000DE
:1000C0002F0200002F0200002F0200002F0200006C
:1000D0002F0200002F0200002F0200002F0200005C
:1000E0002F0200002F0200002F020000000000007D
:1000F000000000002F020000000000002F0200009E
:1001000000000000000000000000000000000000EF
:1001100000000000000000000000000000000000DF
:1001200000000000000000000000000000000000CF
:1001300000000000000000000000000000000000BF
:1001400000000000000000000000000000000000AF
:10015000000000000000000000000000000000009F
:10016000000000000000000000000000000000008F
:10017000000000000000000000000000000000007F
:10018000000000000000000000000000000000006F
:10019000000000000000000000000000000000005F
:1001A000000000000000000000000000000000004F
:1001B000000000000000000000000000000000003F
:1001C000000000000000000000000000000000002F
:1001D000000000000000000000000000000000001F
:1001E000000000000000000000000000000000000F
:1001F00000000000000000000000000000000000FF
:10020000DFF80CD000F02AF8004800476908000029
:10021000D02200200648804706480047FEE7FEE758
:10022000FEE7FEE7FEE7FEE7FEE7FEE7FEE7FEE7A6
:10023000D50200000102000040EA01039B0703D041
:1002400009E008C9121F08C0042AFAD203E011F815
:10025000013B00F8013B521EF9D27047064C074D96
:1002600006E0E06840F0010394E807009847103486
:10027000AC42F6D3FFF7C8FFE813000008140000F3
:100280001FB50B4800900B494FF48070CDE9010178
:1002900003900723084A6946084800F083F90028BC
:1002A00004D004B0BDE8104000F048B91FBD000004
:1002B000CC000020CC010020931000004000002062
:1002C00010B5044600F08CFB2046BDE8104000F05D
:1002D00093BB000030B54FF0805000228300D0F86F
:1002E0003011C3F80C21C3F81021624B1A60624B25
:1002F0001B68624C2360604B1B1D1B68241D236020
:100300005D4B08331B68241D23605B4B0C331B685B
:10031000241D2360584B10331B68241D2360564B4B
:1003200014331B68241D2360534B18331B68534C34
:1003300020342360504B1C331B68241D23604E4B1C
:1003400020331B68241D23604B4B24331B68241D62
:100350002360494B28331B68241D2360464B2C33F4
:100360001B68241D2360444B30331B68434C4034CE
:100370002360414B34331B68241D23603E4B3833CC
:100380001B68241D23603C4B3C331B68241D2360E9
:10039000394B40331B68241D23600124082902D1F6
:1003A000D0F8343113B1082904D006E0354B344974
:1003B000196005E0D0F8343113B1082904D006E003
:1003C000314BFB21196005E0D0F8343113B1082915
:1003D00008D00EE090F858322C48016863F303010E
:1003E000016002E0D0F834311BB929494FF40070A4
:1003F000086028480168C90702D06FF00101016058
:100400002548016841F470010160BFF34F8FBFF3CD
:100410006F8F4FF01021D1F80002002803DBD1F8D4
:100420000402002822DA1D4B1C601D480468002CC1
:10043000FCD01224C1F800420568002DFCD0C1F8A0
:10044000044201680029FCD01A6001680029FCD030
:10045000BFF34F8F10487C380168124A01F4E06105
:1004600011430160BFF34F8F00BFFDE70F490E48F6
:10047000086030BD380500400404001020C500406D
:10048000488103008C56004018F50040E40E0040FF
:10049000409602400004004088ED00E004E5014081
:1004A00000E401400400FA050090D0035800002049
:1004B000014800680047000014000020014A02497A
:1004C00000F013B8DB0700003C00002002E008C881
:1004D000121F08C1002AFAD170477047002001E0BE
:1004E00001C1121F002AFBD170472DE9F0411646C9
:1004F0000F460446002503E03946B047641C6D1CD6
:1005000020780028F8D12846BDE8F08172B6094865
:100510000068C00700D000BEBFF34F8F0548E43825
:100520000168054A01F4E06111430160BFF34F8F98
:1005300000BFFDE7F0ED00E00400FA050EB5002174
:100540000091CDE901106A4644F20100FFF7DEFF99
:100550000EBD10B58268C368934203D000F02AF93B
:10056000002010BD052010BD29B112B1531E134249
:1005700003D0092070470E2070470160838000215E
:100580008160C1600846704710B58268C3689A1AD6
:1005900083889A4203D800F017F9002010BD042088
:1005A00010BD0000F0B5244E89B01F460D00044672
:1005B00072603FD0A888296882B22048FFF7D4FF34
:1005C000002835D1A889A96882B21C481030FFF7ED
:1005D000CBFF00282CD1202219496846FFF72CFEBA
:1005E00060690690207C00B101208DF814008DF820
:1005F0001C70607C00B10E208DF81500E068029040
:10060000A068039020680190606800900A480D4A35
:100610006946083000F038F9002809D1B070206828
:10062000401C05D004490122491CC81D00F060F996
:1006300009B0F0BD0720FBE71C000020AC00002043
:10064000C8130000A510000010B501461048FFF7C0
:100650009BFF040019D10F480F4A0178515C19B172
:10066000001D00F09FFC02E00C3000F083FB60B93D
:10067000084907480839FFF76CFF30B905490122DE
:100680000839044800F044F90446204610BD000033
:10069000BC000020240000200000002000F002B870
:1006A00000F008B872B602480168491C0160704742
:1006B0003800002003490868401E086000D162B677
:1006C000704700003800002070B5054608680C46E9
:1006D000411C04D000F0C4F9206800F06DF9606896
:1006E000411C02D0002100F055F92968A069C1F829
:1006F0002405607D227D29681043C1F86C05D4E98A
:1007000000122868C0F81425C0F80C15207D0128B7
:1007100014D1A068411C02D0002100F03BF9E06830
:10072000411C04D000F09CF9E06800F045F9D4E9E0
:1007300002122868C0F80825C0F8101570BD70B501
:10074000054608680C46411C04D000F093F9206867
:1007500000F03CF96068411C02D0002100F023F950
:100760002968A069C1F82405607D217D2A680843B5
:10077000C2F86C05D4E900122868C0F80C15C0F85E
:100780001425207D012814D1A068411C02D000212D
:1007900000F009F9E068411C04D000F06BF9E06852
:1007A00000F014F9D4E902122868C0F80825C0F84E
:1007B000101570BD826883881A4003689A5C0A70BD
:1007C0008168491C81607047C26883881A40036849
:1007D0009954C168491CC160704710B50446C0B245
:1007E000FFF732FF204610BD70B50D460446006885
:1007F0004FF4887100F05EF94FF49071206800F0BA
:1008000059F94FF49271206800F054F94FF4A27135
:10081000206800F04FF920681249C0F804132068DE
:10082000690740F30730090E002806DA00F00F00D0
:1008300000F1E02080F8141D03E000F1E02080F8D2
:1008400000142068012140F3073000F01F0291409E
:100850004009800000F1E020C0F88012C0F80011CB
:1008600070BD00001003020010B51120FFF728FD35
:10087000FFF706FD02A0FFF721FE002010BD0000DB
:10088000776F726B696E6700F0B50546047815489E
:1008900089B0164640F82420124A08690832A2F1AD
:1008A0000C0742F82400487F385520226846FFF79D
:1008B000C3FC04942878385C48B10EB10A4A00E0C1
:1008C00000226946281D00F06DFA09B0F0BD0EB196
:1008D000064A00E00022694605F10C0000F018F914
:1008E000F3E70000040000209D1200004511000005
:1008F00030B40378054CE35C1BB130BC001D00F044
:1009000087BA30BC0C3000F06DB900000000002048
:1009100030B40378054CE35C1BB130BC001D00F023
:10092000F9BA30BC0C3000F0D3B900000000002050
:100930002DE9FF411C46DDE90A7815460E4668465A
:1009400000F064F846EA450141EA840141EA0722E1
:1009500042EA0841009A00EB8200C0F80017BDE8A7
:10096000FF812DE9FF411C46DDE90A7815460E4658
:10097000684600F059F846EA450141EA840141EA37
:10098000072242EA0841009A00EB8200C0F80017F3
:10099000BDE8FF811CB500220B4600921146019272
:1009A000FFF7C6FF1CBD1CB500220B460092114686
:1009B0000192FFF7D6FF1CBD1CB5002100910B462C
:1009C000012201911146FFF7B3FF1CBD1CB50021A8
:1009D00000910B46012201911146FFF7C2FF1CBD99
:1009E00008B50090684600F02DF8009A032100EB4E
:1009F0008200C0F8001708BD01B5684600F022F873
:100A0000009A01219140C0F80C1508BD0168202909
:100A100002D24FF0A040704701F01F010160014871
:100A200070470000000300500168202902D24FF0F7
:100A3000A040704701F01F010160014870470000AD
:100A4000000300500168202902D24FF0A0407047F7
:100A500001F01F01016001487047000000030050D1
:100A600001B56846FFF7D2FF009A01219140C0F816
:100A7000081508BD01B56846FFF7D6FF009A0121A9
:100A80009140C0F8081508BD4058002800D001204A
:100A9000704708B5002242504058009008BDD0F879
:100AA0000403084000D0012070474058002800D0BF
:100AB0000120704708B5002242504058009008BD00
:100AC0000121B1EB507F01D1012070470020704718
:100AD00070B50D4600F074FA04000FD00020FFF747
:100AE000DDFD207920B10020FFF7DAFD112070BD77
:100AF0000120256020710020FFF7D2FD002070BD8D
:100B00000149024800F036BB5C0000200020004094
:100B10002DE9F0410546007916460F4600EB4001ED
:100B20002D4A01EBC00102EB810494F82A1011B1A7
:100B30000820BDE8F081294951F820102868FFF706
:100B4000C7FF08B11120F4E739462846FFF7BCFD7E
:100B500066603869206030004FF001062FD03F7F7B
:100B60004FF48E712868FFF794FF4FF4A271286844
:100B7000FFF78FFF28681A49C0F8041328684FEA66
:100B8000471140F30730002806DA00F00F0000F1AB
:100B9000E02080F8141D03E000F1E02080F800144C
:100BA000286840F3073000F01F0206FA02F14009FE
:100BB000800000F1E020C0F88012C0F80011286821
:100BC0000421C0F800150020A061E06184F829002C
:100BD00044F8140FA675ACE75C000020C0130000B9
:100BE000800002002DE9F05F054600794FF40176A0
:100BF00000EB400303EBC000344B03EB8004002008
:100C0000636813B12B68C3F80863A3694FF0000948
:100C10006BB1E06938B1606810B12868C0F804634E
:100C20001120BDE8F09FE2610120216105E0C4F8D8
:100C30002490A261E160C4F81C9094F8291001434B
:100C400002D1284600F0F8F960680028286803D02F
:100C5000C0F804630020E4E74FF4A2763146FFF7C2
:100C600018FFB2464FF4927B59462868FFF70CFFF5
:100C700006464FF484712868FFF706FF8046514608
:100C80002868FFF701FF074648EA07003043EBD02A
:100C900056EA070007D12146286800F09DF9A169AE
:100CA000606A8142E0D8C4F818900EB10320B8E71A
:100CB0000FB10F20B5E794F8291001200029296809
:100CC00001D00860C6E74860C4E700005C0000206F
:100CD0002DE9F047054600790B4600EB400101EB9A
:100CE000C000234901EB8004284600F043F810B10E
:100CF0001120BDE8F0874FF00008C4F82080A36001
:100D0000626184F828804FF48E7647463146286821
:100D1000FFF7BFFE28684FF00109C0F80890214690
:100D2000286800F099F9606800BBD5F800A00EE0D3
:100D300094F8280008B10F2716E031465046FFF717
:100D4000A3FE0028F4D02146504600F085F9216A20
:100D500060698142F1D331462868FFF795FE00288B
:100D6000F9D02868C0F80C90C4F814803846C0E761
:100D70005C000020007900EB400101EBC000044959
:100D800001EB80004069002800D00120704700007E
:100D90005C0000200149024800F098BA8800002059
:100DA000002000402DE9F0410546164600790F4627
:100DB000154A00EBC00102EB810494F8201011B138
:100DC0000820BDE8F081114951F820102868FFF78C
:100DD0007FFE08B11120F4E739462846FFF7AFFC43
:100DE0006660386920601EB1397F2846FFF7FCFC39
:100DF00028680821C0F800150020A061E0610121E9
:100E0000606184F82010DCE788000020C413000033
:100E10002DE9F05F044600790E4600EBC001DFF8D3
:100E2000F0A017460AEB81053046FFF749FEB0B146
:100E300068684FF000084FF4047910B12168C1F8D8
:100E40000893A8694FF0000B80B1E86948B1686861
:100E500010B12068C0F804931120BDE8F09F102065
:100E6000FBE7EF614FF001082E6102E0EE60C5E99B
:100E7000067B00254FF488712068FFF71BFE4FF4B6
:100E8000A2712068FFF716FE2068C0F83465C0F82C
:100E900038752068B8F1000F12D0D0F8001241F078
:100EA0002001C0F800122079D04600EBC0010AEB07
:100EB0008100406838B12068C0F804932846CCE728
:100EC00001210160EFE74FF4887A4FF4A27951468F
:100ED0002068FFF7EAFD074649462068FFF7E5FD71
:100EE00006464FF492712068FFF7DFFD014647EA9E
:100EF00006000843EBD0227902EBC20308EB830221
:100F0000C2F818B001B10325002ED7D00F25D5E7C0
:100F1000880000202DE9F04704460E46007920495C
:100F200000EBC00001EB800517463046FFF7C8FD17
:100F300030B1204600F036F820B11120BDE8F0872E
:100F40001020FBE76F61AE604FF4907600273146CA
:100F50002068FFF7AFFD4FF4AC7841462068FFF7FB
:100F6000A9FD2068AA686969C0F84425C0F8481539
:100F7000206801218160686878B9B14649462068D7
:100F8000FFF793FD064641462068FFF78EFD0643B6
:100F9000F4D000B10F27002068613846CEE700008A
:100FA000880000200079054900EBC00001EB8000BB
:100FB0004069002800D00120704700008800002010
:100FC0000349884201D10348704700207047000060
:100FD000002000401400002070B5054688690C46CA
:100FE00000284FF4847128460AD0FFF752FDD5F847
:100FF0001805626AE1688854606A401C606270BDCE
:10100000FFF747FDD5F8180570BD1FB501238DF812
:101010000030CDE90121D0E90012684690471FBD9C
:101020001FB501238DF800308DF808100192D0E92A
:101030000012684690471FBD10B5044600684FF483
:101040009271FFF726FD4FF484712068FFF721FDB0
:1010500020680121016010BD70B50C4605464FF4B3
:101060008E71FFF716FD216AA068415C206A401C62
:101070002062C5F81C1570BD1FB500228DF8002038
:101080000291816801914261D0E90012684690475F
:101090001FBD0178022901D0012902D14068FFF764
:1010A0004DBA70477CB50178244D81B301290BD02E
:1010B00002292BD18DF80010C068691C0190012213
:1010C000C81DFFF715FC2EE0406801781C48FFF7AB
:1010D0005BFA1B4C012618B18DF80060019006E008
:1010E000A068E168814205D000208DF800006968A1
:1010F00068468847A068E168081AA188884207D82E
:101100000E490122491CC81DFFF7F2FB7CBD01E01E
:10111000AE70FBE70A4809491030FFF71AFA30B100
:1011200003208DF80000696868468847EEE70349A8
:10113000012201F10800FFF7EBFBE7E71C000020AC
:10114000AC0000201FB50A4601788DF800104168F8
:101150000191017A8DF80810C0680390044850F896
:101160002210083850F82220684690471FBD000022
:101170000C0000202DE9FF470C4605464FF4007196
:10118000FFF78DFC01274FF40178002618B34FF4C8
:10119000927949462846FFF777FCE0B14946284650
:1011A000FFF777FCC5F8088394F8290000B96F6051
:1011B00002208DF80000D5F88004C5F88004039063
:1011C000A0690290E0680190A661E661D4E900128E
:1011D0006846904728E004212846FFF760FC18B3D2
:1011E0004FF484712846FFF74FFCE8B121462846AA
:1011F000FFF7F2FE616AA069884215D1E06938B153
:10120000E268616AA0612069E6616662E06008E008
:1012100094F8290000B96F60C5F80883A661E268F8
:10122000616A2046FFF7F1FE4FF48E78414628466A
:10123000FFF72AFC78B1206A6169884202D294F8EB
:10124000280020B341462846FFF723FC616911B10D
:101250002046FFF711FF4FF4A27841462846FFF7DA
:1012600013FC002818D041462846FFF712FC94F8DA
:10127000290000B12F60A06900280DD0A661E268A6
:10128000616A04B02046BDE8F047FFF7BEBE2146C4
:101290002846FFF7E1FEDEE7BDE8FF871FB50A46F7
:1012A00001788DF8001041680191017A8DF80810DD
:1012B000C0680390044850F82210083850F82220E3
:1012C000684690471FBD00000C0000202DE9FF413B
:1012D0000C464FF4927705463946FFF7E6FB0026A9
:1012E000C0B139462846FFF7E5FB02208DF8000023
:1012F000D5F88004C5F880040390D5F83C058DF836
:101300000800E0680190A661E661D4E90012684631
:10131000904723E04FF4887739462846FFF7C5FB0E
:10132000E0B139462846FFF7C5FBD5F83C15A06962
:10133000884213D1E06960B1E268D5F8000220F07C
:101340002000C5F80002E069A0612069E661E06064
:1013500001E0A661E2682046FFF762FE4FF4A27743
:1013600039462846FFF7A1FB60B139462846FFF70A
:10137000A1FBA06930B1A661D5F83C152046E26812
:10138000FFF74EFE4FF4907739462846FFF78DFB66
:10139000002813D039462846FFF78CFB60690028E7
:1013A0000CD0D5F84C058DF800608DF80800A068C9
:1013B00001906661D4E9001268469047BDE8FF815C
:1013C000010B0000950D0000FFFFFFFFFFFFFFFF77
:1013D000FFFFFFFFFFFFFFFF000000000000000015
:1013E0000000D601060100000814000000000020E3
:1013F0005C000000CC040000641400005C000020CD
:1014000074220000DC040000000000000000000066
:1014100000000000000000000000000000000000CC
:1014200000000000000000000000000000000000BC
:1014300000200040000000000020004000000000EC
:10144000000000000000000008000000060000008E
:1014500019000000070000000000000000502700F5
:041460000090D00325
:0400000500000201F4
:00000001FF
